:04000000D2EF36F015
:08000800046ED8CF05F0E0CF33
:1000100006F00001E9CF0CF0EACF07F0E1CF08F0DD
:10002000E2CF09F0D9CF0AF0DACF0BF0F3CF12F01C
:10003000F4CF13F0FACF14F000C00EF001C00FF0AF
:1000400002C010F003C011F09DA22AEF00F09EB292
:100050002DEF06F0F2A830EF00F0F2B232EF06F02A
:10006000F0A636EF00F0F0B035EF06F09DAA3CEFB9
:1000700000F09EBA38EF06F09DA842EF00F09EB85F
:100080005FEF06F07DA048EF00F07EB02AEF06F0AB
:100090000EC000F00FC001F010C002F011C003F05C
:1000A0000CC0E9FF07C0EAFF078E08C0E1FF09C0E6
:1000B000E2FF0AC0D9FF0BC0DAFF12C0F3FF13C082
:1000C000F4FF14C0FAFF045006C0E0FF05C0D8FFDB
:1000D0001000F2CF0DF0F29EF76AEC0FF66E000EF4
:1000E000F7220900F5500DBEF28E1200C801000083
:1000F000810C0000420600000B007000A4A7020063
:10010000E500000006DD1E0007000000F2CF0DF044
:10011000F29EF76A260FF66E010EF7220900F550DF
:100120000DBEF28E1200244149203C6368616E6E60
:10013000656C3E3C63723E202009526571756573A3
:100140007420616E616C6F67206368616E6E656CB0
:100150002076616C756520283130206269747329BE
:100160000D0A0000F2CF0DF0F29EF76A7E0FF66ED8
:10017000010EF7220900F5500DBEF28E1200244147
:1001800054203C6C6576656C3E3C63723E202009D1
:1001900053657420617474656E7561746F72207438
:1001A0006F203C6C6576656C3E0D0A00F2CF0DF059
:1001B000F29EF76AC60FF66E010EF7220900F5509F
:1001C0000DBEF28E1200244346203C667265713EDD
:1001D0003C63723E2020094368616E676520667249
:1001E000657175656E63792028323138352E30207F
:1001F0002D20323330302E3020696E20302E3120C9
:10020000696E6373290D0A00F2CF0DF0F29EF76A52
:10021000220FF66E020EF7220900F5500DBEF28E87
:1002200012002444493C63723E20200952657175D6
:10023000657374206469676974616C20696E707598
:1002400074730D0A0000F2CF0DF0F29EF76A600F92
:10025000F66E020EF7220900F5500DBEF28E120066
:10026000244744203C616464723E3C63723E20201B
:10027000094765742044324120726567697374656B
:100280007220636F6E74656E74730D0A0000F2CF96
:100290000DF0F29EF76AA80FF66E020EF722090023
:1002A000F5500DBEF28E1200244746203C61646476
:1002B000723E3C63723E20200947657420465047D9
:1002C0004120726567697374657220636F6E74652F
:1002D0006E74730D0A00F2CF0DF0F29EF76AF00F04
:1002E000F66E020EF7220900F5500DBEF28E1200D6
:1002F000244F54203C6F75747075743E3C63723E9D
:10030000202009536574206469676974616C206FEB
:1003100075747075747320746F2048455820766129
:100320006C75650D0A00F2CF0DF0F29EF76A400F72
:10033000F66E030EF7220900F5500DBEF28E120084
:100340002452443C63723E20200952657365742038
:100350004432410D0A00F2CF0DF0F29EF76A700FA1
:10036000F66E030EF7220900F5500DBEF28E120054
:10037000245344203C616464723E203C6461746197
:100380003E3C63723E202009536574204432412074
:100390007265676973746572203C616464723E20A3
:1003A000746F203C646174613E0D0A00F2CF0DF061
:1003B000F29EF76AC60FF66E030EF7220900F5509B
:1003C0000DBEF28E1200245346203C616464723EDE
:1003D000203C646174613E3C63723E202009536599
:1003E00074204650474120726567697374657220B6
:1003F0003C616464723E20746F203C646174613EB1
:100400000D0A0000F2CF0DF0F29EF76A1E0FF66E95
:10041000040EF7220900F5500DBEF28E12000D0AEF
:100420000A4E4F2054454D502D5246204F464620EF
:100430000D0A0000F2CF0DF0F29EF76A4E0FF66E35
:10044000040EF7220900F5500DBEF28E120044533F
:10045000203C6461746120736F7572653E3C637209
:100460003E202009536574206461746120736F75A8
:100470007263652028302D31290D0A00F2CF0DF06E
:10048000F29EF76A960FF66E040EF7220900F550F9
:100490000DBEF28E12004450203C646174612070E5
:1004A0006F6C61726974793E3C63723E202009531F
:1004B0006574206461746120706F6C617269747915
:1004C0002028302D31290D0A0000F2CF0DF0F29EC8
:1004D000F76AE40FF66E040EF7220900F5500DBE20
:1004E000F28E12004445203C736574757020534FA2
:1004F0005150534B3E3C63723E202009536574209B
:10050000736574757020534F5150534B2028302D14
:1005100031290D0A0000F2CF0DF0F29EF76A300F7C
:10052000F66E050EF7220900F5500DBEF28E120090
:100530005250203C706F77657220686569676874F7
:100540003E3C63723E20200953657420706F7765CE
:1005500072206865696768742028302D31290D0A7A
:100560000000F2CF0DF0F29EF76A7C0FF66E050EDA
:10057000F7220900F5500DBEF28E12005246203CC3
:10058000706F77657220636F6D616E643E3C63725D
:100590003E20200953657420706F77657220636F69
:1005A0006D616E642028302D31290D0A0000F2CFD4
:1005B0000DF0F29EF76AC80FF66E050EF7220900DD
:1005C000F5500DBEF28E12005241203C72616E64F5
:1005D0006F6D697A65723E3C63723E2020095365F7
:1005E0007420776974682F776974686F75742072E6
:1005F000616E646F6D697A65722028302D31290D26
:100600000A00F2CF0DF0F29EF76A1C0FF66E060E8E
:10061000F7220900F5500DBEF28E12004652203C22
:100620006672657175656E63793E3C63723E20202B
:1006300009536574206672657175656E637920284B
:10064000323230302E302D323430302E30290D0AF7
:100650000000F2CF0DF0F29EF76A6C0FF66E060EF8
:10066000F7220900F5500DBEF28E12004D4F203CCE
:100670006D6F64653E3C63723E20200953657420B3
:100680006D6F64652028302D33290D0A0000F2CFEC
:100690000DF0F29EF76AA80FF66E060EF72209001B
:1006A000F5500DBEF28E12004943203C626974720F
:1006B0006174653E3C63723E20200953657420627C
:1006C0006972746174652028312E30302D33302EDC
:1006D000303044427073290D0A00F2CF0DF0F29EC3
:1006E000F76AF40FF66E060EF7220900F5500DBEFC
:1006F000F28E12004944203C696E7465726E616C22
:10070000207061747465726E3E3C63723E202009F5
:1007100053657420696E7465726E616C20706174CB
:100720007465726E2028302D33290D0A0000F2CF37
:100730000DF0F29EF76A480FF66E070EF7220900D9
:10074000F5500DBEF28E12005645203C63723E20DD
:100750002009646973706C61792076657273696FC2
:100760006E20696E666F0D0A0000F2CF0DF0F29EEA
:10077000F76A840FF66E070EF7220900F5500DBEDA
:10078000F28E12005653203C6D616A6F723E2E3C11
:100790006D696E6F723E203C63723E202009736566
:1007A00074207468652073657475702066696C6563
:1007B0002076657273696F6E0D0A0000F2CF0DF03E
:1007C000F29EF76AD60FF66E070EF7220900F55073
:1007D0000DBEF28E12005650203C706F776572206D
:1007E0006C6576656C3E3C63723E202009536574EF
:1007F00020706F776572206C6576656C20283230CA
:100800002D3430290D0A0000F2CF0DF0F29EF76A68
:10081000220FF66E080EF7220900F5500DBEF28E7B
:100820001200564C203C706F7765722068696768CB
:100830003E3C63723E2020095365742068696768F6
:1008400020706F776572206C6576656C2028323079
:100850002D3430290D0A0000F2CF0DF0F29EF76A18
:10086000720FF66E080EF7220900F5500DBEF28EDB
:100870001200564D203C6E65676174697665207084
:100880006F776572206C6576656C3E3C63723E20C6
:100890002009536574206E65676174697665207000
:1008A0006F776572206C6576656C0D0A0000F2CF7B
:1008B0000DF0F29EF76AC80FF66E080EF7220900D7
:1008C000F5500DBEF28E12005643203C706F7365DA
:1008D0007469766520706F776572206C6576656CDB
:1008E0003E3C63723E20200953657420706F73652F
:1008F0007469766520706F776572206C6576656CBB
:100900000D0A0000F2CF0DF0F29EF76A1E0FF66E90
:10091000090EF7220900F5500DBEF28E1200435366
:10092000203C636C6F636B2070686173653E3C6351
:10093000723E20200953657420636C6F636B2070D6
:10094000686173652028302D31290D0A0000F2CF2F
:100950000DF0F29EF76A680FF66E090EF722090095
:10096000F5500DBEF28E12005554203C55415254A4
:100970002054696D653E3C63723E202009536574C6
:10098000207468652073746F702074696D652C2005
:1009900064656661756C742031352028302D3234E1
:1009A00030290D0A0000F2CF0DF0F29EF76AC00F59
:1009B000F66E090EF7220900F5500DBEF28E1200F8
:1009C0005553203C55415254205374617475733E05
:1009D0003C63723E20200953657420746865204290
:1009E0006C6F636B2028302D31290D0A0000F2CF87
:1009F0000DF0F29EF76A080FF66E0A0EF722090054
:100A0000F5500DBEF28E12004247203C5541525423
:100A1000204368616E67653E3C63723E2020095347
:100A20006574207468652055415254207265667261
:100A30006573682072617465205B487A5D20283197
:100A40002D3230290D0A0000F2CF0DF0F29EF76A28
:100A5000620FF66E0A0EF7220900F5500DBEF28EF7
:100A600012005356203C7361766520616C6C3E3CED
:100A700063723E2020095361766520706172616D5A
:100A800065746572730D0000F2CF0DF0F29EF76A87
:100A9000A20FF66E0A0EF7220900F5500DBEF28E77
:100AA00012000D092048454C50204C495354200D4C
:100AB0000000F2CF0DF0F29EF76ACC0FF66E0A0E30
:100AC000F7220900F5500DBEF28E12000D0A4641C4
:100AD000554C540D0A00F2CF0DF0F29EF76AF00F5C
:100AE000F66E0A0EF7220900F5500DBEF28E1200C6
:100AF0000D0A4641494C0D0A0000F2CF0DF0F29E5E
:100B0000F76A140FF66E0B0EF7220900F5500DBEB2
:100B1000F28E120042413135323051545820563154
:100B20002E300000F2CF0DF0F29EF76A3E0FF66E07
:100B30000B0EF7220900F5500DBEF28E12000D0AC1
:100B40000A4F4B205265717565737420537461743C
:100B50007573200D0A0A0000F2CF0DF0F29EF76ABD
:100B6000720FF66E0B0EF7220900F5500DBEF28ED5
:100B70001200474F4F440000F2CF0DF0F29EF76A8B
:100B8000920FF66E0B0EF7220900F5500DBEF28E95
:100B9000120042414400F2CF0DF0F29EF76AB00F0E
:100BA000F66E0B0EF7220900F5500DBEF28E120004
:100BB0000D0A4F4B0D0A2A00F2CF0DF0F29EF76A94
:100BC000D20FF66E0B0EF7220900F5500DBEF28E15
:100BD00012000D0A0A425245414B0D0A0000F2CFA5
:100BE0000DF0F29EF76AF80FF66E0B0EF722090071
:100BF000F5500DBEF28E1200500014006600150074
:100C0000760016007F0017008F001800A70019005B
:100C1000B7001A00D0001B00E2001C0001011D00FB
:100C200020011E0042011F006801200090012100E8
:100C3000BE012200F90123003402240085022500B0
:100C4000D202260032032700E0032800ED0329002A
:100C5000FF0337007E9048EF00F0010E306E9E9249
:100C600048EF00F0F29248EF00F0F09048EF00F00B
:100C7000AECF70F2036A3250340FE96E000E0320DB
:100C8000EA6E70C2EFFF322A32501F0801E2326A68
:100C900031501F0801E3312A9E9A48EF00F0040EFC
:100CA0000201715F0AE3020EEA6E710EE96EEF5007
:100CB00004E001D00000EF2EFDD7000112009D924C
:100CC0008C8A0101196B186B15C103F01451D8B44B
:100CD0001507140703101DE08C8A19C103F0185181
:100CE000182BD8B4192B0201706F1A0E7025E96EFB
:100CF000010E0320EA6EEFCFADFF020E706FF90E0A
:100D0000716F0001CCDF0201702FF9D78C9A0101BD
:100D1000DBD79D989D829E98000148EF00F00D540E
:100D2000454D503D25362E32666465670D0A4F4BA2
:100D30000A0024415220256C750D000024435020E8
:100D400025750D0024445220253032580D00200D09
:100D50000A245346202530325820253032580D00C1
:100D6000200D0A2453442025303258202530325893
:100D70000D00465220256C750D004D4F2025750D38
:100D8000000044532025750D000045525220445365
:100D90002025750D000044502025750D000045529A
:100DA000522044502025750D000044452025750D26
:100DB00000004552522044452025750D0000525038
:100DC0002025750D00004552522052502025750DEA
:100DD000000052462025750D000045525220524613
:100DE0002025750D0000524320256C750D005242E0
:100DF00020256C750D0052412025750D00004552CF
:100E0000522052412025750D000055542025750DA6
:100E100000004552522055542025750D00005553B1
:100E20002025750D00004552522055532025750D83
:100E30000000424720256C750D0045525220424764
:100E400020256C750D0049442025750D0000455284
:100E5000522049442025750D0000494320256C751A
:100E60000D00564520257320565320256C752E25E0
:100E70006C752049443D2530326C752044543D2525
:100E800030326C75253032750D00565320256C7547
:100E9000256C750D0000565020256C750D00564DC3
:100EA00020256C750D00564320256C750D004353AD
:100EB0002025750D00004552522043532025750D05
:100EC000000043502025750D00004552522043502C
:100ED0002025750D00000A475020256C750D0A006D
:100EE0000A475220256C750D0A000D0A49443D251C
:100EF0006C752044543D2530326C75253032750DAB
:100F000000000D0A0A465245513D256C752C2052B1
:100F100045563D25732C20464657523D256C752C71
:100F20002049433D256C752E256C754D6270732CE0
:100F3000204D4F3D25752C2043533D25752C2052C7
:100F4000463D256C750D00000D0A0A44453D25758A
:100F50002C2052413D25752C2044503D25752C20D8
:100F600052503D256C752C2044533D25752C20494D
:100F7000443D25752C20564C3D256C752C20524245
:100F80003D256C752C2052433D256C752C2043501B
:100F90003D257520200D00000D0A0A55543D25758C
:100FA0002C2055533D25752042473D20256C75204A
:100FB0005B487A5D20256C75205B6D5365635D0D24
:100FC0000000020EEA6E3E0EE96EEF500EE0050ED6
:100FD000016E006A002EFED7012EFBD72E0E006E8A
:100FE000002EFED700D0EF2EF2D71200896A8A6A4F
:100FF0008B6A8C6A8D6AE10E926ED10E936E946E3E
:101000008E0E956E968096829694968628EF08F0BE
:101010000101786B316A31C033F033C032F0546A69
:101020009D8A00011200480E0509BA6E630EBB6E60
:10103000B46AB16A000E05090F01516F630E526F59
:101040004D6B4E6B000E4A6F000E4B6F0001CED7FA
:10105000C150F00BC16E210E0F01386F030E3C6FB3
:10106000100E396F000E3A6F3B6FC050C00B250950
:10107000C06EC08EC280776A040E786E796E0001F1
:10108000C7DF9D82C00EF21223EF37F002012DC29E
:1010900003F02C51D8B42D072C0703101FE02B515F
:1010A000036E2A512A2BD8B42B2BE96E03C0EAFF1A
:1010B0002951036E2851282BD8B4292B306F03C037
:1010C00031F2F2CF32F2F29E30C2A9FFA69CA69E68
:1010D000A680A85032BFF28EEF6ED9D700018AEFFA
:1010E00008F0016603D0026602D007D0022A00C0D1
:1010F000EEFF012EFCD7022EFAD797EF08F002017F
:10110000296B286B2B6BA80E2A6F2D6B5E0E2C6F34
:101110000001BCD7AF3D01D002D0B03D08D0EA6A93
:10112000A80EE96E006A026A5E0E016EDAD712003E
:10113000899402012EA702D0898801D089988986D6
:10114000040E006E002EFED700D08996040E006EAD
:10115000002EFED700D02EA502D0898801D0899814
:101160008986040E006E002EFED700D08996040EEC
:10117000006E002EFED700D02EA302D0898801D0A9
:1011800089988986040E006E002EFED700D08996BD
:10119000040E006E002EFED700D02EA102D089884A
:1011A00001D089988986040E006E002EFED700D0EB
:1011B0008996040E006E002EFED700D08986000BA3
:1011C000006E3051020B036E0050031002E089885C
:1011D00001D08998040E006E002EFED700D08996AB
:1011E000040E006E002EFED700D08986000B006E24
:1011F0003051010B036E0050031002E0898801D0CA
:101200008998899689862F51800B006E036A005059
:10121000031002E0898801D08998040E006E002E28
:10122000FED700D08996040E006E002EFED700D0A7
:1012300089862F51400B006E036A0050031002E0B4
:10124000898801D08998040E006E002EFED700D048
:101250008996040E006E002EFED700D089862F518D
:10126000200B006E036A0050031002E0898801D051
:101270008998899689862F51100B006E036A005059
:10128000031002E0898801D08998040E006E002EB8
:10129000FED700D08996040E006E002EFED700D037
:1012A00089862F51080B006E036A0050031002E07C
:1012B000898801D08998899689862F51040B006E00
:1012C000036A0050031002E0898801D08998040E57
:1012D000006E002EFED700D08996040E006E002E00
:1012E000FED700D089862F51020B006E036A005092
:1012F000031002E0898801D08998899689862F5148
:10130000010B006E036A0050031002E0898801D0CF
:101310008998040E006E002EFED700D08996040E28
:10132000006E002EFED700D08986040E006E002EBF
:10133000FED700D089968986040E006E002EFED757
:1013400000D0040E006E002EFED700D08996040E49
:10135000006E002EFED700D08984040E006E002E91
:10136000FED700D08992040E006E002EFED700D06A
:101370008982040E006E002EFED700D000011200FC
:1013800002012F6B2E6B2F5367E12E51130864E37C
:101390002E35306F2F35316F30373137FC0E301727
:1013A00031C203F03051F2CF32F2F29E000117DC6D
:1013B0000900F5CF03F0020132BFF28E016E035037
:1013C0002D5D46E303E101502C5D42E3010E2E2525
:1013D000326F000E2F21336F3237333732373337C6
:1013E000FC0E321733C203F03251F2CF34F2F29EC8
:1013F0000001EFEC05F00900F5CF03F0020134BF66
:10140000F28E016E2D51035C23E303E101502C5D4C
:101410001FE22E35306F2F35316F30373137FC0EEC
:101420003017020E3025016E000E3121036E01507F
:10143000F2CF30F2F29E0001EFEC05F00900F5CF9B
:1014400003F0020130BFF28E016E03C002F007D03C
:101450002E2BD8B42F2B97D7000E016E026E0001F1
:10146000120002014C6B4D6B010E4E6FDA6AD96AA5
:10147000020E516F440E506F020EEA6E480EE96E76
:1014800051C2E2FF50C2E1FF4EC24FF2D890E55088
:10149000EE02F3504C23F4504D234F2FF7D74CC29C
:1014A000DEFF4DC24CF24D6BD8B04D2B502BD8B453
:1014B000512B4E2B4E510508DFE100011200D8B22E
:1014C00004D0020EEA6E560EE96E006A016A026AE4
:1014D000036A0201566B576B586B596B5551541187
:1014E000531152112CE0200E5A6FD8904E374F37BF
:1014F0005037513756375737583759375551595D47
:1015000008E15451585D05E15351575D02E15251D4
:10151000565D0FE35251565F5351D8A0533D575F6C
:101520005451D8A0543D585F5551D8A0553D595FEE
:10153000D88000360136023603365A2FD6D756C227
:10154000EFFF57C2ECFF58C2ECFF59C2ECFF00019D
:10155000120002013F6B3E6B3D6B020E3C6F0400BC
:101560003B6B3A6B33C239F232C238F23351540812
:101570000AE2FF0A03E13251EF0805E23F6B3E6BDE
:101580003D6B010E3C6F04003BC247F23AC246F28B
:1015900039C245F238C244F23FC24BF23EC24AF26F
:1015A0003DC249F23CC248F200015BDF03C043F296
:1015B00002C042F201C041F200C040F203C047F253
:1015C00002C046F201C045F200C044F202014B6B7A
:1015D0004A6B496B640E486F000143DF03C03BF266
:1015E00002C03AF201C039F200C038F20400D892C9
:1015F0003BC251F23AC250F239C24FF238C24EF2F7
:101600000201556B546B7D0E536F526B000157DF17
:1016100003C038F102C037F101C036F100C035F126
:10162000040038C147F237C146F236C145F235C130
:1016300044F202014B6B4A6B7D0E496F486B00010F
:1016400010DF00500201385D406F01503959416F81
:1016500002503A59426F03503B59436F476B466BF8
:10166000456B640E446F3FC24BF23EC24AF23DC22C
:1016700049F23CC248F20001F4DE03C047F202C066
:1016800046F201C045F200C044F2D89243C251F282
:1016900042C250F241C24FF240C24EF203C055F274
:1016A00002C054F201C053F200C052F208DF03C07E
:1016B0003CF102C03BF101C03AF100C039F1D892CF
:1016C0000201516B506B010E4F6F400E4E6F3FC2C7
:1016D00055F23EC254F23DC253F23CC252F20001F6
:1016E000EEDE03C043F202C042F201C041F200C08C
:1016F00040F20201403741374237433740374137E4
:10170000423743374037413742374337F80E4017A7
:10171000010E402501013D6F000E02014121010132
:101720003E6F000E0201422101013F6F000E0201D7
:1017300043210101406F04003537363737373837DA
:10174000353736373737383735373637373738372D
:10175000F80E351739373A373B373C3739373A3790
:101760003B373C3739373A373B373C373917020E6E
:101770003927000E3A233B233C23010E0201342774
:10178000D8B0352BD8B4362BD8B4372B0001120083
:10179000080E0201386F38531EE037AF02D08B8637
:1017A00001D08B960C0E006E002EFED700D00000EC
:1017B0008B840C0E006E002EFED700D000008B94A0
:1017C000200E006E002EFED700D0000038513807E2
:1017D000D8903737E0D78B968B9400011200040025
:1017E000F29CF29EF2BEFDD734C236F234C237F21A
:1017F000CFDF33C236F233C237F2CADF32C236F23B
:1018000032C237F2C5DF340E006E002EFED700D094
:1018100000008B82060E006E002EFED700008B9219
:101820008B96C00EF21204001200040038C135F28B
:1018300037C134F236C133F235C132F2D0DF1A0E7D
:10184000006E002EFED70000040040C135F23FC1FB
:1018500034F23EC133F23DC132F2C1DF1A0E006EE6
:10186000002EFED7000004003CC135F23BC134F22B
:101870003AC133F239C132F2B2DF12008A940C0E4F
:10188000006E002EFED700D0000002013E513E0740
:10189000000A22E040C203F03F513F2BD8B4402B56
:1018A000E96E03C0EAFFEFCF41F2426B42510708F5
:1018B00012E341AF02D08C8801D08C9800D000D0C8
:1018C0008C8000D000D08C9000D000D04251422BB0
:1018D000D8904137EBD7DAD70C0E006E002EFED72A
:1018E00000D000008A84000112000201326B000166
:1018F000AD39006EF00E00160050AC1102013A6FC7
:101900000001AE39006E0036E00E001600500201F4
:101910003A130001B239006E00360036C00E0016D0
:10192000005002013A13006A0001B4B1008E005069
:1019300002013A11336F020E3E6F406F320E3F6F5D
:1019400000019CDF1200060E0201326FD8900001E8
:10195000B035AF1102013A6F0001B135006E0036AB
:10196000FC0E0016005002013A11336F020E3E6F5A
:10197000406F320E3F6F000181DF1200B60E006E25
:10198000036A026A016A02014E514F11501151114E
:1019900002E1006A0DD0D89001BE09D04E374F3712
:1019A00050375137033602360136002EF4D7019EE8
:1019B00000012FEF0EF002014E51D8B4A5D05A6F9E
:1019C0005251D8B4A1D05A5F05E37F0E5A27D8B040
:1019D0009BD006D0810E5A5FD8A096D0D8B494D0B0
:1019E0005AC200F0016A026A036A596B4FC258F288
:1019F000588F50C257F251C256F2190E5A6F5551B4
:101A0000565F0DE2010E575F0AE2585F08E2595F28
:101A100006E2592B582B572B5551562728D0545195
:101A2000575F12E2010E585F0FE2595F0DE2592B2A
:101A3000582B545157275551562719E3572B17E167
:101A4000582B15E1592B13D053518009585F0EE2E2
:101A5000010E595F0BE2592B5351800958275451FD
:101A60005727E9E3582BE7E1592BE5D703805A2F95
:101A700001D00BD0D8905637573758375937D890B0
:101A80000336023601365B37BAD75BA106D0D89051
:101A90000132023203325B3302D0000635E05BBF15
:101AA0001ED0D89056375737583759375551565F4B
:101AB00007E2010E575F04E2585F02E2595F1AE342
:101AC0005451575F05E2010E585F02E2595F12E37D
:101AD00053518009585F03E2010E595F0BE3032A5B
:101AE00009E1022A07E1012A05E1002A0DE001329D
:101AF000023203324FC25AF253515A1B5AAF02D02C
:101B0000018E06D0019E04D0006A016A026A036A4F
:101B10000001120002014E51D8B471D0006E525132
:101B2000D8B46DD0002604E3810E002668E204D00C
:101B30007F0E005E64E363E04FC256F25351561BC2
:101B40004F8F538F51515503F4CF58F250515403D6
:101B5000F4CF03F0F3CF57F25503F3505827F45066
:101B60005723000E032251515403F3505827F450C9
:101B70005723000E026A032202224F515503F350ED
:101B80005727F4500322000E02224F515403F35002
:101B90000326F4500222000E016A01225151530320
:101BA000F3505727F4500322000E02220122505115
:101BB0005303F3500326F4500222000E01224F512A
:101BC0005303F3500226F4500122002A01BE05D02F
:101BD00057370336023601360006000E57AF0AD0DB
:101BE000032A02220122015005E1025003E10350C1
:101BF00001E1002A56BF018E56AF019E04D0006A53
:101C0000016A026A036A0001120002014E51B6081D
:101C10004E6F036A4FC252F24F8FD8904F335033FA
:101C2000513303320232013200324E2FF6D752AF17
:101C30000BD0001E011E021E031E002AD8B4012A6A
:101C4000D8B4022AD8B4032A0001120045C251F2C6
:101C500044C250F243C24FF242C24EF28FD603C08A
:101C600049F202C048F201C047F200C046F249C240
:101C700051F248C250F247C24FF246C24EF2C00E75
:101C80000201556FE10E546F640E536F9A0E526F3E
:101C9000000191DE03C04DF202C04CF201C04BF2D4
:101CA00000C04AF24DC251F24CC250F24BC24FF248
:101CB0004AC24EF20201556B546B536B8F0E526F3A
:101CC000000128DF03C04DF202C04CF201C04BF20C
:101CD00000C04AF24DC251F24CC250F24BC24FF218
:101CE0004AC24EF20201556B546B536B8F0E526F0A
:101CF000000110DF03C04DF202C04CF201C04BF2F4
:101D000000C04AF24DC251F24CC250F24BC24FF2E7
:101D10004AC24EF27ADF03C051F202C050F201C053
:101D20004FF200C04EF2010E0201005C006E000E88
:101D30000158016E000E0258026E000E0358036E29
:101D4000000112000201416B406BA9C03FF2A8C024
:101D50003EF241C247F240C246F2A9C045F2A8C0D5
:101D600044F24B6B4A6B270E496F100E486F00010F
:101D700031EC0AF003C041F202C040F201C03FF270
:101D800000C03EF203C045F202C044F201C043F27B
:101D900000C042F25BDF03C03DF202C03CF201C072
:101DA0003BF200C03AF2020E0201326F3AC233F245
:101DB000020E3E6F406F320E3F6F00015FDD0A0E74
:101DC00002013E6F0001E1EC07F0030E0201326FE9
:101DD0003BC233F2020E3E6F406F320E3F6F000186
:101DE0004DDD0A0E02013E6F0001E1EC07F0040E2A
:101DF0000201326F3CC233F2020E3E6F406F320E70
:101E00003F6F00013BDD0A0E02013E6F0001E1EC75
:101E100007F0050E0201326F3DC233F2020E3E6F33
:101E2000406F320E3F6F000129DD0A0E02013E6F46
:101E30000001E1EC07F01200B7C02FF2B6C02EF29D
:101E4000050E02013E6F0001E1EC07F02FC233F2F4
:101E50002EC232F2A9EC0AF0050E02013E6F00011B
:101E6000E1EC07F0E2DC050E02013E6F0001E1EC5F
:101E700007F03BDD050E02013E6F0001E1EC07F0CB
:101E800062DD050E02013E6F0001E1EC07F05ADF52
:101E9000A9C031F2A8C030F2030E1C6EE80E1B6E12
:101EA0001200000E83BE010E02012E6F0001AA5126
:101EB000F85D03E1AB51F95D02E0000E01D0010EC7
:101EC00002012E192C6F2D6B2C512D1102E08C8CE0
:101ED0000ED00001F82D0AD0F95308E1020E0201DC
:101EE0002E6F306B2F6B000198EC08F0020101019E
:101EF000A55314E1A65312E102012C2D01D002D00A
:101F000001010CD02D53D8B402D0010107D0320EFC
:101F10003E6F0001E1EC07F08FDF01012DC2A6F159
:101F20002CC2A5F12DC211F12CC210F1000180EFDD
:101F300010F01AC02DF219C02CF218C02FF217C0E1
:101F40002EF2FA51010B0201316F326B000E83B495
:101F5000010E0001FC5D02E1FD5302E0000E01D024
:101F6000010E02013119306FD8903035036A2C0F01
:101F7000E96E020E0320EA6EECCF0FF1ED52EFCFC7
:101F80000EF1D8903035036A2C0FE96E020E032053
:101F9000EA6EEFCF01F0E92AEF50E906026E000188
:101FA00081EF10F0213C03D0223C01D02CD028A698
:101FB00029D02896020E02012E6F22C030F221C0D5
:101FC0002FF2000198EC08F0140E016EC250830B42
:101FD0000110C26E1A0E006E002EFED70000C282E3
:101FE000C2B2FED7C4CF29F20201C3CF28F229C260
:101FF0002DF228C22CF20001C0EC09F002C00DF154
:1020000001C00CF1C4D0B75158081FE303E1B65129
:1020100029081BE3060E02012E6FBCC030F2BBC0C4
:102020002FF2000198EC08F0010E02013E6F000152
:10203000E1EC07F00A0E02012E6FC2C030F2C1C0FF
:102040002FF2000198EC08F03CD0B7515A081FE37A
:1020500003E1B651F9081BE3060E02012E6FBEC064
:1020600030F2BDC02FF2000198EC08F0010E020121
:102070003E6F0001E1EC07F00A0E02012E6FC4C0B2
:1020800030F2C3C02FF2000198EC08F01AD0060E0F
:1020900002012E6FC0C030F2BFC02FF2000198ECD9
:1020A00008F0010E02013E6F0001E1EC07F00A0E9C
:1020B00002012E6FC6C030F2C5C02FF2000198ECAD
:1020C00008F0140E016EC250830B0110C26E1A0E7E
:1020D000006E002EFED70000C282C2B2FED7C4CF6F
:1020E00029F20201C3CF28F229C22DF228C22CF214
:1020F0000001C0EC09F002C00DF101C00CF1D1D615
:1021000018D702C02BF201C02AF2060E02012A25BE
:10211000016E000E2B21036E0350295D04E312E1D2
:102120002851015C0FE3060E2A5D006E000E2B594C
:10213000036E00C001F02951035C2AE303E1015062
:10214000285D26E229512B5D0EE303E12A51285D2B
:102150000AE21C5203E11B50950804E2030E1B5EC9
:10216000000E1C5A0BD01C50030808E303E11B505F
:10217000F20804E3030E1B26000E1C22020E2E6F33
:102180001CC030F21BC02FF2000198EC08F00201D5
:10219000000112000101BD6B070EBC6FBD510708A5
:1021A00038E3BC51040DF350036AF2CFBEF1F29E46
:1021B000000169EC00F00900F5CF01F00900F5CF4E
:1021C00002F00900F5CF03F00101BEBFF28E03C09B
:1021D000BBF102C0BAF101C0B9F1B86F016A026A7D
:1021E000036ABC51B8130150B9130250BA1303501B
:1021F000BB13BBC135F2BAC134F2B9C133F2B8C1B5
:1022000032F20001EFEC0BF00101BD51BD2BBC0718
:10221000C5D7FA0E02013E6F0001E1EC07F0BBC129
:1022200035F2BAC134F2B9C133F2B8C132F2EFECCF
:102230000BF0FA0E02013E6F0001E1EC07F061EFD6
:1022400037F09D9A8C8A840E006E002EFED700D047
:10225000000002016C6B6AC203F069C2E9FF6AC246
:10226000EAFFEF5246E06AC203F06951692BD8B425
:102270006A2BE96E03C0EAFFEFCF6BF26B510908DE
:1022800016E06BC2ADFF6C2B020E6E6F166AF2BECB
:10229000168EF29E950E716F00014FEC06F016BE81
:1022A000F28E02016E2FF2D7AECF6BF221D0200E4C
:1022B0006D6F6D516C5D03E3020E6C256D6F6D519A
:1022C0006C5D16E2200EAD6E6C2B020E6E6F166A00
:1022D000F2BE168EF29E950E716F00014FEC06F065
:1022E00016BEF28E02016E2FF2D7AECF6BF2E7D799
:1022F000B2D7840E006E002EFED700D000008C9A5C
:10230000AECF6BF29D8A000112000101BA6BB9C118
:1023100015F1B8C114F19E989D880001C3EF11F02A
:10232000302C50D0306A2B2AD8B42C2AD8900101F6
:102330000331036E0231026E016E03502C5C24E304
:1023400003E101502B5C20E32F2C1ED00001FF2D58
:1023500001D002D0010118D00101122D02D0135377
:1023600004E0125311E113530FE12C6A2B6A010EA2
:102370002D6E162BD8B4172B345306E1B96B1A0EF9
:10238000B86F0001C2D70101242A245009081BE2BA
:10239000246A2B2AD8B42C2A252A2668272A2750D3
:1023A000090811E2276A2868292A295009080BE23E
:1023B000296A2A682E2A0001FE512E5C03E32E6A48
:1023C000010E2F6E01010001C9EF37F00101C06B52
:1023D000C06B0001B0A103D00101C02B0001000EB1
:1023E000AEB1010E006ED890003600500101C0273A
:1023F000000E0001B2B1010E006E00360036FC0E78
:10240000001600500101C027000E0001AFB1010EFF
:10241000006E003600360036F80E0016005001013E
:10242000C027000E0001ADB1010E006E003AF00EA3
:10243000001600500101C027000E0001B4B1010ECA
:10244000006E003A0036E00E001600500101C02771
:10245000036AC0C101F003C002F00001D1EF14F023
:10246000100E016EC250830B0110C26E1A0E006E68
:10247000002EFED70000C282C2B2FED7C4CF09F13F
:102480000101C3CF08F10951020806E303E1085135
:10249000440802E3A29101D0A281C06BC06B00018D
:1024A000F8A103D00101C02B0001000EFAB1010E0A
:1024B000006ED890003600500101C027000E10B108
:1024C000010E006E00360036FC0E00160050C027CC
:1024D00019500E5D03E11A500F5D02E0000E01D0AD
:1024E000010E016E000E01B0010E006E00360036C6
:1024F0000036F80E00160050C027000E0001FFB194
:10250000010E006E003AF00E001600500101C027C7
:10251000000EA2B1010E006E003A0036E00E001669
:102520000050C027036AC0C101F003C002F00001DF
:10253000D4EF14F08E0E006E44C201F043C202F0DC
:10254000036A01AE05D0011E021E022A01E1012A22
:10255000015209E102C001F0026A080E005E015258
:1025600002E1006A0DD0D89001BE04D002360136D7
:102570000006F9D7020144AF02D0000101D0019E4C
:10258000000118EF14F0800ED8A202D00201481BFF
:1025900002014D6B4E6B44C24CF248514C1B4351EF
:1025A000D8B4DFD04B6F006E4751D8B4E3D04B5F47
:1025B000D8B483D03EE348C251F2518F49C250F2A1
:1025C0004AC24FF24E6BD890513350334F334E3393
:1025D0004B2FF8D74CAF03D04D81E0D04D914B91AC
:1025E0004D89020EEA6E460EE96EEBD04D994CBF56
:1025F0000AD04BA113D0513350334F334E33002AFE
:10260000D8B4C7D00BD051BF0CD0D8904E374F376D
:10261000503751370006D8B4BCD0F5D74D8D6DD0AA
:102620004D9D44C24CF244AF02D0518FABD0519F6C
:10263000A9D047C24BF247C200F043514B5F44C29E
:1026400051F2518F45C250F246C24FF24E6BD890B4
:10265000513350334F334E334B2FF8D74CAF03D059
:102660004D839CD04D934B914D8B020EEA6E4A0EDA
:10267000E96EA7D04D9B4CBF0AD04BA113D051336C
:1026800050334F334E33002AD8B483D00BD051BFD0
:102690000CD0D8904E374F37503751370006D8B44A
:1026A00078D0F5D74D8F29D04D9F48C24CF248AF16
:1026B00002D0518F67D0519F65D048C251F2518FDF
:1026C00049C250F24AC24FF24CAF04D0519F4D85DF
:1026D00065D04D954E6B4B91020EEA6E460EE96E3B
:1026E00070D04CBF1CD044C24CF24BA106D0513329
:1026F00050334F334E33002A4CE04EAF0BD04F2BAC
:1027000009E1502B07E1512B05E1513350334F3391
:10271000002A3FE04DBD84D74DBFC6D71CD0800EE8
:10272000511B51AF04D03AD048C24CF20AD044C237
:102730004CF2515306E1505304E14F5302E1006A59
:1027400021D051BF08D0D8904E374F37503751372E
:10275000002EF7D71ED04CAF02D0518F13D0519F0F
:1027600011D047C200F048C251F249C250F24AC2E9
:102770004FF208D043C200F044C251F245C250F2B9
:1027800046C24FF251C201F050C202F04FC203F0F4
:1027900034D0006A016A026A036A2FD04E6B4F1F61
:1027A000501F511F4E1F4E2B05E14F2B03E1502BA5
:1027B00001E1512B4DB112D74DB354D74DB589D747
:1027C000B3D7EF504F2705E3502B03E1512BD8B47B
:1027D0004B81ED52EF50502703E3512BD8B44B817E
:1027E000ED52EF50EFBE01D0800A5127D8B04B8197
:1027F0004DB9FCD64DBB3ED774D700011200180E60
:10280000016EC250830B0110C26E420E006E002E8C
:10281000FED70000C282C2B2FED7C4CF42F202018C
:10282000C3CF41F242C244F241C243F2000182D618
:1028300003C046F202C045F201C044F200C043F2B8
:1028400003C051F202C050F201C04FF200C04EF27C
:102850000201556B546B536B890E526F0001DBEC18
:102860000CF003C046F202C045F201C044F200C0C1
:1028700043F203C051F202C050F201C04FF200C057
:102880004EF2330E0201556F546F530E536F800E8C
:10289000526F00018AEC0DF003C040F202C03FF21B
:1028A00001C03EF200C03DF2D88240C246F23FC2B3
:1028B00045F23EC244F23DC243F202014A6B496B0B
:1028C000400E486F7E0E476F00015DDE03C040F290
:1028D00002C03FF201C03EF200C03DF240C251F2E0
:1028E0003FC250F23EC24FF23DC24EF20201556B62
:1028F000546B480E536F850E526F00018AEC0DF039
:1029000003C040F202C03FF201C03EF200C03DF2FF
:10291000D89240C246F23FC245F23EC244F23DC2A6
:1029200043F202014A6B496B480E486F830E476FB2
:10293000000129DE03C040F202C03FF201C03EF2B6
:1029400000C03DF23DC200F03EC201F03FC202F0C5
:1029500040C203F012008E0E006E0101C051005EF5
:10296000C1C102F0C2C101F0028E005209E0D8904C
:10297000025202E1015204E002320132002EF7D786
:10298000C1AF05D0011E021E012AD8B4022A0001DF
:10299000FAEF14F00101B96BB86B0001D2EC0FF043
:1029A00015D501C0BEF15CD501C0BFF128DF03C061
:1029B000C3F102C0C2F101C0C1F100C0C0F103C047
:1029C00051F202C050F201C04FF200C04EF20201BB
:1029D000556B546B480E536F850E526F00018AEC95
:1029E0000DF003C0C3F102C0C2F101C0C1F100C0CB
:1029F000C0F1B1D702C0BDF101C0BCF1FB0E0101B5
:102A00001A6F600E1B6F16C11CF1B7C01DF1B6C066
:102A10001EF10101ACC01FF1BEC120F10001AA519D
:102A2000AB110DE0010110511111D8A402D0000129
:102A300006D0BDC121F1BCC122F105D000017F0E3D
:102A40000101216F2269A9C023F1A8C024F101016D
:102A50000CC125F1B1C026F1BFC127F100C128F199
:102A600001C129F1D890093108312A6F010E2B6F6D
:102A7000F5C02CF1F4C02DF1010105C12EF104C106
:102A80002FF1AA0E306F316FBB6BBA6BBB5311E1E4
:102A9000BA5117080EE31A0EBA25E96E010EBB21D2
:102AA000EA6EEF50B827000EB923BA2BD8B4BB2B6F
:102AB000EDD7B8C132F1B9C133F10001ECEF37F015
:102AC000036A3350340FE96E000E0320EA6EEFCF35
:102AD000D1F1332A33501F0801E2336A315201E049
:102AE00031060101D1C101F000011200036A0101A8
:102AF0004151560FE96E000E0320EA6E036AEFCFD4
:102B000001F003C002F00001120001014151412B0C
:102B1000036A560FE96E000E0320EA6E036AEFCFD8
:102B200001F003C002F000011200036A01014151EB
:102B3000560FE96E000E0320EA6EEF5218E0036AAA
:102B40004151560FE96E000E0320EA6EEF502C083B
:102B50000AE0036A4151560FE96E000E0320EA6E47
:102B6000EF50200804E1412B0001DFD701010001F3
:102B70001200020135513719800B396F35AF05D07E
:102B8000341F351F342BD8B4352B37AF05D0361F43
:102B9000371F362BD8B4372B34513603F3CF01F01F
:102BA000F4CF00F03703F350002635513603F350CD
:102BB0000020026E39AF05D0011E021E012AD8B4D2
:102BC000022A000112000201336B010E326F000174
:102BD000ACDF036A01014151560FE96E000E03207C
:102BE000EA6EEF5245E00201316B306B00017EDF8F
:102BF00002C035F201C034F2020101502D0807E194
:102C0000355305E13369326900017FDF0201036A50
:102C100001014151560FE96E000E0320EA6EEFCF1D
:102C200034F2020134512F0822E2345139081FE3F3
:102C300031C235F230C234F2376B0A0E366F000102
:102C400098DF02C035F201C034F201014151412B3D
:102C5000036A560FE96E000E0320EA6E300EEF5C39
:102C600002010124306F000E0220316FD0D7010124
:102C700031C235F230C234F233C237F232C236F2E8
:102C8000000177DF02C003F002C002F012000D0E57
:102C90000201286F0A0E296F2A6F2B6B020E6A6FD2
:102CA000280E696F000121EC11F0020EEA6E280E69
:102CB000E96EF2CF67F2F29E2E0E016EF76A000EF9
:102CC0001AEC02F00A000900F5CFEEFF012EFBD747
:102CD000020167BFF28E020E6A6F280E696F000153
:102CE00021EC11F0020EEA6E280EE96EF2CF67F2C7
:102CF000F29E330E016EF76A000E3EEC02F00A00FF
:102D00000900F5CFEEFF012EFBD7020167BFF28E5F
:102D1000020E6A6F280E696F000121EC11F0020E9D
:102D2000EA6E280EE96EF2CF67F2F29E310E016E66
:102D3000F76A000E65EC02F00A000900F5CFEEFF1D
:102D4000012EFBD7020167BFF28E020E6A6F280EBA
:102D5000696F000121EC11F0020EEA6E280EE96E97
:102D6000F2CF67F2F29E310E016EF76A000E8BEC25
:102D700002F00A000900F5CFEEFF012EFBD7020199
:102D800067BFF28E020E6A6F280E696F000121EC98
:102D900011F0020EEA6E280EE96EF2CF67F2F29E93
:102DA000310E016EF76A000EB1EC02F00A00090064
:102DB000F5CFEEFF012EFBD7020167BFF28E020EA8
:102DC0006A6F280E696F000121EC11F0020EEA6EA5
:102DD000280EE96EF2CF67F2F29E3A0E016EF76AA4
:102DE000000ED7EC02F00A000900F5CFEEFF012E2D
:102DF000FBD7020167BFF28E020E6A6F280E696F61
:102E0000000121EC11F0020EEA6E280EE96EF2CFFD
:102E100067F2F29E350E016EF76A000E01EC03F0C8
:102E20000A000900F5CFEEFF012EFBD7020167BFB4
:102E3000F28E020E6A6F280E696F000121EC11F00C
:102E4000020EEA6E280EE96EF2CF67F2F29E210EB4
:102E5000016EF76A000E29EC03F00A000900F5CFB5
:102E6000EEFF012EFBD7020167BFF28E020E6A6FE2
:102E7000280E696F000121EC11F0020EEA6E280E97
:102E8000E96EF2CF67F2F29E320E016EF76A000E23
:102E900047EC03F00A000900F5CFEEFF012EFBD747
:102EA000020167BFF28E020E6A6F280E696F000181
:102EB00021EC11F0020EEA6E280EE96EF2CF67F2F5
:102EC000F29E390E016EF76A000E6DEC03F00A00F7
:102ED0000900F5CFEEFF012EFBD7020167BFF28E8E
:102EE000020E6A6F280E696F000121EC11F0020ECC
:102EF000EA6E280EE96EF2CF67F2F29E210E016EA5
:102F0000F76A000E97EC03F00A000900F5CFEEFF18
:102F1000012EFBD7020167BFF28E020E6A6F280EE8
:102F2000696F000121EC11F0020EEA6E280EE96EC5
:102F3000F2CF67F2F29E370E016EF76A000EB5EC23
:102F400003F00A000900F5CFEEFF012EFBD70201C6
:102F500067BFF28E020E6A6F280E696F000121ECC6
:102F600011F0020EEA6E280EE96EF2CF67F2F29EC1
:102F7000310E016EF76A000EDEEC03F00A00090064
:102F8000F5CFEEFF012EFBD7020167BFF28E020ED6
:102F90006A6F280E696F000121EC11F0020EEA6ED3
:102FA000280EE96EF2CF67F2F29E350E016EF76AD7
:102FB000000E04EC04F00A000900F5CFEEFF012E2C
:102FC000FBD7020167BFF28E020E6A6F280E696F8F
:102FD000000121EC11F0020EEA6E280EE96EF2CF2C
:102FE00067F2F29E3B0E016EF76A000E2CEC04F0C5
:102FF0000A000900F5CFEEFF012EFBD7020167BFE3
:10300000F28E020E6A6F280E696F000121EC11F03A
:10301000020EEA6E280EE96EF2CF67F2F29E3B0EC8
:10302000016EF76A000E57EC04F00A000900F5CFB4
:10303000EEFF012EFBD7020167BFF28E020E6A6F10
:10304000280E696F000121EC11F0020EEA6E280EC5
:10305000E96EF2CF67F2F29E2F0E016EF76A000E54
:1030600082EC04F00A000900F5CFEEFF012EFBD739
:10307000020167BFF28E020E6A6F280E696F0001AF
:1030800021EC11F0020EEA6E280EE96EF2CF67F223
:10309000F29E3D0E016EF76A000EA7EC04F00A00E6
:1030A0000900F5CFEEFF012EFBD7020167BFF28EBC
:1030B000020E6A6F280E696F000121EC11F0020EFA
:1030C000EA6E280EE96EF2CF67F2F29E2D0E016EC7
:1030D000F76A000ED3EC04F00A000900F5CFEEFF0A
:1030E000012EFBD7020167BFF28E020E6A6F280E17
:1030F000696F000121EC11F0020EEA6E280EE96EF4
:10310000F2CF67F2F29E3F0E016EF76A000EF7EC07
:1031100004F00A000900F5CFEEFF012EFBD70201F3
:1031200067BFF28E020E6A6F280E696F000121ECF4
:1031300011F0020EEA6E280EE96EF2CF67F2F29EEF
:10314000250E016EF76A000E24EC05F00A00090056
:10315000F5CFEEFF012EFBD7020167BFF28E020E04
:103160006A6F280E696F000121EC11F00D0E02014B
:10317000286F0A0E296F2A6B020E6A6F280E696F7C
:10318000000121EC11F0E4EF2CF0A4C1EAFFA3C18F
:10319000E9FF02014EC2EFFFE92AD8B4EA2AEF6A3A
:1031A0000101A32BD8B4A42B000112000900F6CF13
:1031B00042F2F7CF43F2F5CF4EF2E7DF42C2F6FF1D
:1031C00043C2F7FF0201412F01D002D00001EED728
:1031D00000011200EACF34F2E9CF33F202012D39B7
:1031E000F0092F6F2F27E20F306F320F326F2D5102
:1031F0000F0B302730273227E90F316F3127312766
:103200002C390F0B3127322731373237321F323703
:103210002C510F0B32272F37070E2E6F0A0E310756
:103220003227FDE330073127FDE32F073027FDE389
:103230002E072F27FDE3020EEA6E2E0EE96E070E13
:103240003315339DE926320EE95CD8B4338DEF5047
:10325000006E08E133BD06D033B915D033B702D0C4
:10326000200E03D033873399300E0026EACF2DF29B
:10327000E9CF2CF200C04EF2000187DF2DC2EAFF39
:103280002CC2E9FF0201EE5033ADDDD70001120080
:103290009ADC02C02BF201C02AF202C035F201C052
:1032A00034F20201376B0A0E366F000162DC02C095
:1032B00029F2020101C028F2000118DC02C02BF241
:1032C00001C02AF2020101502E0810E12B530EE139
:1032D00000011BDC1ADC300E0201015C006E000EE6
:1032E0000258036E005028270350292328C201F0FA
:1032F00029C202F00001120002012F51016A2E5D65
:1033000003E22EC200F00CD0006A080E306F2E3798
:1033100000362F51005CD8B0006E0136302FF7D741
:103320000001120001502CC22EF2640E02012F6F18
:103330000001E2DF00C02CF20150300E08E1020172
:103340002DA30FD02DB70DD02DB9200E04D0020122
:103350002D972D992D81012601C04EF2000115DF18
:1033600002012CC22EF20A0E2F6F0001C5DF00C031
:103370002CF20150300E08E102012DB70AD02DA128
:1033800008D02DB9200E0001012601C04EF2FDDE4D
:103390000201300E2C272CC24EF20001F6DE120084
:1033A00002012DC203F02C51D8B42D072C070310B5
:1033B0002CE02951036E2851282BD8B4292B2E6FCD
:1033C00003C02FF22B51036E2A512A2BD8B42B2B7A
:1033D000E96E03C0EAFFEFCF30F2F250006EF29ECA
:1033E0002EC2A9FF30C2A8FFA69CA69EA6840F01EC
:1033F000550EA76EAA0EA76EA682A6B2FED7A694F9
:103400000050F2120001CCD7020100011AEF1AF0AD
:10341000010106519F080FE107510B080CE1020161
:10342000296B286B2B6BA80E2A6F2D6B5E0E2C6FF1
:103430000001B6D70101076B066B00011200016A9B
:10344000026A006A036A02012D5102E12C5118E060
:10345000100E2E6FD8902A372B37003603362D5199
:10346000035C02E12C51005C07E32C51005ED8A004
:1034700003062D51035ED880013602362E2FEAD77F
:1034800000011200E3EC15F001C000F002C001F0F1
:10349000026A036A03C02BF202C02AF201C029F2B9
:1034A00000C028F285EC15F0E3EC15F001C000F047
:1034B00002C001F0026A036A03C02FF202C02EF2BA
:1034C00001C02DF200C02CF276EC15F002C031F2F2
:1034D00001C030F2020101502E081EE131531CE1FF
:1034E000000185EC15F0E3EC15F001C000F002C01E
:1034F00001F0026A036A03C02FF202C02EF201C07B
:103500002DF200C02CF202012C5128272D51292325
:103510002E512A232F512B232BC247F22AC246F2C7
:1035200029C245F228C244F24B6B4A6B496B640EC8
:10353000486F000131EC0AF002012C510024000117
:10354000A86F02012D5101200001A96FA2EC0EF01D
:1035500015EF26F0E9500201466F4551486F1CE017
:1035600044C251F243C250F242C24FF241C24EF243
:10357000556B546B200E536F820E526F00018AEC14
:103580000DF003C044F202C043F201C042F200C099
:1035900041F20201482FE4D744C251F243C250F233
:1035A00042C24FF241C24EF2000105EC0EF003C0E0
:1035B00044F202C043F201C042F200C041F20201F3
:1035C00044AF0DD04607468B411F421F431F441F87
:1035D000412BD8B4422BD8B4432BD8B4442B3B0E48
:1035E0004D6F9A0E4C6FCA0E4B6F4A6B0A0E486FA6
:1035F0004551D8B4462BD882020EEA6E410EE96ED0
:1036000044C251F243C250F242C24FF241C24EF2A2
:103610004DC255F24CC254F24BC253F24AC252F25E
:1036200000015FEC0AF00150005213E1020145294C
:10363000485DD8A402D000010CD046510DE00F0B1C
:10364000485D01E040E246BF3ED046BD05D0200EB9
:1036500034D0200E0201461746AB0ED0469B455192
:10366000D8A446070050466F2D0E4E6F00018DDD29
:1036700002014651006E466B4551485D0CE1005019
:10368000466F2E0E4E6F000180DD02014651006E26
:10369000200E4617000E300E46AB0FD0469B45510C
:1036A000D8A446070050466F2D0E4E6F00016DDD09
:1036B00002014651006E466B300E002600C04EF2ED
:1036C000000163DD0201D8924DC251F24CC250F2AA
:1036D0004BC24FF24AC24EF2556B546B536B0A0EFB
:1036E000526F00015FEC0AF003C04DF202C04CF2D1
:1036F00001C04BF200C04AF20201482F7CD7000102
:10370000ACEF1BF0AA51AB1131E0FFEC13F003C09A
:1037100040F202C03FF201C03EF200C03DF2010E95
:103720000101A46F780EA36F1E0EF66E0D0EF76EDC
:10373000060E0201416F000139DD050EE96E40C23F
:1037400044F23FC243F23EC242F23DC241F2020E97
:103750000201456F0001FED6290EF66E0D0EF76EC2
:10376000080E0201416F000121DD1DD0020EEA6E3C
:10377000280EE96EF2CF3DF2F29E150E016EF76A49
:10378000000E02EC02F00A000900F5CFEEFF012E58
:10379000FBD702013DBFF28E020E6A6F280E696FE1
:1037A000000121EC11F012000900F5520CE0F6CFF7
:1037B0002CF2F7CF2DF2F5CF4EF2E7DC2CC2F6FF5C
:1037C0002DC2F7FFF1D76AEF26F0E3EC15F002C047
:1037D00029F201C028F228C200F10201295327E191
:1037E0002851280824E3295303E1285113081FE234
:1037F000140E285D0001F66F000E02012959000128
:10380000F76FD890F635026EF735036E0250C70F8A
:10381000E96E000E0320EA6EECCF18F0ED52EFCF08
:1038200017F0010E016E000E026E04D00201000EB0
:10383000016E026E000179EF27F0E3EC15F002C093
:1038400029F201C028F228C201F10201295327E11F
:103850002851280824E3295303E1285113081FE2C3
:10386000140E285D0001B86F000E020129590001F5
:10387000B96FD890B835026EB935036E0250C70FD4
:10388000E96E000E0320EA6EECCF1AF0ED52EFCF96
:1038900019F0010E016E000E026E04D00201000E3E
:1038A000016E026E0001D5EF27F0EF520FE0EACF74
:1038B0002DF2E9CF2CF2EFCF4EF267DC2DC2EAFFFA
:1038C0002CC2E9FFE92AD8B4EA2AEFD7FBEF2AF0A5
:1038D0000101C46BEE6B020EC56F416B000176EC0B
:1038E00015F002C029F201C028F2020101503A0885
:1038F0001FE129531DE1000185EC15F0E3EC15F003
:1039000001C0FDF185EC15F002C029F201C028F2DA
:10391000020101503A0802E1295300E10101FD5181
:103920000001F45D02E1F55302E0E4EF2CF0020146
:10393000000185EC15F002C029F201C028F2020155
:10394000295303E12851600808E2295306E1285170
:103950007A0803E32851DF0B01D028510101EF6FF2
:10396000000185EC15F002C029F201C028F2020125
:10397000295303E12851600808E2295306E1285140
:103980007A0803E32851DF0B01D028510101F06FC1
:10399000000195EC15F076EC15F002C029F201C09B
:1039A00028F2020101500D0806E1295304E1010E3D
:1039B0000101EE6F02010101EF514C0A00013BE0F1
:1039C000680A5CE06C0AD8B489D00E0AD8B4AED0CC
:1039D0000B0AD8B42CD1090AD8B4B8D1160AD8B475
:1039E0004DD3050AD8B454EF23F0040AD8B463EFDA
:1039F00023F0060AD8B484EF23F0170AD8B493EF63
:103A000024F00B0AD8B459EF25F01D0AD8B41BEFE7
:103A100026F0020AD8B42DEF26F0150AD8B455EFD7
:103A200028F0040AD8B464EF29F0160AD8B4EEEFEF
:103A300029F0C0EF2CF00101F051490A000103E028
:103A4000060A17E019D0E3EC15F002C007F201C036
:103A500006F202010651B80807E10751440804E1E3
:103A6000010E0101346F0201010E0101436F0001DB
:103A700003D00101346B0001E4EF2CF00101345359
:103A800004E10001E4EF2CF00101F051520823E1C0
:103A90000001E3EC15F002C007F201C006F20201DA
:103AA0000651B70803E10751440802E0E5EF2CF0A6
:103AB0000101426B0D0E02010A6F0A0E0B6F0C6FB3
:103AC0002A0E0D6F0E6B020E6A6F0A0E696F0001EF
:103AD00021EC11F001010001E4EF2CF0010134535D
:103AE00004E10001E4EF2CF00101020EEA6E0F0E7A
:103AF000E96EF2CF28F2F29E016EF76A000E000125
:103B000044EC05F00A000900F5CFEEFF012EFBD7CB
:103B1000020128BFF28E020E6A6F0F0E696F00015C
:103B200021EC11F047EF16F0E4EF2CF001013453D3
:103B300004E10001E4EF2CF00101F051520A000110
:103B400001E073D00101F051520851E1EE5326E03B
:103B5000010EA46FC60EA36F720EF66E0D0EF76EF9
:103B6000030E0201416F0001D6EC18F0100EE96E51
:103B7000B7C02DF2B6C02CF2EAEC18F00D0E02011F
:103B80004E6F0001C5EC18F0010E02016A6FC60EFF
:103B9000696F000121EC11F028D00101000148EC0F
:103BA00019F00201016B006B02C0FFF101C0FEF1D0
:103BB000FFC1B7F0FEC1B6F0FFC129F2FEC128F285
:103BC000FFC133F2FEC132F20001A9EC0AF015EC9C
:103BD0000CF0320E02013E6F0001E1EC07F015EC33
:103BE0000CF0010E0101C46F00011FD00101020E93
:103BF000EA6E0F0EE96EF2CF28F2F29E0A0E016E07
:103C0000F76A000E000159EC05F00A000900F5CF33
:103C1000EEFF012EFBD7020128BFF28E020E6A6F63
:103C20000F0E696F000121EC11F0E4EF2CF001019F
:103C3000345304E10001E4EF2CF00101F0514F088E
:103C400063E1EE5325E0010EA46FC60EA36F7A0E5A
:103C5000F66E0D0EF76E030E0201416F0001D6ECF9
:103C600018F0ACC02CF21B0E02012D6F000192EC7B
:103C700019F00D0E02014E6F0001C5EC18F0010E97
:103C800002016A6FC60E696F000121EC11F001019B
:103C90000001E3EC15F002C007F201C006F20201D8
:103CA00007530DE1065103080AE306C2ACF0000118
:103CB00075EC0CF0010E0101C46F25D00201020E5B
:103CC000EA6E0F0EE96EF2CF28F2F29E090E016E37
:103CD000F76A000E00016BEC05F00A000900F5CF51
:103CE000EEFF012EFBD7020128BFF28E020E6A6F93
:103CF0000F0E696F000121EC11F00101C46B00018E
:103D0000E4EF2CF001011FD0020EEA6E0F0EE96EF7
:103D1000F2CF28F2F29E090E016EF76A000E000142
:103D20006BEC05F00A000900F5CFEEFF012EFBD782
:103D3000020128BFF28E020E6A6F0F0E696F00013A
:103D400021EC11F001010001E4EF2CF001013453EA
:103D500004E10001E4EF2CF00101F051530A0001ED
:103D600007E0030AD8B485D0150AD8B405D184D1A8
:103D70000101EE5326E0010EA46FC60EA36F820E62
:103D8000F66E0D0EF76E030E0201416F0001D6ECC8
:103D900018F0B0C02CF21B0E02012D6F000192EC46
:103DA00019F00D0E02014E6F0001C5EC18F0010E66
:103DB00002016A6FC60E696F000121EC11F054D048
:103DC00001010001E3EC15F002C007F201C006F2A8
:103DD000020107530AE10651010807E306C2B0F0E9
:103DE0000001A3EC0CF040D00201020EEA6E0F0EAF
:103DF000E96EF2CF28F2F29E090E016EF76A000E0C
:103E000000016BEC05F00A000900F5CFEEFF012E72
:103E1000FBD7020128BFF28E020E6A6F0F0E696F88
:103E2000000121EC11F0010E0101A46F780EA36FC7
:103E30008A0EF66E0D0EF76E070E0201416F00013D
:103E4000D6EC18F0B0C02CF21B0E02012D6F000151
:103E500092EC19F00D0E02014E6F0001C5EC18F046
:103E60000101C46B000108D1010E0101C46F000102
:103E700003D10101EE5326E0010EA46FC60EA36F1D
:103E8000960EF66E0D0EF76E030E0201416F0001E5
:103E9000D6EC18F0AEC02CF21B0E02012D6F000103
:103EA00092EC19F00D0E02014E6F0001C5EC18F0F6
:103EB000010E02016A6FC60E696F000121EC11F05C
:103EC00056D001010001E3EC15F002C007F201C079
:103ED00006F2020107530CE10651010809E3010E45
:103EE000D88006550001AE6F75EC0CF040D0020191
:103EF000020EEA6E0F0EE96EF2CF28F2F29E090E64
:103F0000016EF76A000E00016BEC05F00A00090073
:103F1000F5CFEEFF012EFBD7020128BFF28E020E75
:103F20006A6F0F0E696F000121EC11F0010E0101A3
:103F3000A46F780EA36F9E0EF66E0D0EF76E070E31
:103F40000201416F0001D6EC18F0AEC02CF21B0E3E
:103F500002012D6F000192EC19F00D0E02014E6F5F
:103F60000001C5EC18F00101C46B000185D0010E01
:103F70000101C46F000180D00101EE5326E0010E63
:103F8000A46FC60EA36FAA0EF66E0D0EF76E030E8B
:103F90000201416F0001D6EC18F0B4C02CF21B0EE8
:103FA00002012D6F000192EC19F00D0E02014E6F0F
:103FB0000001C5EC18F0010E02016A6FC60E696FB0
:103FC000000121EC11F054D001010001E3EC15F0E7
:103FD00002C007F201C006F2020107530AE10651CE
:103FE000010807E306C2B4F0000175EC0CF040D004
:103FF0000201020EEA6E0F0EE96EF2CF28F2F29E77
:10400000090E016EF76A000E00016BEC05F00A0064
:104010000900F5CFEEFF012EFBD7020128BFF28E7B
:10402000020E6A6F0F0E696F000121EC11F0010E94
:104030000101A46F780EA36FB20EF66E0D0EF76E2F
:10404000070E0201416F0001D6EC18F0B4C02CF24B
:104050001B0E02012D6F000192EC19F00D0E0201F2
:104060004E6F0001C5EC18F00101C46B000104D0D3
:10407000010E0101C46F0001E4EF2CF00101345383
:1040800004E10001E4EF2CF00101410EF05DF00FBE
:10409000D8B007D3100F0001E8EF2CF00101EE5368
:1040A00026E0010EA46FC60EA36FBE0EF66E0D0EB7
:1040B000F76E030E0201416F0001D6EC18F0B3C099
:1040C0002CF21B0E02012D6F000192EC19F00D0E67
:1040D00002014E6F0001C5EC18F0010E02016A6F7B
:1040E000C60E696F000121EC11F084D001010001BE
:1040F000E3EC15F002C007F201C006F2020107531B
:104100003AE10651010837E30001FA2D10D0FB53C4
:104110000EE10201065308E1075306E10001FD6BC1
:10412000010EFC6F04D002010001FD6BFC6B02016B
:10413000062D11D007530FE10001FD6BFC6BFCC095
:10414000A0F1320E02013E6F0001E1EC07F01CEC21
:104150000FF00FD002010001FD6B010EFC6FFCC0DF
:10416000A0F1320E02013E6F0001E1EC07F01CEC01
:104170000FF040D00201020EEA6E0F0EE96EF2CF90
:1041800028F2F29E090E016EF76A000E00016BEC38
:1041900005F00A000900F5CFEEFF012EFBD7020162
:1041A00028BFF28E020E6A6F0F0E696F000121ECBC
:1041B00011F0010E0101A46F780EA36FC60EF66E0A
:1041C0000D0EF76E070E0201416F0001D6EC18F0DC
:1041D000A0C12CF21B0E02012D6F000192EC19F010
:1041E0000D0E02014E6F0001C5EC18F00101C46B09
:1041F00058D20001010E0101C46F53D20101EE53E8
:1042000026E0010EA46FC60EA36FD20EF66E0D0E41
:10421000F76E030E0201416F0001D6EC18F0A1C148
:104220002CF21B0E02012D6F000192EC19F00D0E05
:1042300002014E6F0001C5EC18F0010E02016A6F19
:10424000C60E696F000121EC11F0B7D00101000129
:10425000E3EC15F002C007F201C006F202010653BA
:1042600034E1075332E10001F851F91103E1FA5149
:10427000FB1113E00101A16B0001AB6BA1C1AAF01E
:104280003C0E02013E6F0001E1EC07F01CEC0FF068
:10429000010E0101C46F17D00001F85302E1F95378
:1042A00003E0FA51FB110EE00101A16B0001AB6BC1
:1042B000A1C1AAF03C0E02013E6F0001E1EC07F043
:1042C0001CEC0FF0010178D00201062D37D0075306
:1042D00035E10001F851F91116E0010E0101A16F5D
:1042E0000001AB6BA1C1AAF0D2EC0FF0320E0201BB
:1042F0003E6F0001E1EC07F0010E0101C46F000107
:104300001CEC0FF019D0F85317E1F95315E1010E29
:104310000101A16F0001AB6BA1C1AAF0D2EC0FF0BB
:10432000320E02013E6F0001E1EC07F0010E0101C7
:10433000C46F00011CEC0FF040D00201020EEA6EC7
:104340000F0EE96EF2CF28F2F29E090E016EF76AA7
:10435000000E00016BEC05F00A000900F5CFEEFF3E
:10436000012EFBD7020128BFF28E020E6A6F0F0EDC
:10437000696F000121EC11F0010E0101A46F780EAC
:10438000A36FDA0EF66E0D0EF76E070E0201416F87
:104390000001D6EC18F0A1C12CF21B0E02012D6F0A
:1043A000000192EC19F00D0E02014E6F0001C5ECF8
:1043B00018F00101C46B75D10001010E0101C46F39
:1043C00070D10101EE5326E0010EA46FC60EA36F5B
:1043D000E60EF66E0D0EF76E030E0201416F000140
:1043E000D6EC18F0100EE96EFBC02DF2FAC02CF2DC
:1043F000EAEC18F00D0E02014E6F0001C5EC18F04A
:10440000010E02016A6FC60E696F000121EC11F006
:104410004ED001010001E3EC15F002C007F201C02B
:1044200006F20201075325E10651010822E3065373
:104430000EE107530CE10001FB6BFA6B320E020137
:104440003E6F0001E1EC07F01CEC0FF00201062DBD
:104450000FD007530DE10001FB6B010EFA6F320E16
:1044600002013E6F0001E1EC07F01CEC0FF00201CD
:104470001FD0020EEA6E0F0EE96EF2CF28F2F29E06
:104480000A0E016EF76A000E000159EC05F00A00F1
:104490000900F5CFEEFF012EFBD7020128BFF28EF7
:1044A000020E6A6F0F0E696F000121EC11F002011C
:1044B0000101F7D00101EE5326E0010EA46FC60EF4
:1044C000A36FEE0EF66E0D0EF76E030E0201416F36
:1044D0000001D6EC18F0100EE96EF9C02DF2F8C00C
:1044E0002CF2EAEC18F00D0E02014E6F0001C5EC43
:1044F00018F0010E02016A6FC60E696F000121EC0F
:1045000011F03ED001010001E3EC15F002C007F20A
:1045100001C006F20201075315E10651010812E33A
:1045200007C2F9F006C2F8F00101A12B010EA11794
:10453000320E02013E6F0001E1EC07F01CEC0FF0BF
:104540001FD00201020EEA6E0F0EE96EF2CF28F2C2
:10455000F29E0A0E016EF76A000E000159EC05F09A
:104560000A000900F5CFEEFF012EFBD7020128BF9C
:10457000F28E020E6A6F0F0E696F000121EC11F0CE
:1045800001018FD00101EE5326E0010EA46FC60E8B
:10459000A36FF60EF66E0D0EF76E030E0201416F5D
:1045A0000001D6EC18F0B2C02CF21B0E02012D6FE8
:1045B000000192EC19F00D0E02014E6F0001C5ECE6
:1045C00018F0010E02016A6FC60E696F000121EC3E
:1045D00011F057D001010001E3EC15F002C007F221
:1045E00001C006F2020107530DE1065101080AE37A
:1045F00006C2B2F0000175EC0CF0010E0101C46FAF
:104600003FD00201020EEA6E0F0EE96EF2CF28F2E1
:10461000F29E090E016EF76A000E00016BEC05F0C8
:104620000A000900F5CFEEFF012EFBD7020128BFDB
:10463000F28E020E6A6F0F0E696F000121EC11F00D
:10464000010E0101A46F780EA36FFE0EF66E0D0E23
:10465000F76E070E0201416F0001D6EC18F0B2C0F0
:104660002CF21B0E02012D6F000192EC19F00D0EC1
:1046700002014E6F0001C5EC18F00101C46B11D0AE
:104680000001010E0101C46F0CD07FEC08F01CEC9E
:104690000FF0010E0101C46F04D0FF00010101D031
:1046A00001010001E4EF2CF00101345304E10001A9
:1046B000E4EF2CF00101F051410802E1010EC46F5A
:1046C0000001E4EF2CF00101345304E10001E4EFB8
:1046D0002CF00101F051500A000103E0060A06E047
:1046E00011D0010E0101C46F00010CD00B0E0101AD
:1046F000076F9F0E066F000108EC1AF0010E010112
:10470000C46F0001E4EF2CF00101345304E1000117
:10471000E4EF2CF00101F051540A000104E0070A13
:10472000D8B484D0FED00101EE5326E0010EA46F70
:10473000C60EA36F0A0EF66E0E0EF76E030E020182
:10474000416F0001D6EC18F0FEC02CF21B0E0201E6
:104750002D6F000192EC19F00D0E02014E6F000159
:10476000C5EC18F0010E02016A6FC60E696F0001F8
:1047700021EC11F055D001010001E3EC15F002C06D
:1047800007F201C006F2020107530BE10651EF08E0
:1047900008E3075303E106510A0803E206C2FEF0EC
:1047A00040D0020EEA6E0F0EE96EF2CF28F2F29EB2
:1047B000090E016EF76A000E00016BEC05F00A00AD
:1047C0000900F5CFEEFF012EFBD7020128BFF28EC4
:1047D000020E6A6F0F0E696F000121EC11F0010EDD
:1047E0000101A46F780EA36F120EF66E0E0EF76E17
:1047F000070E0201416F0001D6EC18F0FEC02CF24A
:104800001B0E02012D6F000192EC19F00D0E02013A
:104810004E6F0001C5EC18F00101C46B000181D09E
:104820000201010E0101C46F00017BD00101EE53B2
:1048300026E0010EA46FC60EA36F1E0EF66E0E0EBE
:10484000F76E030E0201416F0001D6EC18F0FFC0B5
:104850002CF21B0E02012D6F000192EC19F00D0ECF
:1048600002014E6F0001C5EC18F0010E02016A6FE3
:10487000C60E696F000121EC11F050D0010100015A
:10488000E3EC15F002C007F201C006F20201075383
:1048900006E10651010803E306C2FFF040D0020E14
:1048A000EA6E0F0EE96EF2CF28F2F29E090E016E4B
:1048B000F76A000E00016BEC05F00A000900F5CF65
:1048C000EEFF012EFBD7020128BFF28E020E6A6FA7
:1048D0000F0E696F000121EC11F0010E0101A46FB0
:1048E000780EA36F260EF66E0E0EF76E070E0201FF
:1048F000416F0001D6EC18F0FFC02CF21B0E020134
:104900002D6F000192EC19F00D0E02014E6F0001A7
:10491000C5EC18F00101C46B000103D002010001D5
:1049200000D0E4EF2CF00101345304E10001E4EF86
:104930002CF00101F051470A000101E0B8D001015B
:10494000EE5326E0010EA46FC60EA36F320EF66E74
:104950000E0EF76E030E0201416F0001D6EC18F047
:10496000100EE96E03C12DF202C12CF2EAEC18F030
:104970000D0E02014E6F0001C5EC18F0010E020190
:104980006A6FC60E696F000121EC11F08CD0010135
:104990000001E3EC15F001C000F002C001F0026A72
:1049A000036A03C005F202C004F201C003F200C0B2
:1049B00002F20201055307E1045305E1035303E149
:1049C0000251000821E205531FE104531DE1035386
:1049D0001BE10251140818E3D892516B506B030E7F
:1049E0004F6FE80E4E6F05C255F204C254F203C277
:1049F00053F202C252F200015FEC0AF001C003F16F
:104A000000C002F150D00201020EEA6E0F0EE96EF4
:104A1000F2CF28F2F29E090E016EF76A000E000135
:104A20006BEC05F00A000900F5CFEEFF012EFBD775
:104A3000020128BFF28E020E6A6F0F0E696F00012D
:104A400021EC11F0030E02012B6FE80E2A6F03C157
:104A50002DF202C12CF200011FEC1AF002C029F263
:104A600001C028F2010E0101A46F780EA36F3A0E67
:104A7000F66E0E0EF76E070E0201416F0001D6ECC6
:104A800018F0100EE96E29C22DF228C22CF2EAECC1
:104A900018F00D0E02014E6F0001C5EC18F0010177
:104AA000C46B000104D0010E0101C46F0001E4EFEA
:104AB0002CF00101345304E10001E4EF2CF001017A
:104AC000F051440A000104E0070AD8B482D0B1D002
:104AD0000101EE5326E0010EA46FC60EA36F460E31
:104AE000F66E0E0EF76E030E0201416F0001D6EC5A
:104AF00018F0B1C02CF21B0E02012D6F000192ECD8
:104B000019F00D0E02014E6F0001C5EC18F0010EF8
:104B100002016A6FC60E696F000121EC11F054D0DA
:104B200001010001E3EC15F002C007F201C006F23A
:104B3000020107530AE10651030807E306C2B1F078
:104B40000001A3EC0CF040D00201020EEA6E0F0E41
:104B5000E96EF2CF28F2F29E090E016EF76A000E9E
:104B600000016BEC05F00A000900F5CFEEFF012E05
:104B7000FBD7020128BFF28E020E6A6F0F0E696F1B
:104B8000000121EC11F0010E0101A46F780EA36F5A
:104B90004E0EF66E0E0EF76E070E0201416F00010B
:104BA000D6EC18F0B1C02CF21B0E02012D6F0001E3
:104BB00092EC19F00D0E02014E6F0001C5EC18F0D9
:104BC0000101C46B000135D0010E0101C46F000169
:104BD00030D00101EE5326E0010EA46FC60EA36F84
:104BE0005A0EF66E0E0EF76E030E0201416F0001B3
:104BF000D6EC18F0100EE96EA9C02DF2A8C02CF268
:104C0000EAEC18F00D0E02014E6F0001C5EC18F031
:104C1000010E02016A6FC60E696F000121EC11F0EE
:104C200004D00101000142EF1AF0010E0101C46F2E
:104C30000001E4EF2CF00101345304E10001E4EF42
:104C40002CF00101F051450805E1000182EC1BF058
:104C50000101C46B0001E4EF2CF00101345304E1C5
:104C60000001E4EF2CF00101F051450A000110E0D1
:104C7000160AD8B4AED01F0AD8B434D11C0AD8B49E
:104C80005DD11D0AD8B496D10E0AD8B4CED10BD2BC
:104C90000101F05145087CE105C128F20201296BB0
:104CA000296B04C12AF202012B6B010E0101A46FD2
:104CB000C60EA36F620EF66E0E0EF76E030E0201A5
:104CC000416F0001D6EC18F0140EF66E0B0EF76E65
:104CD000D4EF1BF0670EF66E0E0EF76E040E020197
:104CE000416F0001D6EC18F0100EE96E29C22DF2CA
:104CF00028C22CF2EAEC18F02E0E02014E6F0001D1
:104D0000C5EC18F0100EE96E2BC22DF22AC22CF25F
:104D1000EAEC18F0720EF66E0E0EF76E040E02013B
:104D2000416F0001D6EC18F00B0EE96EF5C02DF2C4
:104D3000F4C02CF2EAEC18F07B0EF66E0E0EF76E55
:104D4000040E0201416F0001D6EC18F00B0EE96E63
:104D5000F2C02DF2F1C02CF2EAEC18F0F3C02CF204
:104D6000010E02012D6F000192EC19F00D0E0201EF
:104D70004E6F0001C5EC18F0010E02016A6FC60EFD
:104D8000696F000121EC11F0010E0101C46F1FD009
:104D9000020EEA6E0F0EE96EF2CF28F2F29E090EB5
:104DA000016EF76A000E00016BEC05F00A000900C5
:104DB000F5CFEEFF012EFBD7020128BFF28E020EC7
:104DC0006A6F0F0E696F000121EC11F00101000103
:104DD0006AD10101EE533AE005C128F20201296BC4
:104DE000296B04C12AF202012B6B010E0101A46F91
:104DF000C60EA36F8A0EF66E0E0EF76E030E02013C
:104E0000416F0001D6EC18F0100EE96E29C22DF2A8
:104E100028C22CF2EAEC18F0100EE96E2BC22DF22B
:104E20002AC22CF2EAEC18F00D0E02014E6F0001BE
:104E3000C5EC18F0010E02016A6FC60E696F000121
:104E400021EC11F0010E0101C46F4AD00001E3EC26
:104E500015F002C007F201C006F276EC15F002C0B0
:104E600029F201C028F2020101502E081AE129534B
:104E700018E1000185EC15F0E3EC15F002C009F231
:104E800001C008F2000E020108270651092309C2D9
:104E900005F108C204F1010E0101C46F000103D144
:104EA0000201020EEA6E0F0EE96EF2CF28F2F29EB8
:104EB000090E016EF76A000E00016BEC05F00A00A6
:104EC0000900F5CFEEFF012EFBD7020128BFF28EBD
:104ED000020E6A6F0F0E696F000121EC11F00101E3
:104EE0000001E1D00101F0514C0807E10001E5EFBC
:104EF0001BF0010E0101C46F1FD0020EEA6E0F0EEF
:104F0000E96EF2CF28F2F29E090E016EF76A000EEA
:104F100000016BEC05F00A000900F5CFEEFF012E51
:104F2000FBD7020128BFF28E020E6A6F0F0E696F67
:104F3000000121EC11F001010001B5D00101EE5397
:104F400031E0140E0001B8250201286F000E0001A7
:104F5000B9210201296F010E0101A46FC60EA36FD2
:104F6000960EF66E0E0EF76E030E0201416F0001F3
:104F7000D6EC18F0100EE96E29C22DF228C22CF2E0
:104F8000EAEC18F00D0E02014E6F0001C5EC18F0AE
:104F9000010E02016A6FC60E696F000121EC11F06B
:104FA00004D0010100011DEF1CF0010E0101C46FCE
:104FB000000179D00101EE5326E0010EA46FC60E68
:104FC000A36F9E0EF66E0E0EF76E030E0201416F7A
:104FD0000001D6EC18F0100EE96E20C02DF21FC0B3
:104FE0002CF2EAEC18F00D0E02014E6F0001C5EC38
:104FF00018F0010E02016A6FC60E696F000121EC04
:1050000011F012D001010001E3EC15F002C020F014
:1050100001C01FF0060E02012E6F07C230F206C259
:105020002FF2000198EC08F03ED00101EE5326E08B
:10503000010EA46FC60EA36FA60EF66E0E0EF76ECF
:10504000030E0201416F0001D6EC18F0100EE96E5C
:1050500022C02DF221C02CF2EAEC18F00D0E020154
:105060004E6F0001C5EC18F0010E02016A6FC60E0A
:10507000696F000121EC11F016D001010001E3EC91
:1050800015F002C007F201C006F207C222F006C204
:1050900021F0020E02012E6F07C230F206C22FF27B
:1050A000000198EC08F0E4EF2CF00101345304E126
:1050B0000001E4EF2CF00101F0515308D8A480D096
:1050C000EE5326E0010EA46FC60EA36FAE0EF66E71
:1050D0000E0EF76E030E0201416F0001D6EC18F0C0
:1050E000AFC02CF21B0E02012D6F000192EC19F0E3
:1050F0000D0E02014E6F0001C5EC18F0010E020109
:105100006A6FC60E696F000121EC11F055D00101E4
:105110000001E3EC15F002C007F201C006F2020143
:1051200007530AE10651010807E306C2AFF0000188
:10513000A3EC0CF041D00201020EEA6E0F0EE96EF4
:10514000F2CF28F2F29E090E016EF76A000E0001FE
:105150006BEC05F00A000900F5CFEEFF012EFBD73E
:10516000020128BFF28E020E6A6F0F0E696F0001F6
:1051700021EC11F0010E0101A46F780EA36FB60EA1
:10518000F66E0E0EF76E070E0201416F0001D6ECAF
:1051900018F0AFC02CF21B0E02012D6F000192EC33
:1051A00019F00D0E02014E6F0001C5EC18F001015F
:1051B000C46B0001E4EF2CF0010E0101C46F82D03A
:1051C000F0515008D8A47ED0EE5326E0010EA46F13
:1051D000C60EA36FC20EF66E0E0EF76E030E020120
:1051E000416F0001D6EC18F0ADC02CF21B0E02018D
:1051F0002D6F000192EC19F00D0E02014E6F0001AF
:10520000C5EC18F0010E02016A6FC60E696F00014D
:1052100021EC11F054D001010001E3EC15F002C0C3
:1052200007F201C006F2020107530AE10651010824
:1052300007E306C2ADF0000175EC0CF040D00201AE
:10524000020EEA6E0F0EE96EF2CF28F2F29E090E00
:10525000016EF76A000E00016BEC05F00A00090010
:10526000F5CFEEFF012EFBD7020128BFF28E020E12
:105270006A6F0F0E696F000121EC11F0010E010140
:10528000A46F780EA36FCA0EF66E0E0EF76E070EA1
:105290000201416F0001D6EC18F0ADC02CF21B0EDC
:1052A00002012D6F000192EC19F00D0E02014E6FFC
:1052B0000001C5EC18F00101C46B000185D3010E9B
:1052C0000101C46F000180D30101345303E10001E7
:1052D0007BD30101F051500A000105E0040A3DE0D2
:1052E000060A41E079D0140E016EC250830B011002
:1052F000C26E420E006E002EFED70000C282C2B205
:10530000FED7C4CF07F20201C3CF06F2010E01019E
:10531000A46F780EA36FD60EF66E0E0EF76E040E07
:105320000201416F0001D6EC18F0100EE96E07C2C1
:105330002DF206C22CF2EAEC18F00D0E02014E6FAF
:105340000001C5EC18F00A0E02014E6F0001C5EC19
:1053500018F00101C46B00013FD082EC1BF0010189
:10536000C46B000139D0100E016EC250830B0110C6
:10537000C26E1A0E006E002EFED70000C282C2B2AC
:10538000FED7C4CF07F20201C3CF06F2010E01011E
:10539000A46F780EA36FE00EF66E0E0EF76E040E7D
:1053A0000201416F0001D6EC18F0100EE96E07C241
:1053B0002DF206C22CF2EAEC18F00D0E02014E6F2F
:1053C0000001C5EC18F00A0E02014E6F0001C5EC99
:1053D00018F00101C46B0001F7D2F6D2020EEA6E9A
:1053E0000F0EE96EF2CF28F2F29E190E016EF76AE7
:1053F000000E92EC05F00A000900F5CFEEFF012E39
:10540000FBD7020128BFF28E020E6A6F0F0E696F82
:10541000000121EC11F0020EEA6E0F0EE96EF2CFE0
:1054200028F2F29E016EF76A000E7DEC05F00A008C
:105430000900F5CFEEFF012EFBD7020128BFF28E47
:10544000020E6A6F0F0E696F000121EC11F0010E60
:105450000101A46FC60EA36FEA0EF66E0E0EF76E74
:10546000050E0201416F0001D6EC18F0100EE96E36
:10547000F5C02DF2F4C02CF2EAEC18F0F20EF66E44
:105480000E0EF76E040E0201416F0001D6EC18F00B
:105490000B0EE96EF2C02DF2F1C02CF2EAEC18F01E
:1054A000F3C02CF2010E02012D6F000192EC19F0F5
:1054B0000D0E02014E6F0001C5EC18F0010E020145
:1054C0006A6FC60E696F000121EC11F0100E016EBB
:1054D000C250830B0110C26E1A0E006E002EFED752
:1054E0000000C282C2B2FED7C4CF09F10101C3CF0E
:1054F00008F1095102081AE303E10851440816E3D0
:10550000010EEA6EF10EE96EF2CF28F2F29E000E65
:105510000001ACEC05F00A000900F550EE6E000940
:10552000FBE1020128BFF28E15D00101010EEA6EE7
:10553000F10EE96EF2CF28F2F29E000E0001BCECF3
:1055400005F00A000900F550EE6E0009FBE10201CA
:1055500028BFF28E0001FC51FD1105E00201096B2C
:10556000086B05D000010201096B010E086FA9C08C
:105570002BF2A8C02AF22D6B640E2C6F00011FECD9
:105580001AF002C029F201C028F2A9C02BF2A8C06B
:105590002AF202012D6B640E2C6F00011FEC1AF031
:1055A00000C02AF203C02BF2010E0101A46FC60E47
:1055B000A36F020EF66E0F0EF76E080E0201416F1A
:1055C0000001D6EC18F0100EE96EB7C02DF2B6C08F
:1055D0002CF2EAEC18F00D0EF66E0F0EF76E060EBA
:1055E0000201416F0001D6EC18F0010EEA6EF10ED7
:1055F000E96E55EF1CF0150EF66E0F0EF76E070EE6
:105600000201416F0001D6EC18F0100EE96E0DC1D9
:105610002DF20CC12CF2EAEC18F01F0EF66E0F0EF4
:10562000F76E050E0201416F0001D6EC18F0100E66
:10563000E96E29C22DF228C22CF2EAEC18F02E0EE7
:1056400002014E6F0001C5EC18F0100EE96E2BC27E
:105650002DF22AC22CF2EAEC18F02B0EF66E0F0E89
:10566000F76E090E0201416F0001D6EC18F0ACC0D4
:105670002CF21B0E02012D6F000192EC19F0360E78
:10568000F66E0F0EF76E050E0201416F0001D6ECAB
:1056900018F0AFC02CF21B0E02012D6F000192EC2E
:1056A00019F03D0EF66E0F0EF76E050E0201416FFA
:1056B0000001D6EC18F0100EE96EABC02DF2AAC0B6
:1056C0002CF2EAEC18F00D0E02014E6F0001C5EC51
:1056D00018F0010E02016A6FC60E696F000121EC1D
:1056E00011F0010ED880AE550201286F140E000192
:1056F000F6250201296F000E0001F72102012A6F31
:10570000010E0101A46FC60EA36F480EF66E0F0EB8
:10571000F76E060E0201416F0001D6EC18F0B4C01E
:105720002CF21B0E02012D6F000192EC19F0500EAD
:10573000F66E0F0EF76E050E0201416F0001D6ECFA
:1057400018F0B2C02CF21B0E02012D6F000192EC7A
:1057500019F0570EF66E0F0EF76E050E0201416F2F
:105760000001D6EC18F028C22CF21B0E02012D6F9E
:10577000000192EC19F05E0EF66E0F0EF76E050E3C
:105780000201416F0001D6EC18F0100EE96E09C25B
:105790002DF208C22CF2EAEC18F0660EF66E0F0E2F
:1057A000F76E050E0201416F0001D6EC18F0B0C093
:1057B0002CF21B0E02012D6F000192EC19F06D0E00
:1057C000F66E0F0EF76E050E0201416F0001D6EC6A
:1057D00018F0B1C02CF21B0E02012D6F000192ECEB
:1057E00019F0740EF66E0F0EF76E050E0201416F82
:1057F0000001D6EC18F0100EE96E2AC22DF229C273
:105800002CF2EAEC18F07C0EF66E0F0EF76E050E19
:105810000201416F0001D6EC18F0100EE96EF9C0DC
:105820002DF2F8C02CF2EAEC18F0840EF66E0F0E92
:10583000F76E050E0201416F0001D6EC18F0100E54
:10584000E96EFBC02DF2FAC02CF2EAEC18F08C0ED7
:10585000F66E0F0EF76E050E0201416F0001D6ECD9
:1058600018F0ADC02CF21B0E02012D6F000192EC5E
:1058700019F0930EF66E0F0EF76E030E0201416FD4
:105880000001D6EC18F0010E02016A6FC60E696FB6
:10589000000121EC11F0030E02012B6FE80E2A6FBC
:1058A00003C12DF202C12CF200011FEC1AF002C05C
:1058B00029F201C028F2010E0101A46FC60EA36FE8
:1058C000980EF66E0F0EF76E060E0201416F000184
:1058D000D6EC18F0FEC02CF21B0E02012D6F000159
:1058E00092EC19F0A00EF66E0F0EF76E050E020187
:1058F000416F0001D6EC18F0FFC02CF21B0E020124
:105900002D6F000192EC19F0A70EF66E0F0EF76ED8
:10591000050E0201416F0001D6EC18F0100EE96E81
:1059200029C22DF228C22CF2EAEC18F0AF0EF66E66
:105930000F0EF76E060E0201416F0001D6EC18F053
:10594000100EE96E03C12DF202C12CF2EAEC18F040
:10595000B80EF66E0F0EF76E080E0201416F0001D1
:10596000D6EC18F0010E02016A6FC60E696F0001D5
:1059700021EC11F082EC1BF00101C46B000124D07A
:105980000101345303E100011FD00101020EEA6E50
:105990000F0EE96EF2CF28F2F29E090E016EF76A41
:1059A000000E00016BEC05F00A000900F5CFEEFFD8
:1059B000012EFBD7020128BFF28E020E6A6F0F0E76
:1059C000696F000121EC11F00201000169EF2DF077
:1059D000F2CF0DF0F29EE824F76AF736F50FF66E77
:1059E000590EF7220A00F550FA6E0800F5500DBE68
:1059F000F28EF96E8445B444C243A0469A46FC41F7
:105A0000A046A046A046A046A0468A46A046A0467C
:105A1000A0469C405450000A06E0020A1CE0010A1D
:105A2000D8B4AAD0A9D0556A020E546EA76BA66B43
:105A3000010134530EE00D0EBE6F3E0EBF6FC06B02
:105A4000010E02016A6FBE0E696F000121EC11F0B8
:105A50000101000191D03152D8B477D0A76BA66B69
:105A600060EC15F00101BB6B01C0BAF15550552A2D
:105A7000036A560FE96E000E0320EA6EBAC1EFFF0B
:105A80005550460804E2546A000176D00101BA512B
:105A90000D0802E1BB5305E0BA513B0857E1BB5387
:105AA00055E1BA513B080EE1BB530CE1010E555CC8
:105AB000036A560FE96E000E0320EA6E0D0EEF6EBC
:105AC000556A04D0000108EC08F00101000168EFFC
:105AD0001CF00101435305E0345303E100014CD0B5
