:04000000AEEF31F03E
:08000800046ED8CF05F0E0CF33
:1000100006F00001E9CF0CF0EACF07F0E1CF08F0DD
:10002000E2CF09F0D9CF0AF0DACF0BF0F3CF12F01C
:10003000F4CF13F0FACF14F000C00EF001C00FF0AF
:1000400002C010F003C011F09DA22AEF00F09EB292
:1000500075EF05F0F2A830EF00F0F2B27AEF05F09C
:10006000F0A636EF00F0F0B07DEF05F09DAA3CEF72
:1000700000F09EBA80EF05F09DA842EF00F09EB818
:10008000A7EF05F07DA048EF00F07EB072EF05F01D
:100090000EC000F00FC001F010C002F011C003F05C
:1000A0000CC0E9FF07C0EAFF078E08C0E1FF09C0E6
:1000B000E2FF0AC0D9FF0BC0DAFF12C0F3FF13C082
:1000C000F4FF14C0FAFF045006C0E0FF05C0D8FFDB
:1000D0001000F2CF0DF0F29EF76AEC0FF66E000EF4
:1000E000F7220900F5500DBEF28E1200C801000083
:1000F000810C0000420600000B007000A4A7020063
:10010000E500000006DD1E0007000000F2CF0DF044
:10011000F29EF76A260FF66E010EF7220900F550DF
:100120000DBEF28E1200244149203C6368616E6E60
:10013000656C3E3C63723E202009526571756573A3
:100140007420616E616C6F67206368616E6E656CB0
:100150002076616C756520283130206269747329BE
:100160000D0A0000F2CF0DF0F29EF76A7E0FF66ED8
:10017000010EF7220900F5500DBEF28E1200244147
:1001800054203C6C6576656C3E3C63723E202009D1
:1001900053657420617474656E7561746F72207438
:1001A0006F203C6C6576656C3E0D0A00F2CF0DF059
:1001B000F29EF76AC60FF66E010EF7220900F5509F
:1001C0000DBEF28E1200244346203C667265713EDD
:1001D0003C63723E2020094368616E676520667249
:1001E000657175656E63792028323138352E30207F
:1001F0002D20323330302E3020696E20302E3120C9
:10020000696E6373290D0A00F2CF0DF0F29EF76A52
:10021000220FF66E020EF7220900F5500DBEF28E87
:1002200012002444493C63723E20200952657175D6
:10023000657374206469676974616C20696E707598
:1002400074730D0A0000F2CF0DF0F29EF76A600F92
:10025000F66E020EF7220900F5500DBEF28E120066
:10026000244744203C616464723E3C63723E20201B
:10027000094765742044324120726567697374656B
:100280007220636F6E74656E74730D0A0000F2CF96
:100290000DF0F29EF76AA80FF66E020EF722090023
:1002A000F5500DBEF28E1200244746203C61646476
:1002B000723E3C63723E20200947657420465047D9
:1002C0004120726567697374657220636F6E74652F
:1002D0006E74730D0A00F2CF0DF0F29EF76AF00F04
:1002E000F66E020EF7220900F5500DBEF28E1200D6
:1002F000244F54203C6F75747075743E3C63723E9D
:10030000202009536574206469676974616C206FEB
:1003100075747075747320746F2048455820766129
:100320006C75650D0A00F2CF0DF0F29EF76A400F72
:10033000F66E030EF7220900F5500DBEF28E120084
:100340002452443C63723E20200952657365742038
:100350004432410D0A00F2CF0DF0F29EF76A700FA1
:10036000F66E030EF7220900F5500DBEF28E120054
:10037000245344203C616464723E203C6461746197
:100380003E3C63723E202009536574204432412074
:100390007265676973746572203C616464723E20A3
:1003A000746F203C646174613E0D0A00F2CF0DF061
:1003B000F29EF76AC60FF66E030EF7220900F5509B
:1003C0000DBEF28E1200245346203C616464723EDE
:1003D000203C646174613E3C63723E202009536599
:1003E00074204650474120726567697374657220B6
:1003F0003C616464723E20746F203C646174613EB1
:100400000D0A0000F2CF0DF0F29EF76A1E0FF66E95
:10041000040EF7220900F5500DBEF28E12000D0AEF
:100420000A4E4F2054454D502D5246204F464620EF
:100430000D0A0000F2CF0DF0F29EF76A4E0FF66E35
:10044000040EF7220900F5500DBEF28E120044533F
:10045000203C6461746120736F7572653E3C637209
:100460003E202009536574206461746120736F75A8
:100470007263652028302D31290D0A00F2CF0DF06E
:10048000F29EF76A960FF66E040EF7220900F550F9
:100490000DBEF28E12004450203C646174612070E5
:1004A0006F6C61726974793E3C63723E202009531F
:1004B0006574206461746120706F6C617269747915
:1004C0002028302D31290D0A0000F2CF0DF0F29EC8
:1004D000F76AE40FF66E040EF7220900F5500DBE20
:1004E000F28E12004445203C736574757020534FA2
:1004F0005150534B3E3C63723E202009536574209B
:10050000736574757020534F5150534B2028302D14
:1005100031290D0A0000F2CF0DF0F29EF76A300F7C
:10052000F66E050EF7220900F5500DBEF28E120090
:100530005250203C706F77657220686569676874F7
:100540003E3C63723E20200953657420706F7765CE
:1005500072206865696768742028302D31290D0A7A
:100560000000F2CF0DF0F29EF76A7C0FF66E050EDA
:10057000F7220900F5500DBEF28E12005246203CC3
:10058000706F77657220636F6D616E643E3C63725D
:100590003E20200953657420706F77657220636F69
:1005A0006D616E642028302D31290D0A0000F2CFD4
:1005B0000DF0F29EF76AC80FF66E050EF7220900DD
:1005C000F5500DBEF28E12005241203C72616E64F5
:1005D0006F6D697A65723E3C63723E2020095365F7
:1005E0007420776974682F776974686F75742072E6
:1005F000616E646F6D697A65722028302D31290D26
:100600000A00F2CF0DF0F29EF76A1C0FF66E060E8E
:10061000F7220900F5500DBEF28E12004652203C22
:100620006672657175656E63793E3C63723E20202B
:1006300009536574206672657175656E637920284B
:10064000323230302E302D323430302E30290D0AF7
:100650000000F2CF0DF0F29EF76A6C0FF66E060EF8
:10066000F7220900F5500DBEF28E12004D4F203CCE
:100670006D6F64653E3C63723E20200953657420B3
:100680006D6F64652028302D33290D0A0000F2CFEC
:100690000DF0F29EF76AA80FF66E060EF72209001B
:1006A000F5500DBEF28E12004943203C626974720F
:1006B0006174653E3C63723E20200953657420627C
:1006C0006972746174652028312E30302D33302EDC
:1006D000303044427073290D0A00F2CF0DF0F29EC3
:1006E000F76AF40FF66E060EF7220900F5500DBEFC
:1006F000F28E12004944203C696E7465726E616C22
:10070000207061747465726E3E3C63723E202009F5
:1007100053657420696E7465726E616C20706174CB
:100720007465726E2028302D33290D0A0000F2CF37
:100730000DF0F29EF76A480FF66E070EF7220900D9
:10074000F5500DBEF28E12005645203C63723E20DD
:100750002009646973706C61792076657273696FC2
:100760006E20696E666F0D0A0000F2CF0DF0F29EEA
:10077000F76A840FF66E070EF7220900F5500DBEDA
:10078000F28E12005653203C6D616A6F723E2E3C11
:100790006D696E6F723E203C63723E202009736566
:1007A00074207468652073657475702066696C6563
:1007B0002076657273696F6E0D0A0000F2CF0DF03E
:1007C000F29EF76AD60FF66E070EF7220900F55073
:1007D0000DBEF28E12005650203C706F776572206D
:1007E0006C6576656C3E3C63723E202009536574EF
:1007F00020706F776572206C6576656C20283230CA
:100800002D3430290D0A0000F2CF0DF0F29EF76A68
:10081000220FF66E080EF7220900F5500DBEF28E7B
:100820001200564C203C706F7765722068696768CB
:100830003E3C63723E2020095365742068696768F6
:1008400020706F776572206C6576656C2028323079
:100850002D3430290D0A0000F2CF0DF0F29EF76A18
:10086000720FF66E080EF7220900F5500DBEF28EDB
:100870001200564D203C6E65676174697665207084
:100880006F776572206C6576656C3E3C63723E20C6
:100890002009536574206E65676174697665207000
:1008A0006F776572206C6576656C0D0A0000F2CF7B
:1008B0000DF0F29EF76AC80FF66E080EF7220900D7
:1008C000F5500DBEF28E12005643203C706F7365DA
:1008D0007469766520706F776572206C6576656CDB
:1008E0003E3C63723E20200953657420706F73652F
:1008F0007469766520706F776572206C6576656CBB
:100900000D0A0000F2CF0DF0F29EF76A1E0FF66E90
:10091000090EF7220900F5500DBEF28E1200435366
:10092000203C636C6F636B2070686173653E3C6351
:10093000723E20200953657420636C6F636B2070D6
:10094000686173652028302D31290D0A0000F2CF2F
:100950000DF0F29EF76A680FF66E090EF722090095
:10096000F5500DBEF28E12005356203C7361766531
:1009700020616C6C3E3C63723E20200953617665B9
:1009800020706172616D65746572730D0000F2CF45
:100990000DF0F29EF76AA80FF66E090EF722090015
:1009A000F5500DBEF28E12000D092048454C502026
:1009B0004C495354200D0000F2CF0DF0F29EF76A1F
:1009C000D20FF66E090EF7220900F5500DBEF28E19
:1009D00012000D0A4641554C540D0A00F2CF0DF09D
:1009E000F29EF76AF60FF66E090EF7220900F5502F
:1009F0000DBEF28E12000D0A4641494C0D0A000050
:100A0000F2CF0DF0F29EF76A1A0FF66E0A0EF72279
:100A10000900F5500DBEF28E1200424131353230E0
:100A20005154582056312E300000F2CF0DF0F29E76
:100A3000F76A440FF66E0A0EF7220900F5500DBE54
:100A4000F28E12000D0A0A4F4B20526571756573C4
:100A50007420537461747573200D0A0A0000F2CF7C
:100A60000DF0F29EF76A780FF66E0A0EF722090073
:100A7000F5500DBEF28E1200474F4F440000F2CFEA
:100A80000DF0F29EF76A980FF66E0A0EF722090033
:100A9000F5500DBEF28E120042414400F2CF0DF02F
:100AA000F29EF76AB60FF66E0A0EF7220900F550AD
:100AB0000DBEF28E12000D0A4F4B0D0A2A00F2CF26
:100AC0000DF0F29EF76AD80FF66E0A0EF7220900B3
:100AD000F5500DBEF28E12000D0A0A425245414BEE
:100AE0000D0A00007E9048EF00F0010E2B6E9E92E2
:100AF00048EF00F0F29248EF00F0F09048EF00F07D
:100B0000AECF5EF2036A2D502F0FE96E000E032068
:100B1000EA6E5EC2EFFF2D2A2D501F0801E22D6AFA
:100B20002C501F0801E32C2A9E9A48EF00F0040E77
:100B300002015F5F0AE3020EEA6E5F0EE96EEF509C
:100B400004E001D00000EF2EFDD7000112009D92BD
:100B50008C8A01010D6B0C6B0BC103F00A51D8B4E8
:100B60000B070A0703101DE08C8A0DC103F00C511E
:100B70000C2BD8B40D2B02015E6F0E0E5E25E96EB4
:100B8000010E0320EA6EEFCFADFF020E5E6FF90E8D
:100B90005F6F0001CCDF02015E2FF9D78C9A010153
:100BA000DBD79D989D829E98000148EF00F00D5480
:100BB000454D503D25362E32666465670D0A4F4B14
:100BC0000A0024415220256C750D0000244350205A
:100BD00025750D0024445220253032580D00200D7B
:100BE0000A245346202530325820253032580D0033
:100BF000200D0A2453442025303258202530325805
:100C00000D00465220256C750D004D4F2025750DA9
:100C1000000044532025750D0000455252204453D6
:100C20002025750D000044502025750D000045520B
:100C3000522044502025750D000044452025750D97
:100C400000004552522044452025750D00005250A9
:100C50002025750D00004552522052502025750D5B
:100C6000000052462025750D000045525220524684
:100C70002025750D0000524320256C750D00524251
:100C800020256C750D0052412025750D0000455240
:100C9000522052412025750D000049442025750D34
:100CA00000004552522049442025750D000049435B
:100CB00020256C750D0056452025732056532025A0
:100CC0006C752E256C752049443D2530326C75209D
:100CD00044543D2530326C75253032750D00565325
:100CE00020256C75256C750D0000565020256C75FF
:100CF0000D00564D20256C750D00564320256C7552
:100D00000D0043532025750D0000455252204353DA
:100D10002025750D000043502025750D000045521B
:100D2000522043502025750D00000A475020256CA5
:100D3000750D0A000A475220256C750D0A000D0A30
:100D400049443D256C752044543D2530326C752551
:100D50003032750D00000D0A0A465245513D256C92
:100D6000752C205245563D25732C20464657523D42
:100D7000256C752C2049433D256C752E256C754DD1
:100D80006270732C204D4F3D25752C2043533D251B
:100D9000752C2052463D256C750D00000D0A0A4445
:100DA000453D25752C2052413D25752C2044503D54
:100DB00025752C2052503D256C752C2044533D2523
:100DC000752C2049443D25752C20564C3D256C75CD
:100DD0002C2056503D256C752C2052423D256C75BB
:100DE0002C2052433D256C752C2043503D25752009
:100DF000200D0000020EEA6E2D0EE96EEF500EE09F
:100E0000050E016E006A002EFED7012EFBD72E0EB6
:100E1000006E002EFED700D0EF2EF2D71200896AA6
:100E20008A6A8B6A8C6A8D6AE10E926ED10E936E1D
:100E3000946E8E0E956E968096829694968641EF6D
:100E400007F001016C6B2C6A2CC02EF02EC02DF027
:100E50004F6A9D8A00011200480E0509BA6E630EA2
:100E6000BB6EB46AB16A000E05090F01516F630EC3
:100E7000526F4D6B4E6B000E4A6F000E4B6F0001B0
:100E8000CED7C150F00BC16E210E0F01386F030E8B
:100E90003C6F100E396F000E3A6F3B6FC050C00BA5
:100EA0002509C06EC08EC280776A040E786E796E96
:100EB0000001C7DF9D82C00EF212F2EF31F0020195
:100EC0001CC203F01B51D8B41C071B0703101FE002
:100ED0001A51036E1951192BD8B41A2BE96E03C09D
:100EE000EAFF1851036E1751172BD8B4182B1F6F38
:100EF00003C020F2F2CF21F2F29E1FC2A9FFA69CEE
:100F0000A69EA680A85021BFF28EEF6ED9D7000111
:100F1000A3EF07F0016603D0026602D007D0022AD1
:100F200000C0EEFF012EFCD7022EFAD7B0EF07F07B
:100F30000201186B176B1A6BA30E196F1C6B5D0EF9
:100F40001B6F0001BCD7AA3D01D002D0AB3D08D039
:100F5000EA6AA30EE96E006A026A5D0E016EDAD7D4
:100F60001200899402011DA702D0898801D08998B6
:100F70008986040E006E002EFED700D08996040EDE
:100F8000006E002EFED700D01DA502D0898801D0AA
:100F900089988986040E006E002EFED700D08996AF
:100FA000040E006E002EFED700D01DA302D089884B
:100FB00001D089988986040E006E002EFED700D0DD
:100FC0008996040E006E002EFED700D01DA102D01F
:100FD000898801D089988986040E006E002EFED77C
:100FE00000D08996040E006E002EFED700D08986B0
:100FF000000B006E1F51020B036E0050031002E045
:10100000898801D08998040E006E002EFED700D08A
:101010008996040E006E002EFED700D08986000B44
:10102000006E1F51010B036E0050031002E089880F
:1010300001D08998899689861E51800B006E036ABB
:101040000050031002E0898801D08998040E006ED8
:10105000002EFED700D08996040E006E002EFED71B
:1010600000D089861E51400B006E036A00500310A9
:1010700002E0898801D08998040E006E002EFED708
:1010800000D08996040E006E002EFED700D089860F
:101090001E51200B006E036A0050031002E0898885
:1010A00001D08998899689861E51100B006E036ABB
:1010B0000050031002E0898801D08998040E006E68
:1010C000002EFED700D08996040E006E002EFED7AB
:1010D00000D089861E51080B006E036A0050031071
:1010E00002E0898801D08998899689861E51040B6F
:1010F000006E036A0050031002E0898801D08998CD
:10110000040E006E002EFED700D08996040E006EED
:10111000002EFED700D089861E51020B006E036A96
:101120000050031002E0898801D089988996898649
:101130001E51010B006E036A0050031002E0898803
:1011400001D08998040E006E002EFED700D089963B
:10115000040E006E002EFED700D08986040E006EAD
:10116000002EFED700D089968986040E006E002ED0
:10117000FED700D0040E006E002EFED700D0899658
:10118000040E006E002EFED700D08984040E006E7F
:10119000002EFED700D08992040E006E002EFED7DE
:1011A00000D08982040E006E002EFED700D0000110
:1011B000120002011E6B1D6B1E53D8A487D01D5157
:1011C0001308D8A083D0D8901D35026E1E35036E4B
:1011D0000250C20FE96E000E0320EA6EECCF03F05E
:1011E000ED52EFCF01F003501C5DD8A06BD003E1AE
:1011F00001501B5D67E3010E1D251F6F000E1E21B0
:10120000206FD8901F35026E2035036E0250C20F3A
:10121000E96E000E0320EA6EECCF03F0ED52EFCF43
:1012200001F01C51035C4EE303E101501B5D4AE2F7
:10123000D8901D35026E1E35036E0250C20FE96E46
:10124000000E0320EA6EECCF03F0ED52EF501B5D71
:101250001F6F03501C59206F010E1D25216F000EBA
:101260001E21226FD8902135026E2235036E025066
:10127000C20FE96E000E0320EA6EECCF22F2ED52AF
:10128000EFCF21F21B51215D006E1C512259036EDC
:1012900000C001F00350205D0DE303E101501F5D2C
:1012A00009E3150E1D25016E000E1E21036E026E50
:1012B00010D008D0140E1D25016E000E1E21036EE5
:1012C000026E07D01D2BD8B41E2B76D7000E016EF0
:1012D000026E0001120002013B6B3C6B010E3D6F80
:1012E000DA6AD96A020E406F330E3F6F020EEA6E61
:1012F000370EE96E40C2E2FF3FC2E1FF3DC23EF25F
:10130000D890E550EE02F3503B23F4503C233E2F9F
:10131000F7D73BC2DEFF3CC23BF23C6BD8B03C2B64
:101320003F2BD8B4402B3D2B3D510508DFE1000198
:101330001200D8B204D0020EEA6E450EE96E006AC1
:10134000016A026A036A0201456B466B476B486B90
:1013500044514311421141112CE0200E496FD890A5
:101360003D373E373F3740374537463747374837B1
:101370004451485D08E14351475D05E14251465DF6
:1013800002E14151455D0FE34151455F4251D8A013
:10139000423D465F4351D8A0433D475F4451D8A0EA
:1013A000443D485FD8800036013602360336492F67
:1013B000D6D745C2EFFF46C2ECFF47C2ECFF48C29A
:1013C000ECFF0001120002012E6B2D6B2C6B020E44
:1013D0002B6F04002A6B296B22C228F221C227F24C
:1013E000225154080AE2FF0A03E12151EF0805E205
:1013F0002E6B2D6B2C6B010E2B6F04002AC236F264
:1014000029C235F228C234F227C233F22EC23AF290
:101410002DC239F22CC238F22BC237F200015BDF49
:1014200003C032F202C031F201C030F200C02FF22C
:1014300003C036F202C035F201C034F200C033F20C
:1014400002013A6B396B386B640E376F000143DF72
:1014500003C02AF202C029F201C028F200C027F21C
:101460000400D8922AC240F229C23FF228C23EF2BA
:1014700027C23DF20201446B436B7D0E426F416B0C
:10148000000157DF03C02CF102C02BF101C02AF18B
:1014900000C029F104002CC136F22BC135F22AC15B
:1014A00034F229C133F202013A6B396B7D0E386F89
:1014B000376B000110DF00500201275D2F6F0150D4
:1014C0002859306F02502959316F03502A59326F11
:1014D000366B356B346B640E336F2EC23AF22DC20D
:1014E00039F22CC238F22BC237F20001F4DE03C00D
:1014F00036F202C035F201C034F200C033F2D892A5
:1015000032C240F231C23FF230C23EF22FC23DF24F
:1015100003C044F202C043F201C042F200C041F2F3
:1015200008DF03C030F102C02FF101C02EF100C06E
:101530002DF1D8920201406B3F6B010E3E6F400EC1
:101540003D6F2EC244F22DC243F22CC242F22BC296
:1015500041F20001EEDE03C032F202C031F201C0FE
:1015600030F200C02FF202012F37303731373237D7
:101570002F373037313732372F373037313732372F
:10158000F80E2F17010E2F250101316F000E0201F9
:1015900030210101326F000E020131210101336F50
:1015A000000E020132210101346F040029372A376D
:1015B0002B372C3729372A372B372C3729372A371F
:1015C0002B372C37F80E29172D372E372F3730377A
:1015D0002D372E372F3730372D372E372F373037DF
:1015E0002D17020E2D27000E2E232F233023010E40
:1015F00002012327D8B0242BD8B4252BD8B4262B0E
:1016000000011200080E0201276F27531EE026AFCB
:1016100002D08B8601D08B960C0E006E002EFED76A
:1016200000D000008B840C0E006E002EFED700D080
:1016300000008B94200E006E002EFED700D000001C
:1016400027512707D8902637E0D78B968B94000137
:1016500012000400F29CF29EF2BEFDD723C225F2D6
:1016600023C226F2CFDF22C225F222C226F2CADF2F
:1016700021C225F221C226F2C5DF340E006E002EF3
:10168000FED700D000008B82060E006E002EFED723
:1016900000008B928B96C00EF21204001200040020
:1016A0002CC124F22BC123F22AC122F229C121F23A
:1016B000D0DF1A0E006E002EFED70000040034C1E9
:1016C00024F233C123F232C122F231C121F2C1DF4F
:1016D0001A0E006E002EFED70000040030C124F266
:1016E0002FC123F22EC122F22DC121F2B2DF12004E
:1016F0008A940C0E006E002EFED700D0000002016E
:101700002D512D07000A22E02FC203F02E512E2B5F
:10171000D8B42F2BE96E03C0EAFFEFCF30F2316B64
:101720003151070812E330AF02D08C8801D08C9879
:1017300000D000D08C8000D000D08C9000D000D0A1
:101740003151312BD8903037EBD7DAD70C0E006EF1
:10175000002EFED700D000008A8400011200020192
:10176000216B0001A839006EF00E00160050A71181
:101770000201296F0001A939006E0036E00E001643
:101780000050020129130001AD39006E0036003609
:10179000C00E0016005002012913006A0001AFB10B
:1017A000008E005002012911226F020E2D6F2F6F43
:1017B000210E2E6F00019CDF1200060E0201216F28
:1017C000D8900001AB35AA110201296F0001AC3598
:1017D000006E0036FC0E0016005002012911226F27
:1017E000020E2D6F2F6F210E2E6F000181DF120070
:1017F000B60E006E036A026A016A02013D513E1193
:101800003F11401102E1006A0DD0D89001BE09D00D
:101810003D373E373F374037033602360136002E1C
:10182000F4D7019E000169EF0DF002013D51D8B4DB
:10183000A5D0496F4151D8B4A1D0495F05E37F0ECF
:101840004927D8B09BD006D0810E495FD8A096D04A
:10185000D8B494D049C200F0016A026A036A486BA6
:101860003EC247F2478F3FC246F240C245F2190ED0
:10187000496F4451455F0DE2010E465F0AE2475F42
:1018800008E2485F06E2482B472B462B4451452788
:1018900028D04351465F12E2010E475F0FE2485FD6
:1018A0000DE2482B472B435146274451452719E366
:1018B000462B17E1472B15E1482B13D042518009E5
:1018C000475F0EE2010E485F0BE2482B4251800950
:1018D000472743514627E9E3472BE7E1482BE5D764
:1018E0000380492F01D00BD0D89045374637473772
:1018F0004837D8900336023601364A37BAD74AA15C
:1019000006D0D8900132023203324A3302D00006A8
:1019100035E04ABF1ED0D89045374637473748375D
:101920004451455F07E2010E465F04E2475F02E271
:10193000485F1AE34351465F05E2010E475F02E24A
:10194000485F12E342518009475F03E2010E485F9E
:101950000BE3032A09E1022A07E1012A05E1002A33
:101960000DE00132023203323EC249F24251491BBC
:1019700049AF02D0018E06D0019E04D0006A016AF0
:10198000026A036A0001120002013D51D8B471D00D
:10199000006E4151D8B46DD0002604E3810E0026BC
:1019A00068E204D07F0E005E64E363E03EC245F26D
:1019B0004251451B3E8F428F40514403F4CF47F2C2
:1019C0003F514303F4CF03F0F3CF46F24403F35007
:1019D0004727F4504623000E032240514303F3509F
:1019E0004727F4504623000E026A032202223E518A
:1019F0004403F3504627F4500322000E02223E51C6
:101A00004303F3500326F4500222000E016A012220
:101A100040514203F3504627F4500322000E0222A5
:101A200001223F514203F3500326F4500222000EDC
:101A300001223E514203F3500226F4500122002AB3
:101A400001BE05D046370336023601360006000EC9
:101A500046AF0AD0032A02220122015005E10250BA
:101A600003E1035001E1002A45BF018E45AF019E0D
:101A700004D0006A016A026A036A000112000201CE
:101A80003D51B6083D6F036A3EC241F23E8FD89089
:101A90003E333F33403303320232013200323D2FB6
:101AA000F6D741AF0BD0001E011E021E031E002AF6
:101AB000D8B4012AD8B4022AD8B4032A00011200EB
:101AC00034C240F233C23FF232C23EF231C23DF282
:101AD0008FD603C038F202C037F201C036F200C020
:101AE00035F238C240F237C23FF236C23EF235C25A
:101AF0003DF2C00E0201446FE10E436F640E426F6F
:101B00009A0E416F000191DE03C03CF202C03BF22D
:101B100001C03AF200C039F23CC240F23BC23FF28F
:101B20003AC23EF239C23DF20201446B436B426B52
:101B30008F0E416F000128DF03C03CF202C03BF270
:101B400001C03AF200C039F23CC240F23BC23FF25F
:101B50003AC23EF239C23DF20201446B436B426B22
:101B60008F0E416F000110DF03C03CF202C03BF258
:101B700001C03AF200C039F23CC240F23BC23FF22F
:101B80003AC23EF239C23DF27ADF03C040F202C0EF
:101B90003FF201C03EF200C03DF2010E0201005CC6
:101BA000006E000E0158016E000E0258026E000E0B
:101BB0000358036E000112000201306B2F6BA4C0AA
:101BC0002EF2A3C02DF230C236F22FC235F2A4C0DD
:101BD00034F2A3C033F23A6B396B270E386F100E14
:101BE000376F00016BEC09F003C030F202C02FF236
:101BF00001C02EF200C02DF203C034F202C033F255
:101C000001C032F200C031F25BDF03C02CF202C02F
:101C10002BF201C02AF200C029F2020E0201216F4C
:101C200029C222F2020E2D6F2F6F210E2E6F00019E
:101C30005FDD0A0E02012D6F0001FAEC06F0030EC3
:101C40000201216F2AC222F2020E2D6F2F6F210E88
:101C50002E6F00014DDD0A0E02012D6F0001FAEC1E
:101C600006F0040E0201216F2BC222F2020E2D6F2C
:101C70002F6F210E2E6F00013BDD0A0E02012D6F2A
:101C80000001FAEC06F0050E0201216F2CC222F2CF
:101C9000020E2D6F2F6F210E2E6F000129DD0A0E0F
:101CA00002012D6F0001FAEC06F01200B2C01EF224
:101CB000B1C01DF2050E02012D6F0001FAEC06F015
:101CC0001EC222F21DC221F2E3EC09F0050E020150
:101CD0002D6F0001FAEC06F0E2DC050E02012D6F1B
:101CE0000001FAEC06F03BDD320E02012D6F00011F
:101CF000FAEC06F062DD320E02012D6F0001FAEC03
:101D000006F05ADFA4C020F2A3C01FF21C6A1B6AAF
:101D10001200F35306E1F45304E1A52D02D0A653BB
:101D200016E083BE08D0F32D06D0F45304E1A5538A
:101D300002E1A6530CE083AE08D0F32D06D0F45395
:101D400004E1A52D02D0A65302E0000E01D0010E41
:101D500002011C6B1B6F1B511C1102E08C8C0FD0FD
:101D60008C9C0001F32D0AD0F45308E1020E02010D
:101D70001D6F1F6B1E6B0001B1EC07F0020101012A
:101D800098531BE1995319E102011B2D01D002D098
:101D9000010113D01C53D8B402D001010ED0320E71
:101DA0002D6F0001FAEC06F081DF010E02012D6FAC
:101DB0000001FAEC06F07ADF01011CC299F11BC2A6
:101DC00098F11CC209F11BC208F10001CCEF0FF021
:101DD0001AC01CF219C01BF218C01EF217C01DF267
:101DE000F551010B0201206F216B000E83B4010E2F
:101DF0000001F75D02E1F85302E0000E01D0010E90
:101E0000020120191F6FD8901F35036A1B0FE96E5E
:101E1000020E0320EA6EECCF07F1ED52EFCF06F190
:101E2000D8901F35036A1B0FE96E020E0320EA6E7D
:101E3000EFCF01F0E92AEF50E906026E0001CDEF85
:101E40000FF0213C03D0223C01D02CD028A629D071
:101E50002896020E02011D6F22C01FF221C01EF241
:101E60000001B1EC07F0140E016EC250830B01109B
:101E7000C26E1A0E006E002EFED70000C282C2B2E1
:101E8000FED7C4CF18F20201C3CF17F218C21CF25A
:101E900017C21BF20001D9EC08F002C005F101C025
:101EA00004F1ABD0B25158081EE303E1B151290847
:101EB0001AE3060E02011D6FB7C01FF2B6C01EF274
:101EC0000001B1EC07F01A0E006E002EFED70000E4
:101ED0000A0E02011D6FBDC01FF2BCC01EF2000140
:101EE000B1EC07F03AD0B2515A081EE303E1B15108
:101EF000F9081AE3060E02011D6FB9C01FF2B8C03F
:101F00001EF20001B1EC07F01A0E006E002EFED793
:101F100000000A0E02011D6FBFC01FF2BEC01EF2FC
:101F20000001B1EC07F019D0060E02011D6FBBC015
:101F30001FF2BAC01EF20001B1EC07F01A0E006EDB
:101F4000002EFED700000A0E02011D6FC1C01FF255
:101F5000C0C01EF20001B1EC07F0140E016EC250B9
:101F6000830B0110C26E1A0E006E002EFED7000009
:101F7000C282C2B2FED7C4CF18F20201C3CF17F299
:101F800018C21CF217C21BF20001D9EC08F002C003
:101F900005F101C004F1BDD61BD702C01AF201C081
:101FA00019F202011951175D03E11A51185D26E07B
:101FB00018511A5D10E303E11751195D0CE31C5031
:101FC000030808E303E11B50F20804E3030E1B2699
:101FD000000E1C2209D01C5203E11B50950804E29C
:101FE000030E1B5E000E1C5A020E1D6F1CC01FF25A
:101FF0001BC01EF20001B1EC07F00201000112004B
:102000000101B06B070EAF6FB051070838E3AF5155
:10201000040DF350036AF2CFB1F1F29E000169ECB6
:1020200000F00900F5CF01F00900F5CF02F009003A
:10203000F5CF03F00101B1BFF28E03C0AEF102C0D3
:10204000ADF101C0ACF1AB6F016A026A036AAF5136
:10205000AB130150AC130250AD130350AE13AEC11D
:1020600024F2ADC123F2ACC122F2ABC121F20001D6
:1020700029EC0BF00101B051B02BAF07C5D7FA0E18
:1020800002012D6F0001FAEC06F0AEC124F2ADC1E1
:1020900023F2ACC122F2ABC121F229EC0BF0FA0E13
:1020A00002012D6F0001FAEC06F030EF32F09D9A3C
:1020B0008C8A840E006E002EFED700D00000020134
:1020C000576B55C203F054C2E9FF55C2EAFFEF5205
:1020D00046E055C203F05451542BD8B4552BE96E49
:1020E00003C0EAFFEFCF56F25651090816E056C278
:1020F000ADFF572B020E596F166AF2BE168EF29E76
:10210000950E5F6F000197EC05F016BEF28E02018E
:10211000592FF2D7AECF56F221D0200E586F58511A
:10212000575D03E3020E5725586F5851575D16E26D
:10213000200EAD6E572B020E596F166AF2BE168E28
:10214000F29E950E5F6F000197EC05F016BEF28EC1
:102150000201592FF2D7AECF56F2E7D7B2D7840E8D
:10216000006E002EFED700D000008C9AAECF56F243
:102170009D8A000112002B2C14D02B6A242A245093
:1021800009080FE2246A252A2668272A2750090809
:1021900008E2276A2868292A2950090802E2296AE0
:1021A0002A6898EF32F0036A2E502F0FE96E000E66
:1021B0000320EA6EEFCFC4F12E2A2E501F0801E251
:1021C0002E6A2C5201E02C060101C4C101F000016D
:1021D0001200036A01013551510FE96E000E032010
:1021E000EA6E036AEFCF01F003C002F000011200B3
:1021F00001013551352B036A510FE96E000E0320A2
:10220000EA6E036AEFCF01F003C002F00001120092
:10221000036A01013551510FE96E000E0320EA6E89
:10222000EF5218E0036A3551510FE96E000E03209A
:10223000EA6EEF502C080AE0036A3551510FE96E3F
:10224000000E0320EA6EEF50200804E1352B000158
:10225000DFD7010100011200020124512619800B71
:10226000286F24AF05D0231F241F232BD8B4242B81
:1022700026AF05D0251F261F252BD8B4262B23518A
:102280002503F3CF01F0F4CF00F02603F35000262E
:1022900024512503F3500020026E28AF05D0011E03
:1022A000021E012AD8B4022A000112000201226B88
:1022B000010E216F0001ACDF036A01013551510F9E
:1022C000E96E000E0320EA6EEF5245E00201206B3A
:1022D0001F6B00017EDF02C024F201C023F2020165
:1022E00001502D0807E1245305E12269216900010D
:1022F0007FDF0201036A01013551510FE96E000EC3
:102300000320EA6EEFCF23F2020123512F0822E2CD
:10231000235139081FE320C224F21FC223F2266B87
:102320000A0E256F000198DF02C024F201C023F2DB
:1023300001013551352B036A510FE96E000E032060
:10234000EA6E300EEF5C020101241F6F000E0220C6
:10235000206FD0D7010120C224F21FC223F222C273
:1023600026F221C225F2000177DF02C003F002C08D
:1023700002F012000D0E0201176F0A0E186F196F8E
:102380001A6B020E556F170E546F000190DE020E8D
:10239000EA6E170EE96EF2CF52F2F29E2E0E016E29
:1023A000F76A000E1AEC02F00A000900F5CFEEFF02
:1023B000012EFBD7020152BFF28E020E556F170E8F
:1023C000546F000174DE020EEA6E170EE96EF2CF52
:1023D00052F2F29E330E016EF76A000E3EEC02F0EE
:1023E0000A000900F5CFEEFF012EFBD7020152BF14
:1023F000F28E020E556F170E546F000158DE020E5A
:10240000EA6E170EE96EF2CF52F2F29E310E016EB5
:10241000F76A000E65EC02F00A000900F5CFEEFF46
:10242000012EFBD7020152BFF28E020E556F170E1E
:10243000546F00013CDE020EEA6E170EE96EF2CF19
:1024400052F2F29E310E016EF76A000E8BEC02F032
:102450000A000900F5CFEEFF012EFBD7020152BFA3
:10246000F28E020E556F170E546F000120DE020E21
:10247000EA6E170EE96EF2CF52F2F29E310E016E45
:10248000F76A000EB1EC02F00A000900F5CFEEFF8A
:10249000012EFBD7020152BFF28E020E556F170EAE
:1024A000546F000104DE020EEA6E170EE96EF2CFE1
:1024B00052F2F29E3A0E016EF76A000ED7EC02F06D
:1024C0000A000900F5CFEEFF012EFBD7020152BF33
:1024D000F28E020E556F170E546F0001E8DD020EEA
:1024E000EA6E170EE96EF2CF52F2F29E350E016ED1
:1024F000F76A000E01EC03F00A000900F5CFEEFFC9
:10250000012EFBD7020152BFF28E020E556F170E3D
:10251000546F0001CCDD020EEA6E170EE96EF2CFA9
:1025200052F2F29E210E016EF76A000E29EC03F0C2
:102530000A000900F5CFEEFF012EFBD7020152BFC2
:10254000F28E020E556F170E546F0001B0DD020EB1
:10255000EA6E170EE96EF2CF52F2F29E320E016E63
:10256000F76A000E47EC03F00A000900F5CFEEFF12
:10257000012EFBD7020152BFF28E020E556F170ECD
:10258000546F000194DD020EEA6E170EE96EF2CF71
:1025900052F2F29E390E016EF76A000E6DEC03F0F6
:1025A0000A000900F5CFEEFF012EFBD7020152BF52
:1025B000F28E020E556F170E546F000178DD020E79
:1025C000EA6E170EE96EF2CF52F2F29E210E016E04
:1025D000F76A000E97EC03F00A000900F5CFEEFF52
:1025E000012EFBD7020152BFF28E020E556F170E5D
:1025F000546F00015CDD020EEA6E170EE96EF2CF39
:1026000052F2F29E370E016EF76A000EB5EC03F03F
:102610000A000900F5CFEEFF012EFBD7020152BFE1
:10262000F28E020E556F170E546F000140DD020E40
:10263000EA6E170EE96EF2CF52F2F29E310E016E83
:10264000F76A000EDEEC03F00A000900F5CFEEFF9A
:10265000012EFBD7020152BFF28E020E556F170EEC
:10266000546F000124DD020EEA6E170EE96EF2CF00
:1026700052F2F29E350E016EF76A000E04EC04F081
:102680000A000900F5CFEEFF012EFBD7020152BF71
:10269000F28E020E556F170E546F000108DD020E08
:1026A000EA6E170EE96EF2CF52F2F29E3B0E016E09
:1026B000F76A000E2CEC04F00A000900F5CFEEFFDB
:1026C000012EFBD7020152BFF28E020E556F170E7C
:1026D000546F0001ECDC020EEA6E170EE96EF2CFC9
:1026E00052F2F29E3B0E016EF76A000E57EC04F0B8
:1026F0000A000900F5CFEEFF012EFBD7020152BF01
:10270000F28E020E556F170E546F0001D0DC020ED0
:10271000EA6E170EE96EF2CF52F2F29E2F0E016EA4
:10272000F76A000E82EC04F00A000900F5CFEEFF14
:10273000012EFBD7020152BFF28E020E556F170E0B
:10274000546F0001B4DC020EEA6E170EE96EF2CF90
:1027500052F2F29E250E016EF76A000EA7EC04F00D
:102760000A000900F5CFEEFF012EFBD7020152BF90
:10277000F28E020E556F170E546F000198DC0D0E8D
:102780000201176F0A0E186F196B020E556F170EA4
:10279000546F00018CDCBBEF27F097C1EAFF96C1B4
:1027A000E9FF02013DC2EFFFE92AD8B4EA2AEF6A45
:1027B0000101962BD8B4972B000112000900F6CF27
:1027C00031F2F7CF32F2F5CF3DF2E7DF31C2F6FF5B
:1027D00032C2F7FF0201302F01D002D00001EED744
:1027E00000011200EACF24F2E9CF23F202011D39E1
:1027F000F0091F6F1F27E20F206F320F226F1D514C
:102800000F0B202720272227E90F216F21272127BF
:102810001C390F0B2127222721372237221F22376D
:102820001C510F0B22271F37070E1E6F0A0E2107A0
:102830002227FDE320072127FDE31F072027FDE3D3
:102840001E071F27FDE3020EEA6E1E0EE96E070E3D
:102850002315239DE926220EE95CD8B4238DEF5081
:10286000006E08E123BD06D023B915D023B702D0EE
:10287000200E03D023872399300E0026EACF1DF2C5
:10288000E9CF1CF200C03DF2000187DF1DC2EAFF64
:102890001CC2E9FF0201EE5023ADDDD7000112009A
:1028A00005DD02C01AF201C019F202C024F201C013
:1028B00023F20201266B0A0E256F0001CDDC02C057
:1028C00018F2020101C017F2000183DC02C01AF203
:1028D00001C019F2020101502E0810E11A530EE155
:1028E000000186DC85DC300E0201015C006E000E0A
:1028F0000258036E005017270350182317C201F027
:1029000018C202F00001120002011F51016A1E5D8F
:1029100003E21EC200F00CD0006A080E206F1E37C2
:1029200000361F51005CD8B0006E0136202FF7D75B
:102930000001120001501CC21EF2640E02011F6F42
:102940000001E2DF00C01CF20150300E08E102017C
:102950001DA30FD01DB70DD01DB9200E04D002014C
:102960001D971D991D81012601C03DF2000115DF53
:1029700002011CC21EF20A0E1F6F0001C5DF00C05B
:102980001CF20150300E08E102011DB70AD01DA152
:1029900008D01DB9200E0001012601C03DF2FDDE68
:1029A0000201300E1C271CC23DF20001F6DE1200AF
:1029B00002011CC203F01B51D8B41C071B070310F3
:1029C0002CE01851036E1751172BD8B4182B1D6F1C
:1029D00003C01EF21A51036E1951192BD8B41A2BC9
:1029E000E96E03C0EAFFEFCF1FF2F250006EF29ED5
:1029F0001DC2A9FF1FC2A8FFA69CA69EA6840F0108
:102A0000550EA76EAA0EA76EA682A6B2FED7A694F2
:102A10000050F2120001CCD70201000122EF15F0A4
:102A2000010100519F080FE101510B080CE1020167
:102A3000186B176B1A6BA30E196F1C6B5D0E1B6F57
:102A40000001B6D70101016B006B000112002EDC02
:102A500001C000F002C001F0026A036A03C01AF26A
:102A600002C019F201C018F200C017F2F8EC10F021
:102A70001DDC01C000F002C001F0026A036A03C05D
:102A80001EF202C01DF201C01CF200C01BF2E9ECF4
:102A900010F002C020F201C01FF2020101502E0806
:102AA0001EE120531CE10001F8EC10F056EC11F08F
:102AB00001C000F002C001F0026A036A03C01EF206
:102AC00002C01DF201C01CF200C01BF202011B512A
:102AD00017271C5118231D5119231E511A231AC2DE
:102AE00036F219C235F218C234F217C233F23A6B19
:102AF000396B386B640E376F00016BEC09F0020123
:102B00001B5100240001A36F02011C510120000190
:102B1000A46FDCEC0DF05FEF21F08E0E006E33C27F
:102B200001F032C202F0036A01AE05D0011E021E9E
:102B3000022A01E1012A015209E102C001F0026A00
:102B4000080E005E015202E1006A0DD0D89001BE6D
:102B500004D0023601360006F9D7020133AF02D0A5
:102B6000000101D0019E00010BEF17F0800ED8A2EA
:102B700002D00201371B02013C6B3D6B33C23BF2BA
:102B800037513B1B3251D8B4DFD03A6F006E36510B
:102B9000D8B4E3D03A5FD8B483D03EE337C240F232
:102BA000408F38C23FF239C23EF23D6BD89040337D
:102BB0003F333E333D333A2FF8D73BAF03D03C8110
:102BC000E0D03C913A913C89020EEA6E350EE96EF6
:102BD000EBD03C993BBF0AD03AA113D040333F33EE
:102BE0003E333D33002AD8B4C7D00BD040BF0CD001
:102BF000D8903D373E373F3740370006D8B4BCD079
:102C0000F5D73C8D6DD03C9D33C23BF233AF02D043
:102C1000408FABD0409FA9D036C23AF236C200F006
:102C200032513A5F33C240F2408F34C23FF235C274
:102C30003EF23D6BD89040333F333E333D333A2F25
:102C4000F8D73BAF03D03C839CD03C933A913C8B6C
:102C5000020EEA6E390EE96EA7D03C9B3BBF0AD04C
:102C60003AA113D040333F333E333D33002AD8B42A
:102C700083D00BD040BF0CD0D8903D373E373F3784
:102C800040370006D8B478D0F5D73C8F29D03C9F88
:102C900037C23BF237AF02D0408F67D0409F65D03C
:102CA00037C240F2408F38C23FF239C23EF23BAFEA
:102CB00004D0409F3C8565D03C953D6B3A91020E17
:102CC000EA6E350EE96E70D03BBF1CD033C23BF2CA
:102CD0003AA106D040333F333E333D33002A4CE027
:102CE0003DAF0BD03E2B09E13F2B07E1402B05E127
:102CF00040333F333E33002A3FE03CBD84D73CBFE6
:102D0000C6D71CD0800E401B40AF04D03AD037C28B
:102D10003BF20AD033C23BF2405306E13F5304E199
:102D20003E5302E1006A21D040BF08D0D8903D3721
:102D30003E373F374037002EF7D71ED03BAF02D08B
:102D4000408F13D0409F11D036C200F037C240F2FE
:102D500038C23FF239C23EF208D032C200F033C26C
:102D600040F234C23FF235C23EF240C201F03FC2EF
:102D700002F03EC203F034D0006A016A026A036ABC
:102D80002FD03D6B3E1F3F1F401F3D1F3D2B05E1D8
:102D90003E2B03E13F2B01E1402B3CB112D73CB36A
:102DA00054D73CB589D7B3D7EF503E2705E33F2B27
:102DB00003E1402BD8B43A81ED52EF503F2703E3B3
:102DC000402BD8B43A81ED52EF50EFBE01D0800ACB
:102DD0004027D8B03A813CB9FCD63CBB3ED774D72B
:102DE00000011200180E016EC250830B0110C26E5A
:102DF000420E006E002EFED70000C282C2B2FED785
:102E0000C4CF31F20201C3CF30F231C233F230C24B
:102E100032F2000182D603C035F202C034F201C0A2
:102E200033F200C032F203C040F202C03FF201C0F0
:102E30003EF200C03DF20201446B436B426B890ECF
:102E4000416F000115EC0CF003C035F202C034F202
:102E500001C033F200C032F203C040F202C03FF2C0
:102E600001C03EF200C03DF2330E0201446F436FD9
:102E7000530E426F800E416F0001C4EC0CF003C092
:102E80002FF202C02EF201C02DF200C02CF2D88227
:102E90002FC235F22EC234F22DC233F22CC232F2DE
:102EA0000201396B386B400E376F7E0E366F0001B2
:102EB0005DDE03C02FF202C02EF201C02DF200C071
:102EC0002CF22FC240F22EC23FF22DC23EF22CC293
:102ED0003DF20201446B436B480E426F850E416F19
:102EE0000001C4EC0CF003C02FF202C02EF201C0AE
:102EF0002DF200C02CF2D8922FC235F22EC234F23D
:102F00002DC233F22CC232F20201396B386B480EFB
:102F1000376F830E366F000129DE03C02FF202C027
:102F20002EF201C02DF200C02CF22CC200F02DC2F6
:102F300001F02EC202F02FC203F07FEF18F0E9502B
:102F40000201356F3451376F1CE033C240F232C298
:102F50003FF231C23EF230C23DF2446B436B200E71
:102F6000426F820E416F0001C4EC0CF003C033F2DB
:102F700002C032F201C031F200C030F20201372F3C
:102F8000E4D733C240F232C23FF231C23EF230C225
:102F90003DF200013FEC0DF003C033F202C032F20B
:102FA00001C031F200C030F2020133AF0DD035075D
:102FB000358B301F311F321F331F302BD8B4312BCC
:102FC000D8B4322BD8B4332B3B0E3C6F9A0E3B6FE8
:102FD000CA0E3A6F396B0A0E376F3451D8B4352B9D
:102FE000D882020EEA6E300EE96E33C240F232C26F
:102FF0003FF231C23EF230C23DF23CC244F23BC22B
:1030000043F23AC242F239C241F2000199EC09F0AE
:103010000150005213E102013429375DD8A402D0D7
:1030200000010CD035510DE00F0B375D01E044E29B
:1030300035BF42D035BD05D0200E37D0200E02015D
:10304000351735AB0FD0359B3451D8A43507005018
:10305000356F2D0E3D6F0001CDEC13F0020135519F
:10306000006E356B3451375D0DE10050356F2E0E1B
:103070003D6F0001CDEC13F002013551006E200EC2
:103080003517000E300E35AB10D0359B3451D8A417
:1030900035070050356F2D0E3D6F0001CDEC13F05C
:1030A00002013551006E356B300E002600C03DF236
:1030B0000001CDEC13F00201D8923CC240F23BC2B9
:1030C0003FF23AC23EF239C23DF2446B436B426B6F
:1030D0000A0E416F000199EC09F003C03CF202C0F6
:1030E0003BF201C03AF200C039F20201372F78D723
:1030F0000001A5EF18F0A551A61132E073D603C068
:103100002FF202C02EF201C02DF200C02CF2010EEF
:103110000101976F6C0E966FAE0EF66E0B0EF76E8A
:10312000060E0201306F0001DEEC13F0050EE96EB1
:103130002FC233F22EC232F22DC231F22CC230F243
:10314000020E0201346F0001FAD6B90EF66E0B0EB4
:10315000F76E080E0201306F0001DEEC13F01DD097
:10316000020EEA6E170EE96EF2CF2CF2F29E150EE9
:10317000016EF76A000E02EC02F00A000900F5CFBA
:10318000EEFF012EFBD702012CBFF28E020E556F0F
:10319000170E546F000157EC10F012000900F552A1
:1031A0000DE0F6CF1BF2F7CF1CF2F5CF3DF2CDECE0
:1031B00013F01BC2F6FF1CC2F7FFF0D7A8EF21F0F7
:1031C00056EC11F002C018F201C017F217C2FAF063
:1031D0000201185327E11751280824E3185303E18B
:1031E000175113081FE2140E175D0001F16F000E56
:1031F000020118590001F26FD890F135026EF235D4
:10320000036E0250C20FE96E000E0320EA6EECCF8F
:1032100018F0ED52EFCF17F0010E016E000E026EA6
:1032200004D00201000E016E026E0001B6EF22F022
:1032300056EC11F002C018F201C017F217C2FBF0F1
:103240000201185327E11751280824E3185303E11A
:10325000175113081FE2140E175D0001B36F000E23
:10326000020118590001B46FD890B335026EB4351D
:10327000036E0250C20FE96E000E0320EA6EECCF1F
:103280001AF0ED52EFCF19F0010E016E000E026E32
:1032900004D00201000E016E026E000112EF23F055
:1032A000016A026A006A036A02011C5102E11B51B1
:1032B00018E0100E1D6FD89019371A3700360336F4
:1032C0001C51035C02E11B51005C07E31B51005ED3
:1032D000D8A003061C51035ED880013602361D2F8C
:1032E000EAD700011200EF5210E0EACF1CF2E9CF5A
:1032F0001BF2EFCF3DF2CDEC13F01CC2EAFF1BC274
:10330000E9FFE92AD8B4EA2AEED72CEF26F001012A
:10331000B76BE16B020EB86F356B0001E9EC10F092
:1033200002C018F201C017F2020101503A081FE171
:1033300018531DE10001F8EC10F056EC11F001C03B
:10334000F0F1F8EC10F002C018F201C017F202011F
:1033500001503A0802E1185300E10101F051000167
:10336000EF5D02E1F05302E0BBEF27F00201000144
:10337000F8EC10F002C018F201C017F20201185365
:1033800003E11751600808E2185306E117517A0863
:1033900003E31751DF0B01D017510101E26F000168
:1033A000F8EC10F002C018F201C017F20201185335
:1033B00003E11751600808E2185306E117517A0833
:1033C00003E31751DF0B01D017510101E36F000137
:1033D00008EC11F0E9EC10F002C018F201C017F28D
:1033E000020101500D0806E1185304E1010E01012C
:1033F000E16F02010101E2514C0A000133E0680A69
:1034000051E06C0AD8B477D00E0AD8B495D00B0A24
:10341000D8B40DD1090AD8B492D1160AD8B421D3A0
:10342000050AD8B485EF20F0040AD8B48EEF20F056
:103430001A0AD8B4A9EF20F01D0AD8B465EF21F01C
:10344000020AD8B471EF21F0150AD8B492EF23F034
:10345000040AD8B49AEF24F0160AD8B41DEF25F068
:103460009EEF27F00101E351490A000103E0060A3B
:1034700014E016D056EC11F002C0F6F101C0F5F1DF
:103480000101F551B80805E1F651440802E1010EC9
:10349000286F010E376F000103D00101286B000176
:1034A000BBEF27F00101E351520822E1000156EC85
:1034B00011F002C0F6F101C0F5F10101F551B708B4
:1034C00003E1F651440802E0BCEF27F0366B0D0E25
:1034D000F96F0A0EFA6FFB6F2A0EFC6FFD6B010E7F
:1034E0000201556FF90E546F000157EC10F0010105
:1034F0000001BBEF27F0010EEA6EFE0EE96EF2CF7F
:1035000017F2F29E0F0E016EF76A000EC7EC04F080
:103510000A000900F5CFEEFF012EFBD7020117BF0D
:10352000F28E010E556FFE0E546F000157EC10F035
:10353000BAEF11F0BBEF27F00101E351520A00018D
:1035400001E073D00101E351520851E1E15326E05B
:10355000010E976FB90E966F020EF66E0C0EF76E97
:10356000030E0201306F0001DEEC13F0100EE96E65
:10357000B2C01DF2B1C01CF2F2EC13F00D0E02014C
:103580003D6F0001CDEC13F0010E0201556FB90E35
:10359000546F000157EC10F028D00101000150ECED
:1035A00014F00101F46BF36B02C0F2F101C0F1F110
:1035B000F2C1B2F0F1C1B1F0F2C118F2F1C117F2EB
:1035C000F2C122F2F1C121F20001E3EC09F04FEC6B
:1035D0000BF0320E02012D6F0001FAEC06F04FECF9
:1035E0000BF0010E0101B76F00011FD00101010EA8
:1035F000EA6EFE0EE96EF2CF17F2F29E0A0E016E2F
:10360000F76A000E0001DCEC04F00A000900F5CFB7
:10361000EEFF012EFBD7020117BFF28E010E556F90
:10362000FE0E546F000157EC10F0BBEF27F00101C4
:10363000E3514F0862E1E15325E0010E976FB90EA7
:10364000966F0A0EF66E0C0EF76E030E0201306FC7
:103650000001DEEC13F0A7C01CF21B0E02011D6F6F
:1036600000019AEC14F00D0E02013D6F0001CDEC4B
:1036700013F0010E0201556FB90E546F000157ECA3
:1036800010F00101000156EC11F002C0F6F101C08A
:10369000F5F10101F6530CE1F551030809E3F5C119
:1036A000A7F00001AFEC0BF0010E0101B76F24D0C1
:1036B000010EEA6EFE0EE96EF2CF17F2F29E090ECF
:1036C000016EF76A000E0001EEEC04F00A0009003A
:1036D000F5CFEEFF012EFBD7020117BFF28E010ED0
:1036E000556FFE0E546F000157EC10F00101B76BDF
:1036F0000001BBEF27F001011FD0010EEA6EFE0EA4
:10370000E96EF2CF17F2F29E090E016EF76A000E13
:103710000001EEEC04F00A000900F5CFEEFF012EE7
:10372000FBD7020117BFF28E010E556FFE0E546FCC
:10373000000157EC10F001010001BBEF27F001017F
:10374000E351530A000107E0030AD8B485D0150AF3
:10375000D8B405D184D10101E15326E0010E976F61
:10376000B90E966F120EF66E0C0EF76E030E020176
:10377000306F0001DEEC13F0ABC01CF21B0E020137
:103780001D6F00019AEC14F00D0E02013D6F000157
:10379000CDEC13F0010E0201556FB90E546F00010C
:1037A00057EC10F054D00101000156EC11F002C0AA
:1037B000F6F101C0F5F10101F6530AE1F5510108F6
:1037C00007E3F5C1ABF00001DDEC0BF040D00101E7
:1037D000010EEA6EFE0EE96EF2CF17F2F29E090EAE
:1037E000016EF76A000E0001EEEC04F00A00090019
:1037F000F5CFEEFF012EFBD7020117BFF28E010EAF
:10380000556FFE0E546F000157EC10F0010E0101D0
:10381000976F6C0E966F1A0EF66E0C0EF76E070E03
:103820000201306F0001DEEC13F0ABC01CF21B0E86
:1038300002011D6F00019AEC14F00D0E02013D6FA4
:103840000001CDEC13F00101B76B000108D1010EAE
:103850000101B76F000103D10101E15326E0010E20
:10386000976FB90E966F260EF66E0C0EF76E030E5E
:103870000201306F0001DEEC13F0A9C01CF21B0E38
:1038800002011D6F00019AEC14F00D0E02013D6F54
:103890000001CDEC13F0010E0201556FB90E546F0B
:1038A000000157EC10F056D00101000156EC11F068
:1038B00002C0F6F101C0F5F10101F6530CE1F5513A
:1038C000010809E3010ED880F5550001A96FAFEC9E
:1038D0000BF040D00101010EEA6EFE0EE96EF2CF50
:1038E00017F2F29E090E016EF76A000E0001EEEC6F
:1038F00004F00A000900F5CFEEFF012EFBD702010C
:1039000017BFF28E010E556FFE0E546F000157EC7B
:1039100010F0010E0101976F6C0E966F2E0EF66E71
:103920000C0EF76E070E0201306F0001DEEC13F093
:10393000A9C01CF21B0E02011D6F00019AEC14F0CD
:103940000D0E02013D6F0001CDEC13F00101B76BCC
:10395000000185D0010E0101B76F000180D0010187
:10396000E15326E0010E976FB90E966F3A0EF66E90
:103970000C0EF76E030E0201306F0001DEEC13F047
:10398000AFC01CF21B0E02011D6F00019AEC14F077
:103990000D0E02013D6F0001CDEC13F0010E02018E
:1039A000556FB90E546F000157EC10F054D001015F
:1039B000000156EC11F002C0F6F101C0F5F1010171
:1039C000F6530AE1F551010807E3F5C1AFF0000134
:1039D000AFEC0BF040D00101010EEA6EFE0EE96E75
:1039E000F2CF17F2F29E090E016EF76A000E000187
:1039F000EEEC04F00A000900F5CFEEFF012EFBD734
:103A0000020117BFF28E010E556FFE0E546F0001BA
:103A100057EC10F0010E0101976F6C0E966F420E7D
:103A2000F66E0C0EF76E070E0201306F0001DEEC31
:103A300013F0AFC01CF21B0E02011D6F00019AECC7
:103A400014F00D0E02013D6F0001CDEC13F00101E9
:103A5000B76B000104D0010E0101B76F0001BBEF8D
:103A600027F0410E0101E35DF00FD8B04BD3100FEA
:103A70000001BFEF27F00101E15326E0010E976F2F
:103A8000B90E966F4E0EF66E0C0EF76E030E020117
:103A9000306F0001DEEC13F0AEC01CF21B0E020111
:103AA0001D6F00019AEC14F00D0E02013D6F000134
:103AB000CDEC13F0010E0201556FB90E546F0001E9
:103AC00057EC10F094D00101000156EC11F002C047
:103AD000F6F101C0F5F10101F6534AE1F551010893
:103AE00047E30001F52D10D0F6530EE10101F55327
:103AF00008E1F65306E10001F86B010EF76F04D000
:103B000001010001F86BF76B0101F52D19D0F65397
:103B100017E10001F86BF76BF7C094F1320E020168
:103B20002D6F0001FAEC06F056EC0EF0010E0201CA
:103B30002D6F0001FAEC06F056EC0EF017D00101E3
:103B40000001F86B010EF76FF7C094F1320E02011D
:103B50002D6F0001FAEC06F056EC0EF0010E02019A
:103B60002D6F0001FAEC06F056EC0EF040D001018A
:103B7000010EEA6EFE0EE96EF2CF17F2F29E090E0A
:103B8000016EF76A000E0001EEEC04F00A00090075
:103B9000F5CFEEFF012EFBD7020117BFF28E010E0B
:103BA000556FFE0E546F000157EC10F0010E01012D
:103BB000976F6C0E966F560EF66E0C0EF76E070E24
:103BC0000201306F0001DEEC13F094C11CF21B0EF9
:103BD00002011D6F00019AEC14F00D0E02013D6F01
:103BE0000001CDEC13F00101B76B8CD20001010E86
:103BF0000101B76F87D20101E15326E0010E976FF3
:103C0000B90E966F620EF66E0C0EF76E030E020181
:103C1000306F0001DEEC13F095C11CF21B0E0201A7
:103C20001D6F00019AEC14F00D0E02013D6F0001B2
:103C3000CDEC13F0010E0201556FB90E546F000167
:103C400057EC10F0D6D00101000156EC11F002C083
:103C5000F6F101C0F5F10101F55343E1F65341E1FD
:103C60000001F351F41103E1F551F6111BE00101DC
:103C7000956B0001A66B95C1A5F0320E02012D6F68
:103C80000001FAEC06F056EC0EF0010E02012D6F69
:103C90000001FAEC06F056EC0EF0010E0101B76FD0
:103CA0001FD00001F35302E1F45303E0F551F61184
:103CB00016E00101956B0001A66B95C1A5F0320ECF
:103CC00002012D6F0001FAEC06F056EC0EF0010E29
:103CD00002012D6F0001FAEC06F056EC0EF0010126
:103CE00087D0F52D47D0F65345E10001F351F4118B
:103CF0001EE0010E0101956F0001A66B95C1A5F0B4
:103D000021EC0FF0320E02012D6F0001FAEC06F0EB
:103D100056EC0EF0010E02012D6F0001FAEC06F0D8
:103D200056EC0EF0010E0101B76F21D00001F353E4
:103D30001FE1F4531DE1010E0101956F0001A66B17
:103D400095C1A5F021EC0FF0320E02012D6F00019C
:103D5000FAEC06F056EC0EF0010E02012D6F000198
:103D6000FAEC06F056EC0EF0010E0101B76F0001FF
:103D700040D00101010EEA6EFE0EE96EF2CF17F29D
:103D8000F29E090E016EF76A000E0001EEEC04F0DF
:103D90000A000900F5CFEEFF012EFBD7020117BF85
:103DA000F28E010E556FFE0E546F000157EC10F0AD
:103DB000010E0101976F6C0E966F6A0EF66E0C0E77
:103DC000F76E070E0201306F0001DEEC13F095C1B3
:103DD0001CF21B0E02011D6F00019AEC14F00D0E77
:103DE00002013D6F0001CDEC13F00101B76B8AD1E8
:103DF0000001010E0101B76F85D10101E15326E0F9
:103E0000010E976FB90E966F760EF66E0C0EF76E6A
:103E1000030E0201306F0001DEEC13F0100EE96EAC
:103E2000F6C01DF2F5C01CF2F2EC13F00D0E02010B
:103E30003D6F0001CDEC13F0010E0201556FB90E7C
:103E4000546F000157EC10F05ED00101000156ECF8
:103E500011F002C0F6F101C0F5F10101F65335E1B0
:103E6000F551010832E3F55316E1F65314E1000170
:103E7000F66BF56B320E02012D6F0001FAEC06F0C5
:103E800056EC0EF0010E02012D6F0001FAEC06F067
:103E900056EC0EF00101F52D17D0F65315E1000197
:103EA000F66B010EF56F320E02012D6F0001FAEC78
:103EB00006F056EC0EF0010E02012D6F0001FAEC37
:103EC00006F056EC0EF001011FD0010EEA6EFE0E58
:103ED000E96EF2CF17F2F29E0A0E016EF76A000E3B
:103EE0000001DCEC04F00A000900F5CFEEFF012E22
:103EF000FBD7020117BFF28E010E556FFE0E546FF5
:103F0000000157EC10F00101FDD00101E15326E062
:103F1000010E976FB90E966F7E0EF66E0C0EF76E51
:103F2000030E0201306F0001DEEC13F0100EE96E9B
:103F3000F4C01DF2F3C01CF2F2EC13F00D0E0201FE
:103F40003D6F0001CDEC13F0010E0201556FB90E6B
:103F5000546F000157EC10F045D00101000156EC00
:103F600011F002C0F6F101C0F5F10101F6531CE1B8
:103F7000F551010819E3F6C1F4F0F5C1F3F0952B02
:103F8000010E9517320E02012D6F0001FAEC06F0BA
:103F900056EC0EF0010E02012D6F0001FAEC06F056
:103FA00056EC0EF01FD00101010EEA6EFE0EE96E16
:103FB000F2CF17F2F29E0A0E016EF76A000E0001B0
:103FC000DCEC04F00A000900F5CFEEFF012EFBD770
:103FD000020117BFF28E010E556FFE0E546F0001E5
:103FE00057EC10F001018ED00101E15326E0010EE3
:103FF000976FB90E966F860EF66E0C0EF76E030E67
:104000000201306F0001DEEC13F0ADC01CF21B0E9C
:1040100002011D6F00019AEC14F00D0E02013D6FBC
:104020000001CDEC13F0010E0201556FB90E546F73
:10403000000157EC10F056D00101000156EC11F0D0
:1040400002C0F6F101C0F5F10101F6530CE1F551A2
:10405000010809E3F5C1ADF00001AFEC0BF0010E72
:104060000101B76F3ED0010EEA6EFE0EE96EF2CF8F
:1040700017F2F29E090E016EF76A000E0001EEECD7
:1040800004F00A000900F5CFEEFF012EFBD7020174
:1040900017BFF28E010E556FFE0E546F000157ECE4
:1040A00010F0010E0101976F6C0E966F8E0EF66E7A
:1040B0000C0EF76E070E0201306F0001DEEC13F0FC
:1040C000ADC01CF21B0E02011D6F00019AEC14F032
:1040D0000D0E02013D6F0001CDEC13F00101B76B35
:1040E00011D00001010E0101B76F0CD098EC07F060
:1040F00056EC0EF0010E0101B76F04D0FF00010174
:1041000001D001010001BBEF27F00101E35141089B
:1041100002E1010EB76F0001BBEF27F00101E3518F
:10412000500A000103E0060A06E011D0010E010169
:10413000B76F00010CD00B0E0101016F9F0E006FD5
:10414000000110EC15F0010E0101B76F0001BBEF8B
:1041500027F00101E351440A000104E0070AD8B442
:1041600082D0B1D00101E15326E0010E976FB90E64
:10417000966F9A0EF66E0C0EF76E030E0201306FFC
:104180000001DEEC13F0ACC01CF21B0E02011D6F2F
:1041900000019AEC14F00D0E02013D6F0001CDEC10
:1041A00013F0010E0201556FB90E546F000157EC68
:1041B00010F054D00101000156EC11F002C0F6F1EC
:1041C00001C0F5F10101F6530AE1F551030807E3D7
:1041D000F5C1ACF00001DDEC0BF040D00101010EA7
:1041E000EA6EFE0EE96EF2CF17F2F29E090E016E34
:1041F000F76A000E0001EEEC04F00A000900F5CFAA
:10420000EEFF012EFBD7020117BFF28E010E556F94
:10421000FE0E546F000157EC10F0010E0101976F74
:104220006C0E966FA20EF66E0C0EF76E070E020164
:10423000306F0001DEEC13F0ACC01CF21B0E02016B
:104240001D6F00019AEC14F00D0E02013D6F00018C
:10425000CDEC13F00101B76B000135D0010E010167
:10426000B76F000130D00101E15326E0010E976FD6
:10427000B90E966FAE0EF66E0C0EF76E030E0201BF
:10428000306F0001DEEC13F0100EE96EA4C01DF2D9
:10429000A3C01CF2F2EC13F00D0E02013D6F000101
:1042A000CDEC13F0010E0201556FB90E546F0001F1
:1042B00057EC10F004D00101000127EF15F0010EBA
:1042C0000101B76F0001BBEF27F00101E351450881
:1042D00005E100017BEC18F00101B76B0001BBEFB9
:1042E00027F00101E351450A000110E0160AD8B495
:1042F000AED01F0AD8B433D11C0AD8B45CD11D0A81
:10430000D8B495D10E0AD8B4CDD10AD20101E35167
:1043100045087CE1FFC017F20201186B186BFEC064
:1043200019F202011A6B010E0101976FB90E966F17
:10433000B60EF66E0C0EF76E030E0201306F000122
:10434000DEEC13F01A0EF66E0A0EF76ECEEF18F0D2
:10435000BB0EF66E0C0EF76E040E0201306F0001FC
:10436000DEEC13F0100EE96E18C21DF217C21CF23B
:10437000F2EC13F02E0E02013D6F0001CDEC13F0B4
:10438000100EE96E1AC21DF219C21CF2F2EC13F003
:10439000C60EF66E0C0EF76E040E0201306F0001B1
:1043A000DEEC13F00B0EE96EF0C01DF2EFC01CF254
:1043B000F2EC13F0CF0EF66E0C0EF76E040E020147
:1043C000306F0001DEEC13F00B0EE96EEDC01DF254
:1043D000ECC01CF2F2EC13F0EEC01CF2010E020174
:1043E0001D6F00019AEC14F00D0E02013D6F0001EB
:1043F000CDEC13F0010E0201556FB90E546F0001A0
:1044000057EC10F0010E0101B76F1FD0010EEA6EDC
:10441000FE0EE96EF2CF17F2F29E090E016EF76AF8
:10442000000E0001EEEC04F00A000900F5CFEEFFEB
:10443000012EFBD7020117BFF28E010E556FFE0E43
:10444000546F000157EC10F00101000169D1010126
:10445000E1533AE0FFC017F20201186B186BFEC07F
:1044600019F202011A6B010E0101976FB90E966FD6
:10447000DE0EF66E0C0EF76E030E0201306F0001B9
:10448000DEEC13F0100EE96E18C21DF217C21CF21A
:10449000F2EC13F0100EE96E1AC21DF219C21CF2F2
:1044A000F2EC13F00D0E02013D6F0001CDEC13F0A4
:1044B000010E0201556FB90E546F000157EC10F058
:1044C000010E0101B76F49D0000156EC11F002C096
:1044D000F6F101C0F5F1E9EC10F002C018F201C0EC
:1044E00017F2020101502E0819E1185317E10001DB
:1044F000F8EC10F056EC11F002C0F8F101C0F7F141
:10450000000E0101F727F551F823F8C1FFF0F7C1BC
:10451000FEF0010EB76F000103D10201010EEA6E39
:10452000FE0EE96EF2CF17F2F29E090E016EF76AE7
:10453000000E0001EEEC04F00A000900F5CFEEFFDA
:10454000012EFBD7020117BFF28E010E556FFE0E32
:10455000546F000157EC10F001010001E1D001019E
:10456000E3514C0807E10001E0EF18F0010E0101F2
:10457000B76F1FD0010EEA6EFE0EE96EF2CF17F292
:10458000F29E090E016EF76A000E0001EEEC04F0D7
:104590000A000900F5CFEEFF012EFBD7020117BF7D
:1045A000F28E010E556FFE0E546F000157EC10F0A5
:1045B00001010001B5D00101E15331E0140E000109
:1045C000B3250201176F000E0001B4210201186F1C
:1045D000010E0101976FB90E966FEA0EF66E0C0E82
:1045E000F76E030E0201306F0001DEEC13F0100EC7
:1045F000E96E18C21DF217C21CF2F2EC13F00D0E98
:1046000002013D6F0001CDEC13F0010E0201556F68
:10461000B90E546F000157EC10F004D001010001F5
:1046200018EF19F0010E0101B76F000179D00101F7
:10463000E15326E0010E976FB90E966FF20EF66EFB
:104640000C0EF76E030E0201306F0001DEEC13F06A
:10465000100EE96E20C01DF21FC01CF2F2EC13F028
:104660000D0E02013D6F0001CDEC13F0010E0201B1
:10467000556FB90E546F000157EC10F012D00101C4
:10468000000156EC11F002C020F001C01FF0060E30
:1046900002011D6FF6C11FF2F5C11EF20001B1EC5F
:1046A00007F03ED00101E15326E0010E976FB90EED
:1046B000966FFA0EF66E0C0EF76E030E0201306F57
:1046C0000001DEEC13F0100EE96E22C01DF221C0D5
:1046D0001CF2F2EC13F00D0E02013D6F0001CDEC67
:1046E00013F0010E0201556FB90E546F000157EC23
:1046F00010F016D00101000156EC11F002C0F6F1E5
:1047000001C0F5F1F6C122F0F5C121F0020E02015F
:104710001D6FF6C11FF2F5C11EF20001B1EC07F0EA
:10472000BBEF27F00101E3515308D8A47FD0E15338
:1047300026E0010E976FB90E966F020EF66E0D0E03
:10474000F76E030E0201306F0001DEEC13F0AAC019
:104750001CF21B0E02011D6F00019AEC14F00D0EED
:1047600002013D6F0001CDEC13F0010E0201556F07
:10477000B90E546F000157EC10F054D00101000144
:1047800056EC11F002C0F6F101C0F5F10101F6534B
:104790000AE1F551010807E3F5C1AAF00001DDECDB
:1047A0000BF040D00101010EEA6EFE0EE96EF2CF71
:1047B00017F2F29E090E016EF76A000E0001EEEC90
:1047C00004F00A000900F5CFEEFF012EFBD702012D
:1047D00017BFF28E010E556FFE0E546F000157EC9D
:1047E00010F0010E0101976F6C0E966F0A0EF66EB7
:1047F0000D0EF76E070E0201306F0001DEEC13F0B4
:10480000AAC01CF21B0E02011D6F00019AEC14F0ED
:104810000D0E02013D6F0001CDEC13F00101B76BED
:104820000001A9D3010E0101B76F82D0E3515008F6
:10483000D8A47ED0E15326E0010E976FB90E966F93
:10484000160EF66E0D0EF76E030E0201306F0001AC
:10485000DEEC13F0A8C01CF21B0E02011D6F00015C
:104860009AEC14F00D0E02013D6F0001CDEC13F037
:10487000010E0201556FB90E546F000157EC10F094
:1048800054D00101000156EC11F002C0F6F101C054
:10489000F5F10101F6530AE1F551010807E3F5C10D
:1048A000A8F00001AFEC0BF040D00101010EEA6E60
:1048B000FE0EE96EF2CF17F2F29E090E016EF76A54
:1048C000000E0001EEEC04F00A000900F5CFEEFF47
:1048D000012EFBD7020117BFF28E010E556FFE0E9F
:1048E000546F000157EC10F0010E0101976F6C0E30
:1048F000966F1E0EF66E0D0EF76E070E0201306FEC
:104900000001DEEC13F0A8C01CF21B0E02011D6FAB
:1049100000019AEC14F00D0E02013D6F0001CDEC88
:1049200013F00101B76B000126D3010E0101B76F2F
:10493000000121D30101E351500A000105E0040AFE
:104940003CE0060A40E077D0140E016EC250830BA3
:104950000110C26E420E006E002EFED70000C28211
:10496000C2B2FED7C4CFF6F10101C3CFF5F1010EFB
:10497000976F6C0E966F2A0EF66E0D0EF76E040E84
:104980000201306F0001DEEC13F0100EE96EF6C18B
:104990001DF2F5C11CF2F2EC13F00D0E02013D6F99
:1049A0000001CDEC13F00A0E02013D6F0001CDECC9
:1049B00013F00101B76B00013ED07BEC18F0010150
:1049C000B76B000138D0100E016EC250830B01107E
:1049D000C26E1A0E006E002EFED70000C282C2B256
:1049E000FED7C4CFF6F10101C3CFF5F1010E976FE9
:1049F0006C0E966F340EF66E0D0EF76E040E0201FD
:104A0000306F0001DEEC13F0100EE96EF6C11DF2FE
:104A1000F5C11CF2F2EC13F00D0E02013D6F000126
:104A2000CDEC13F00A0E02013D6F0001CDEC13F046
:104A30000101B76B00019FD29ED2010EEA6EFE0EFD
:104A4000E96EF2CF17F2F29E190E016EF76A000EB0
:104A500015EC05F00A000900F5CFEEFF012EFBD79B
:104A6000020117BFF28E010E556FFE0E546F00014A
:104A700057EC10F0010EEA6EFE0EE96EF2CF17F25F
:104A8000F29E0F0E016EF76A000E00EC05F00A00B0
:104A90000900F5CFEEFF012EFBD7020117BFF28E02
:104AA000010E556FFE0E546F000157EC10F0010E11
:104AB0000101976FB90E966F3E0EF66E0D0EF76EF2
:104AC000050E0201306F0001DEEC13F0100EE96EEE
:104AD000F0C01DF2EFC01CF2F2EC13F0460EF66EC1
:104AE0000D0EF76E040E0201306F0001DEEC13F0C4
:104AF0000B0EE96EEDC01DF2ECC01CF2F2EC13F0EF
:104B0000EEC01CF2010E02011D6F00019AEC14F0C0
:104B10000D0E02013D6F0001CDEC13F0010E0201FC
:104B2000556FB90E546F000157EC10F0100E016E66
:104B3000C250830B0110C26E1A0E006E002EFED7FB
:104B40000000C282C2B2FED7C4CF03F10101C3CFBD
:104B500002F1035102081AE303E10251440816E38B
:104B6000010EEA6EE40EE96EF2CF17F2F29E000E2D
:104B700000012FEC05F00A000900F550EE6E000967
:104B8000FBE1020117BFF28E15D00101010EEA6EA2
:104B9000E40EE96EF2CF17F2F29E000E00013FEC38
:104BA00005F00A000900F550EE6E0009FBE1020174
:104BB00017BFF28E0001F751F81105E00101F86B03
:104BC000F76B05D000010101F86B010EF76FA4C06F
:104BD0001AF2A3C019F202011C6B640E1B6F0001D4
:104BE00050EC19F002C018F201C017F2A4C01AF27A
:104BF000A3C019F202011C6B640E1B6F000150EC84
:104C000019F000C019F203C01AF2010E0101976FEA
:104C1000B90E966F560EF66E0D0EF76E080E020167
:104C2000306F0001DEEC13F0100EE96EB2C01DF221
:104C3000B1C01CF2F2EC13F0610EF66E0D0EF76EC1
:104C4000060E0201306F0001DEEC13F0010EEA6E79
:104C5000E40EE96E73EF19F0690EF66E0D0EF76E45
:104C6000070E0201306F0001DEEC13F0100EE96E4A
:104C700005C11DF204C11CF2F2EC13F0730EF66EC6
:104C80000D0EF76E050E0201306F0001DEEC13F021
:104C9000100EE96E18C21DF217C21CF2F2EC13F0EE
:104CA0002E0E02013D6F0001CDEC13F0100EE96EE7
:104CB0001AC21DF219C21CF2F2EC13F07F0EF66E4E
:104CC0000D0EF76E090E0201306F0001DEEC13F0DD
:104CD000A7C01CF21B0E02011D6F00019AEC14F01C
:104CE0008A0EF66E0D0EF76E050E0201306F000192
:104CF000DEEC13F0AAC01CF21B0E02011D6F0001B6
:104D00009AEC14F0910EF66E0D0EF76E050E020180
:104D1000306F0001DEEC13F0100EE96EA6C01DF23C
:104D2000A5C01CF2F2EC13F00D0E02013D6F000164
:104D3000CDEC13F0010E0201556FB90E546F000156
:104D400057EC10F0010ED880A9550201176F140E10
:104D50000001F1250201186F000E0001F22102018D
:104D6000196F140E0001B32502011A6F000E000125
:104D7000B42102011B6F010E0101976FB90E966FEE
:104D80009C0EF66E0D0EF76E060E0201306F0001DE
:104D9000DEEC13F0AFC01CF21B0E02011D6F000110
:104DA0009AEC14F0A40EF66E0D0EF76E050E0201CD
:104DB000306F0001DEEC13F0ADC01CF21B0E0201DF
:104DC0001D6F00019AEC14F0AB0EF66E0D0EF76E2F
:104DD000050E0201306F0001DEEC13F017C21CF269
:104DE0001B0E02011D6F00019AEC14F0B20EF66E5C
:104DF0000D0EF76E050E0201306F0001DEEC13F0B0
:104E0000100EE96EF8C11DF2F7C11CF2F2EC13F0BE
:104E1000BA0EF66E0D0EF76E050E0201306F000130
:104E2000DEEC13F0ABC01CF21B0E02011D6F000183
:104E30009AEC14F0C10EF66E0D0EF76E050E02011F
:104E4000306F0001DEEC13F0ACC01CF21B0E02014F
:104E50001D6F00019AEC14F0C80EF66E0D0EF76E81
:104E6000050E0201306F0001DEEC13F0100EE96E4A
:104E700019C21DF218C21CF2F2EC13F0D00EF66E3D
:104E80000D0EF76E050E0201306F0001DEEC13F01F
:104E9000100EE96E1BC21DF21AC21CF2F2EC13F0E6
:104EA000D80EF66E0D0EF76E050E0201306F000182
:104EB000DEEC13F0100EE96EF4C01DF2F3C01CF22C
:104EC000F2EC13F0E00EF66E0D0EF76E050E020119
:104ED000306F0001DEEC13F0100EE96EF6C01DF22B
:104EE000F5C01CF2F2EC13F0E80EF66E0D0EF76E44
:104EF000050E0201306F0001DEEC13F0A8C01CF2B9
:104F00001B0E02011D6F00019AEC14F0EF0EF66EFD
:104F10000D0EF76E030E0201306F0001DEEC13F090
:104F2000010E0201556FB90E546F000157EC10F0DD
:104F30007BEC18F00101B76B00011DD0010EEA6E89
:104F4000FE0EE96EF2CF17F2F29E090E016EF76ABD
:104F5000000EEEEC04F00A000900F5CFEEFF012E82
:104F6000FBD7020117BFF28E010E556FFE0E546F74
:104F7000000157EC10F00101000140EF28F0F2CFE2
:104F80000DF0F29EE824F76AF736A30FF66E4F0E87
:104F9000F7220A00F550FA6E0800F5500DBEF28EA9
:104FA000F96EE83F0A3FFA3D0241FC40F63B024100
:104FB0000241024102410241EC40024102410241F0
:104FC000763A4F50000A06E0020A1CE0010AD8B403
:104FD000AAD0A9D0506A020E4F6EA26BA16B01013C
:104FE00028530EE00D0EB16F3E0EB26FB36B010E83
:104FF0000201556FB10E546F000157EC10F0010122
:10500000000191D02C52D8B477D0A26BA16BD3EC15
:1050100010F00101AE6B01C0ADF15050502A036A8F
:10502000510FE96E000E0320EA6EADC1EFFF505044
:10503000460804E24F6A000176D00101AD510D0827
:1050400002E1AE5305E0AD513B0857E1AE5355E1E7
:10505000AD513B080EE1AE530CE1010E505C036A0A
:10506000510FE96E000E0320EA6E0D0EEF6E506ACE
:1050700004D0000121EC07F00101000187EF19F0D5
:105080000101375305E0285303E100014CD0010131
:105090000D0EB16F0A0EB26F4F0EB36F4B0EB46FA1
:1050A0000A0EB56FB66B010E0201556FB10E546F4B
:1050B000000157EC10F00101AF2D16D0B05314E1F0
:1050C000285303E100012FD001010A0EB16F0D0E2C
:1050D000B26FB36B010E0201556FB10E546F000138
:1050E00057EC10F009D00101010E0201556F6C0E52
:1050F000546F000157EC10F001014F50010811E20C
:1051000028A20FD028920001A12BD8B4A22BA25123
:10511000260806E2FF0A03E1A151100801E24F6AE6
:105120000101000100D0ACEF31F08A920101FE6B69
:10513000FE51070813E3FB51800B02E18C9801D06C
:105140008C8800D000D08C8000D000D08C9000D013
:1051500000D0FE51FE2BD890FB37EAD7FE6BFE51F4
:10516000070813E3FC51800B02E18C9801D08C8876
:1051700000D000D08C8000D000D08C9000D000D027
:10518000FE51FE2BD890FC37EAD78A82FDC101F090
:1051900000011200C7C1C9F1C8C1CAF1020E020163
:1051A0002D6F010E2F6FC90E2E6F000178EC0BF0E2
:1051B00012000101C451690A000119E0200A2EE021
:1051C0002D0A43E0200A5AE06F0AD8B470D0160ABC
:1051D000D8B494D0100AD8B4B8D0720AD8B4DED0FB
:1051E000610AD8B404D1020AD8B40DD116D1010194
:1051F000632B06E1642B6451030802E2636B646B6A
:105200000B0EFB6F63C1FCF100018FDF0C0E01017F
:10521000FB6F64C1FCF1000188DFFFD00101672B47
:1052200006E1682B6851030802E2676B686B0F0E9A
:10523000FB6F67C1FCF1000178DF100E0101FB6F0D
:1052400068C1FCF1000171DFE8D001016307633D33
:1052500007D064076451030803E26369030E646FB7
:105260000B0EFB6F63C1FCF100015FDF0C0E01014F
:10527000FB6F64C1FCF1000158DFCFD0010167076B
:10528000673D07D068076851030803E26769030EAA
:10529000686F0F0EFB6F67C1FCF1000146DF100E57
:1052A0000101FB6F68C1FCF100013FDFB6D00101D5
:1052B00065C1C5F16651030BC66FC52BD8B4C62BAB
:1052C000C651030802E2C66BC56B6651C00BC76FBF
:1052D000000EC513C751C613C5C165F1C6C166F13D
:1052E0000B0EFB6F65C1FCF100011FDF0C0E01010D
:1052F000FB6F66C1FCF1000118DF8FD0010169C1AD
:10530000C5F16A51030BC66FC52BD8B4C62BC65165
:10531000030802E2C66BC56B6A51C00BC76F000E73
:10532000C513C751C613C5C169F1C6C16AF10B0ED9
:10533000FB6F69C1FCF10001F8DE0C0E0101FB6F8F
:105340006AC1FCF10001F1DE68D0010165C1C5F15F
:105350006651030BC66FC551D8B4C607C507C65101
:10536000030803E2030EC66FC5696651C00BC76F21
:10537000000EC513C751C613C5C165F1C6C166F19C
:105380000B0EFB6F65C1FCF10001CFDE0C0E0101BD
:10539000FB6F66C1FCF10001C8DE3FD0010169C1AD
:1053A000C5F16A51030BC66FC551D8B4C607C5070E
:1053B000C651030803E2030EC66FC5696A51C00BEC
:1053C000C76F000EC513C751C613C5C169F1C6C169
:1053D0006AF10B0EFB6F69C1FCF10001A6DE0C0E39
:1053E0000101FB6F6AC1FCF100019FDE16D0B53DE3
:1053F00001D001D0B52B010E0101C76FB5C0C8F1B6
:105400000001C8DE0AD0B55301E0B507010E010165
:10541000C76FB5C0C8F10001BDDEE6EF30F00D0E7C
:105420000101FB6F0A0EFC6FFD6B010E0201556F4F
:10543000FB0E546F000157EC10F0010EEA6EFB0EEC
:10544000E96EF2CF3DF2F29E3D0E016EF76A000E5C
:1054500086EC00F00A000900F5CFEEFF012EFBD725
:1054600002013DBFF28E010E556FFB0E546F00011D
:1054700057EC10F0010EEA6EFB0EE96EF2CF3DF232
:10548000F29E2E0E016EF76A000EB2EC00F00A00DA
:105490000900F5CFEEFF012EFBD702013DBFF28ED2
:1054A000010E556FFB0E546F000157EC10F0010E0A
:1054B000EA6EFB0EE96EF2CF3DF2F29E420E016EF5
:1054C000F76A000ED6EC00F00A000900F5CFEEFFF7
:1054D000012EFBD702013DBFF28E010E556FFB0E70
:1054E000546F000157EC10F0010EEA6EFB0EE96EEE
:1054F000F2CF3DF2F29E230E016EF76A000E04EC2D
:1055000001F00A000900F5CFEEFF012EFBD70201E2
:105510003DBFF28E010E556FFB0E546F000157EC2C
:1055200010F0010EEA6EFB0EE96EF2CF3DF2F29E34
:105530002D0E016EF76A000E23EC01F00A0009003F
:10554000F5CFEEFF012EFBD702013DBFF28E010E1B
:10555000556FFB0E546F000157EC10F0010EEA6E10
:10556000FB0EE96EF2CF3DF2F29E2E0E016EF76A4F
:10557000000E47EC01F00A000900F5CFEEFF012E06
:10558000FBD702013DBFF28E010E556FFB0E546F2B
:10559000000157EC10F0010EEA6EFB0EE96EF2CF3F
:1055A0003DF2F29E360E016EF76A000E6BEC01F0D2
:1055B0000A000900F5CFEEFF012EFBD702013DBF27
:1055C000F28E010E556FFB0E546F000157EC10F078
:1055D000010EEA6EFB0EE96EF2CF3DF2F29E160E60
:1055E000016EF76A000E93EC01F00A000900F5CF96
:1055F000EEFF012EFBD702013DBFF28E010E556F6B
:10560000FB0E546F000157EC10F0010EEA6EFB0E1A
:10561000E96EF2CF3DF2F29E3C0E016EF76A000E8B
:10562000ABEC01F00A000900F5CFEEFF012EFBD72D
:1056300002013DBFF28E010E556FFB0E546F00014B
:1056400057EC10F0010EEA6EFB0EE96EF2CF3DF260
:10565000F29E3D0E016EF76A000ED6EC01F00A00D4
:105660000900F5CFEEFF012EFBD702013DBFF28E00
:10567000010E556FFB0E546F000157EC10F00D0E2C
:105680000101FB6F0A0EFC6FFD6B010E0201556FED
:10569000FB0E546F000157EC10F07AEF2DF0010172
:1056A000FCBF12D00F0E006EFB3900160A0E005C14
:1056B00003E2300E002602D0FC51002600C03DF26D
:1056C0000001CDEC13F001010F0EFB170A0EFB5D7C
:1056D00002E2300E02D0FC9FFC51FB27FBC13DF2E1
:1056E0000001CDEC13F0120008EC11F0E9EC10F021
:1056F00001500210D8B47CD00101FE6BFD6BFC6B35
:10570000FB6B0001E9EC10F002C001F201C000F2F5
:105710000201015303E100512F0805E2015303E1A7
:105720000051390814E2015303E10051400805E239
:10573000015303E1005146080AE2015303E100511D
:10574000600855E2015353E10051660850E300013F
:10575000F8EC10F001C0FFF10101FF51600806E212
:10576000FF517A0803E3FF51DF0B01D0FF51FF6FB8
:10577000FF51390803E3300EFF5F02D0370EFF5FA1
:10578000FB350201006F0101FC350201016F0101CF
:10579000FD350201026F0101FE350201036F003782
:1057A0000137023703370037013702370337003735
:1057B000013702370337F00E0017FFC100F0016A0E
:1057C000026A036A005000250101FB6F01500201CB
:1057D00001210101FC6F0250020102210101FD6F54
:1057E0000350020103210101FE6F8BD7020100016A
:1057F000FBC100F0FCC101F0FDC102F0FEC103F0ED
:10580000120008EC11F0036A01013551510FE96EE5
:10581000000E0320EA6EEF5249E0FE6BFD6BFC6B5D
:10582000FB6B036A3551510FE96E000E0320EA6EDF
:10583000EFCFFFF1FF512F0839E2FF51390836E36E
:10584000FEC136F2FDC135F2FCC134F2FBC133F2C8
:1058500002013A6B396B386B0A0E376F00016BEC43
:1058600009F003C002F202C001F201C000F200C060
:10587000FFF101013551352B036A510FE96E000E1E
:105880000320EA6E300EEF5C0024FB6F000E020175
:1058900001200101FC6F000E020102200101FD6FD9
:1058A000000E020102210101FE6FBBD7FBC100F017
:1058B000FCC101F0FDC102F0FEC103F00001EBEFFD
:1058C0002EF002010D6B0C6BFEC10BF2FDC10AF252
:1058D0000DC236F20CC235F2FEC134F2FDC133F214
:1058E0003A6B396B270E386F100E376F00016BEC77
:1058F00009F003C00DF202C00CF201C00BF200C0AF
:105900000AF203C034F202C033F201C032F200C026
:1059100031F260EC0DF003C009F202C008F201C0E0
:1059200007F200C006F2020E0101FF6F020106C27B
:1059300000F207C201F208C202F209C203F2050E28
:105940002D6F010E2F6F2E69000178EC0BF0FCEF2C
:105950002EF08A940101FF6BFF5107081BE3FBAF98
:1059600002D08C8801D08C98060E006E002EFED7D7
:1059700000008C80060E006E002EFED700008C907A
:10598000060E006E002EFED70000FF51FF2BD890B0
:10599000FB37E2D7FE6BFF6BFF51070822E3D8907D
:1059A000FE37060E006E002EFED700008C80030E20
:1059B000006E002EFED700D083A206D0FE81020E1C
:1059C000006E002EFED70000020E006E002EFED7E5
:1059D00000008C90030E006E002EFED700D0FF2B2F
:1059E000DBD7FCC1E9FFFDC1EAFFFEC1EFFF8A84FE
:1059F0008C90FEC101F0000120EF2FF08A9201018E
:105A0000FB8FFD6BFD51070813E3FB51800B02E197
:105A10008C9801D08C8800D000D08C8000D000D031
:105A20008C9000D000D0FD51FD2BD890FB37EAD7E9
:105A3000FD6BFD5107080DE38C8000D000D08C90E9
:105A400000D000D0D890FC3783A201D0FC81FD2B80
:105A5000F0D78A82FCC101F0000157EF2FF0020E4F
:105A60000101C46F356B0001F8EC10F002C0FCF1CD
:105A700001C0FBF10101FC5303E1FB51600808E2A6
:105A8000FC5306E1FB517A0803E3FB51DF0B01D025
:105A9000FB51480A00012DE0090A30E0020AD8B49F
:105AA00096D0070AD8B4FDD00B0AD8B439D11D0A54
:105AB000D8B456D1100AD8B475D1050AD8B49FD13C
:105AC000010AD8B42AD2150AD8B483D2070AD8B4A6
:105AD000D3D2650AD8B433D3030AD8B437D3010A72
