:0400000080EF00F09D
:08000800046ED8CF05F0E0CF33
:1000100006F00001E9CF0CF0EACF07F0E1CF08F0DD
:10002000E2CF09F0D9CF0AF0DACF0BF0F3CF12F01C
:10003000F4CF13F0FACF14F0F5CF15F0F6CF16F099
:10004000F7CF17F000C00EF001C00FF002C010F0A3
:1000500003C011F09DAA30EF00F09EBA63EF00F0EC
:100060009DA836EF00F09EB889EF04F00EC000F0B6
:100070000FC001F010C002F011C003F00CC0E9FF86
:1000800007C0EAFF078E08C0E1FF09C0E2FF0AC00F
:10009000D9FF0BC0DAFF12C0F3FF13C0F4FF14C086
:1000A000FAFF15C0F5FF16C0F6FF17C0F7FF0450A2
:1000B00006C0E0FF05C0D8FF1000ABA202D0AB988D
:1000C000AB8874EF00F001017651762B036AC20F02
:1000D000E96E000E0320EA6EAECFEFFF7651B40852
:1000E00001E1766B0001E9D79EBAEDD79D8A9E9A11
:0E00F00036EF00F0CCEF05F06DEF03F01200DC
:10010000F86AD09E078EEA6AE96A700ED36E9B8CFD
:100110009B9E196AB886100EAF6E000EB06EA60ECA
:10012000AC6E900EAB6E1D6A1C6A1B6A1A6A350EA5
:10013000CD6ECC6ACF6ACE6A9E909298929689963E
:1001400092948994700ED36E9B8C9B9ED36E9B8CE5
:100150009B9E030180697F697E697D69C150F00BB8
:10016000C16E000E0F01386F3C6F396F3A6F3B6FF5
:100170000101886B776A786A796A1E6A1F6A206A49
:10018000216A226A236A246A256A266A276A286AFB
:10019000296A2A6A2B6A2C6A2D6A2E6A2F6A306AAB
:1001A000316A326A336A346A356A366A376A386A5B
:1001B000396A3A6A3B6A3C6A3D6A3E6A3F6A406A0B
:1001C000416A426A436A446A456A466A476A486ABB
:1001D000496A4A6A4B6A4C6A4D6A4E6A4F6A506A6B
:1001E000516A526A536A546A556A566A576A586A1B
:1001F000596A5A6A5B6A5C6A5D6A5E6A5F6A000194
:10020000606B616B626B636B646B656B666B676B7A
:10021000686B696B6A6B6B6B6C6B6D6B6E6B6F6B2A
:10022000706B716B726B736B746B756B766B776BDA
:10023000786B796B7A6B7B6B7C6B7D6B7E6B7F6B8A
:10024000806B816B826B836B846B856B866B876B3A
:10025000886B896B8A6B8B6B8C6B8D6B8E6B8F6BEA
:10026000906B916B926B936B946B956B966B976B9A
:10027000986B996B9A6B9B6B9C6B9D6B9E6B9F6B4A
:10028000A06BA16BA26BA36BA46BA56BA66BA76BFA
:10029000A86BA96BAA6BAB6BAC6BAD6BAE6BAF6BAA
:1002A000B06BB16BB26BB36BB46BB56BB66BB76B5A
:1002B000B86BB96BBA6BBB6BBC6BBD6BBE6BBF6B0A
:1002C000C06BC16BC26BC36BC46BC56BC66BC76BBA
:1002D000C86BC96BCA6BCB6BCC6BCD6BCE6BCF6B6A
:1002E000D06BD16BD26BD36BD46BD56BD66BD76B1A
:1002F000D86BD96BDA6BDB6BDC6BDD6BDE6BDF6BCA
:10030000E06BE16BE26BE36BE46BE56BE66BE76B79
:10031000E86BE96BEA6BEB6BEC6BED6BEE6BEF6B29
:10032000F06BF16BF26BF36BF46BF56BF66BF76BD9
:10033000F86BF96BFA6BFB6BFC6BFD6BFE6BFF6B89
:100340000101006B016B026B036B046B056B066BA9
:10035000076B086B096B0A6B0B6B0C6B0D6B0E6BF1
:100360000F6B106B116B126B136B146B156B166BA1
:10037000176B186B196B1A6B1B6B1C6B1D6B1E6B51
:100380001F6B206B216B226B236B246B256B266B01
:10039000276B286B296B2A6B2B6B2C6B2D6B2E6BB1
:1003A0002F6B306B316B326B336B346B356B366B61
:1003B000376B386B396B3A6B3B6B3C6B3D6B3E6B11
:1003C0003F6B406B416B426B436B446B456B466BC1
:1003D000476B486B496B4A6B4B6B4C6B4D6B4E6B71
:1003E0004F6B506B516B526B536B546B556B566B21
:1003F000576B586B596B5A6B5B6B5C6B5D6B5E6BD1
:100400005F6B606B616B626B636B646B656B666B80
:10041000676B686B696B6A6B6B6B6C6B6D6B6E6B30
:100420006F6B706B716B726B736B746B756B766BE0
:10043000776B786B796B7A6B7B6B7C6B7D6B7E6B90
:100440007F6B806B816B826B836B846B856B866B40
:10045000876B886B896B8A6B8B6B8C6B8D6B8E6BF0
:100460008F6B906B916B926B936B946B956B966BA0
:10047000976B986B996B9A6B9B6B9C6B9D6B9E6B50
:100480009F6BA06BA16BA26BA36BA46BA56BA66B00
:10049000A76BA86BA96BAA6BAB6BAC6BAD6BAE6BB0
:1004A000AF6BB06BB16BB26BB36BB46BB56BB66B60
:1004B000B76BB86BB96BBA6BBB6BBC6BBD6BBE6B10
:1004C000BF6BC06BC16BC26BC36BC46BC56BC66BC0
:1004D000C76BC86BC96BCA6BCB6BCC6BCD6BCE6B70
:1004E000CF6BD06BD16BD26BD36BD46BD56BD66B20
:1004F000D76BD86BD96BDA6BDB6BDC6BDD6BDE6BD0
:10050000DF6BE06BE16BE26BE36BE46BE56BE66B7F
:10051000E76BE86BE96BEA6BEB6BEC6BED6BEE6B2F
:10052000EF6BF06BF16BF26BF36BF46BF56BF66BDF
:10053000F76BF86BF96BFA6BFB6BFC6BFD6BFE6B8F
:10054000FF6B0201006B016B026B036B046B056BAD
:10055000066B076B086B096B0A6B0B6B0C6B0D6BF7
:100560000E6B0F6B106B116B126B136B146B156BA7
:10057000166B176B186B196B1A6B1B6B1C6B1D6B57
:100580001E6B1F6B206B216B226B236B246B256B07
:10059000266B276B286B296B2A6B2B6B2C6B2D6BB7
:1005A0002E6B2F6B306B060E316F120E336F2A0ECF
:1005B000326F070E346F130E366FBA0E356F020EA0
:1005C000376F140E396FAE0E386F080E3A6F140E77
:1005D0003C6FF40E3B6F3D6B3E6B3F6B406B416B72
:1005E000426B436B446B456B466B476B486B496B87
:1005F0004A6B4B6B4C6B4D6B4E6B4F6B506B516B37
:10060000526B536B546B556B566B576B586B596BE6
:100610005A6B5B6B5C6B5D6B5E6B5F6B606B616B96
:10062000626B636B646B656B666B676B686B696B46
:100630006A6B6B6B6C6B6D6B6E6B6F6B706B716BF6
:10064000726B736B746B756B766B776B786B796BA6
:100650007A6B7B6B7C6B7D6B7E6B7F6B806B816B56
:10066000826B836B846B856B866B876B886B896B06
:100670008A6B8B6B8C6BF29CF29EF2BEFDD70301F2
:10068000826B816B8391000172D902C085F301C036
:1006900084F3030184C3E9FF85C3EAFFEFB017D0F9
:1006A000F86A070EF76EF00EF66E030EEA6E810E14
:1006B000E96EDC6B020EDB6F00014AD90301815148
:1006C000D20804E18251040801E1838101D08381D1
:1006D00083A10CD00001E6D10DD5C00EF212EEEFD1
:1006E0000AF0000E016E13D012D00301000E036E4B
:1006F000FC0E866F03C087F3270E876F866B030E91
:10070000EA6E860EE96E00011CD9000E016EFFD75D
:0E080200F76A120FF66E080EF7220900F55085
:100810001200002F5E71BC93E2CD57780926EBC41D
:10082000B59AAE81F0DF123D4C63F9D6A788456AD0
:100830001B34735C2D02CFE091BE240B7A5598B720
:10084000C6E9DDF283AC614E3F108AA5D4FB3619B0
:100850006847E6C9B8975A75042BB19EEFC00D22C0
:10086000537C48671639F4DBAA851F30416EA38C90
:10087000FDD295BACBE429067758C2ED9CB37E51E0
:10088000200F3B14654A87A8D9F66C43321DD0FF70
:100890008EA1E3CCBD925F70012EB49BEAC5082700
:1008A00056794D62133CF1DEAF801A35446BA68950
:1008B000F8D790BFCEE12C03725DC7E899B67B54A0
:1008C000250A3E11604F82ADDCF369463718D5FA30
:1008D0008BA4052A5B74B996E7C8527D0C23EEC140
:1008E000B09FAB84F5DA17384966FCD3A28D406F10
:1008F0001E3176592807CAE594BB210E7F509DB260
:10090000C3ECD8F786A9644B3A158FA0D1FE331CEF
:100910006D4202012C512D5D0FE02D512D2B036AEC
:10092000780FE96E010E0320EA6EEFCFADFF2D5177
:10093000B40801E12D6B01D09D989E98000136EF1F
:1009400000F0ECCFFAFFED52EFCFE8FFF96E1200A6
:10095000DCC301F0DBC300F00066012A0900F5CF1B
:10096000EEFF002EFBD7012EF9D7F86A1200F86AC5
:10097000100EF76EF66A020EEA6E300EE96E030193
:10098000DC6B010EDB6F0001E3DF300E016E020E47
:10099000026E1200D6C3DCF3D5C3DBF3D8C3DEF39B
:1009A000D7C3DDF30301DA5303E1D951000830E284
:1009B000DBC3E9FFDCC3EAFFEFCFDFF3DEC303F005
:1009C000DDC3E9FFDEC3EAFFEF50DF5D16E0DCC305
:1009D00003F0DBC3E9FFDCC3EAFFEFCFDFF3DEC3E5
:1009E00003F0DDC3E9FFDEC3EAFFEF50DF5D02E2A3
:1009F000FF0E01D0010E016E0DD0DB2BD8B4DC2B25
:100A0000DD2BD8B4DE2BD951D8B4DA07D907CBD730
:100A1000000E016E00011200F250036EF29EA68ECF
:100A2000A6840F01550EA76EAA0EA76EA68200001F
:100A30000350F21200011200D08CA69CF6503F0B1E
:100A4000006EC00EF6160A00E1C301F0006607D082
:100A5000EECFF5FF015204E00F00010603D00006BF
:100A60000B000C003F0EF6143F0AF0E1A688D4DF1D
:100A7000D3DF0166EBD7F86A1200030EEA6EE10ECF
:100A8000E96EEF500EE0140E016E006A002EFED7E4
:100A9000012EFBD7BF0E006E002EFED700D0EF2E2A
:100AA000F2D71200800E0301886FEF0E896F8A6BF8
:100AB000F00E8B6F040E8C6F6E0E8D6FD80E8E6FD6
:100AC000CF0E8F6FD091F86AF76AF66A030EEA6E5E
:100AD000900EE96EDC6B400EDB6F000139DF030E18
:100AE0000301D66F900ED56F030ED86F880ED76FA7
:100AF000DA6B040ED96F00014DDF015210E00301E3
:100B0000D081030EEA6E900EE96E030EE26E880E3F
:100B1000E16E040E016EE6CFEEFF012EFCD7030E50
:100B20000301D66F980ED56F030ED86F8C0ED76F5A
:100B3000DA6B040ED96F00012DDF015210E00301C2
:100B4000D081030EEA6E980EE96E030EE26E8C0EF3
:100B5000E16E040E016EE6CFEEFF012EFCD703011D
:100B6000D0A117D0F29CF29EF2BEFDD7F86AF76AC8
:100B7000F66A030EEA6E900EE96E400EE16F000118
:100B80005BDFC00EF212010E0301E16F000175DFA1
:100B9000030100016CEF03F00101766B776B02013A
:100BA0002C6B2D6B9D8A00017CEF00F001017751C9
:100BB000772B036AC20FE96E000E0320EA6EEFCFB7
:100BC00097F3030101017751B30801E2776B030149
:100BD00097C301F00001FCEF05F001017751765D4C
:100BE00003E1000E016E11D094C303F093C395F39B
:100BF00094C396F30001DAD796C3EAFF95C3E9FFE1
:100C000001C0EFFF010E016E01010001CDEF06F002
:100C10000301A06BA16BA06B9F51A05D4FE2036A23
:100C2000A0519B25E96E9C510320EA6EEF507D0890
:100C30002BE1A02B036AA0519B25E96E9C51032058
:100C4000EA6EEF505E080BE1A151A12B036A9D25CE
:100C5000E96E9E510320EA6E7E0EEF6E14D0036A99
:100C6000A0519B25E96E9C510320EA6EEF505D0870
:100C70000AE1A151A12B036A9D25E96E9E51032033
:100C8000EA6E7D0EEF6E18D0A151A12B036A9D254F
:100C9000016E9E51032203C0A3F3036AA0519B255A
:100CA000E96E9C510320EA6EEFCFA4F3A3C3EAFFE1
:100CB00001C0E9FFA4C3EFFFA02BAED7A1C301F091
:100CC000000198EF06F00301ED6BECC303F0EB516C
:100CD000D8B4EC07EB07EF6F03C0F0F3EF5302E17A
:100CE000F05314E0EAC303F0E951E92BD8B4EA2B3E
:100CF000E96E03C0EAFFEF50ED19EE6F036AEE51A3
:100D000000017FDDE8CFEDF30301DFD7EDC301F094
:100D1000000112000301986B94C39CF393C39BF3EF
:100D200097C39EF396C39DF395C39FF3000170D7BD
:100D300001C098F30301985303E1FF0E016E21D027
:100D4000010E985D9B6F97C3EAF396C3E9F3EC6BD2
:100D5000EB6F0001B8DF01C099F3010E0301985D4C
:100D6000036A9625E96E97510320EA6EEFCF9AF356
:100D70009A51995D04E1010E985D016E02D0FF0E5B
:100D8000016E000100EF07F003018F91906B030EDD
:100D9000946F910E936F000120D7015201E120D092
:100DA000036A03019051200FE96E000E0320EA6EE2
:100DB00091C3EFFF036A9051200FE96E000E0320EC
:100DC000EA6EEF507E0806E0902B9051A20801E1F8
:100DD000906B06D09051010802E28F8101D0906B98
:100DE00003018FA1D4D78FA11FD0946B200E936FD6
:100DF00090C395F38CC397F38BC396F300018AD706
:100E000001C092F303019251FF0803E1000E016E4D
:100E10000DD08DC3E9FF8EC3EAFFEC6AED5292C399
:100E2000EFFF010E016E02D0000E016E0001FAEF1D
:100E30000AF0030EEA6EA10EE96EA0C3E2FF9FC3A3
:100E4000E1FFE6CFEEFFF29CF29EF2BEFDD7F86A1C
:100E5000100EF76EF66A030EEA6EA10EE96E400EF2
:100E60000301E16F0001E8DDC00EF212010E030183
:100E7000E16F000102DE12007ADD02C09EF301C0C4
:100E80009DF303019EC303F09DC39FF39EC3A0F394
:100E90009C51FF0A016EE8B006D0A0C3EAFF9FC3D1
:100EA000E9FFEF9005D0A0C3EAFF9FC3E9FFEF8001
:100EB0009EC3A0F39DC39FF30001BBDF120003019B
:100EC000F06BF16BF06BEF51F05D58E2036AF0519B
:100ED000EB25E96EEC510320EA6EEF507E0815E138
:100EE000F151F12B036AED25E96EEE510320EA6E14
:100EF0007D0EEF6EF151F12B036AED25E96EEE5197
:100F00000320EA6E5E0EEF6E37D0036AF051EB25D8
:100F1000E96EEC510320EA6EEF507D0815E1F151C6
:100F2000F12B036AED25E96EEE510320EA6E7D0E8A
:100F3000EF6EF151F12B036AED25E96EEE510320BE
:100F4000EA6E5D0EEF6E18D0F151F12B036AED25BC
:100F5000016EEE51032203C0F3F3036AF051EB2557
:100F6000E96EEC510320EA6EEFCFF4F3F3C3EAFF2E
:100F700001C0E9FFF4C3EFFFF02BA5D7F1C301F0E7
:100F800000011200E2C3E5F3E1C3E4F30301E76B00
:100F9000E3C3E6F30001D5D09D88E6EF07F0DCC39C
:100FA000E2F3DBC3E1F3DDC3E3F30301E56B200E02
:100FB000E46F000146D00301E06B01C0DFF3E26B98
:100FC000200EE16FDFC3E3F30001DCD71200CFDCBA
:100FD00002C098F301C097F3030197C3E9FF98C3D8
:100FE000EAFFEF8298C3A0F397C39FF3000121DFCC
:040FF00083EF0AF091
:0E1042000301E66BE76BE2C3EAF3E1C3E9F3F7
:10105000EC6BE3C3EBF3000136DE01C0E8F3010EF5
:101060000301E425E96F000EE521EA6FE2C3ECF32A
:10107000E1C3EBF3EAC3EEF3E9C3EDF3E3C3EFF34C
:1010800000011DDF01C0E6F3010E0301E625036A3E
:10109000E425E96FE5510320EA6F030EEC6FE80EDB
:1010A000EB6FEAC3EEF3E9C3EDF3010EEF6F00015E
:1010B00006DF01C0E7F30301E4C3E9FFE5C3EAFF8C
:1010C0007E0EEF6EE751E625010F036AE425E96E17
:1010D000E5510320EA6E7E0EEF6EE751E625020F22
:0810E000016E0001DBEF07F0D7
:0E114200B40ED88002012C550301E86FE7536C
:1011500003E1E651E85D3DE2780E02012C25030132
:10116000E96F010EEA6FD8B0EA2BEAC3EAFFE9C3E0
:10117000E9FFE5C3E2FFE4C3E1FFE851016E04E0EB
:10118000E6CFEEFF012EFCD7E851E65F000EE75BED
:10119000E851E425E96F000EE521EA6F010EEA6EE1
:1011A000780EE96EEAC3E2FFE9C3E1FFE7C302F0AC
:1011B000E6C301F0015202E0022A02D0025206E028
:1011C000E6CFEEFF012EFCD7022EFAD7E6C32CF2B3
:1011D00024D0780E02012C250301E96F010EEA6F7D
:1011E000D8B0EA2BEAC3EAFFE9C3E9FFE5C3E2FFAF
:1011F000E4C3E1FFE7C302F0E6C301F0015202E0FD
:10120000022A02D0025206E0E6CFEEFF012EFCD702
:10121000022EFAD7E65102012C2702012C51B40804
:1012200001E12C6B0001CCEF07F093C395F392C35F
:1012300094F30301966B976B986B996B9A6B9B6B0E
:10124000860E966F94C3E9FF95C3EAFFEFCF00F0D7
:10125000ECCF01F0ECCF02F0ECCF03F003C09AF337
:1012600002C099F301C098F300C097F39B6B94C33D
:10127000E9FF95C3EAFFEFCF9CF3ECCF9DF3ECCFF2
:101280009EF3ECCF9FF39F5305E19E5303E19D51E5
:101290003F0814E294C3E9FF95C3EAFFEFCF9CF344
:1012A000ECCF9DF3ECCF9EF3ECCF9FF39F5306E181
:1012B0009E5304E19D514F08D8B06ED094C3E9FF0E
:1012C00095C3EAFFEFCF9CF3ECCF9DF3ECCF9EF3F9
:1012D000ECCF9FF39F5305E19E5303E19D511F08FF
:1012E0005BE294C3E9FF95C3EAFFEFCF9CF3ECCF39
:1012F0009DF3ECCF9EF3ECCF9FF39F534DE19E53B4
:101300004BE19D51FF0848E303E19C51FE0844E393
:101310000001B7EC04F002C09DF301C09CF303018F
:101320009CC3E9FF9DC3EAFFEFB004D09C6B0001B2
:10133000A3DD0301F29CF29EF2BEFDD79451E96E4B
:101340009551EA6EEFCF9CF3ECCF9DF3ECCF9EF37B
:10135000ECCF9FF3ED52ED52ED52040E9425A06FA9
:10136000000E9521A16F9EC3F8FF9DC3F7FF9CC39C
:10137000F6FFA1C3EAFFA0C3E9FF400EE16F000141
:101380001CEC05F0C00EF212010E0301E16F00012A
:101390003DEC05F007D00301040E006E002EFED7D1
:1013A00000D00000030E0301DC6F960EDB6FDE6BD6
:1013B000060EDD6F0001F3DD120093C395F392C3B7
:1013C00094F30301966B976B986B996B9A6B9B6B7D
:1013D0009C6B9D6B9E6B9F6BA06BA16BA26BA36BB9
:1013E000A46BA56BA66BA76BA86BA96BAA6BAB6B69
:1013F000AC6BAD6BAE6BAF6BB06BB16BB26BB36B19
:10140000B46BB56BB66BB76BB86BB96BBA6BBB6BC8
:10141000BC6BBD6BBE6BBF6BC06BC16BC26BC36B78
:10142000C46BC56BC66BC76BC86BC96BCA6BCB6B28
:10143000CC6BCD6BCE6BCF6BD06BD16BD26BD36BD8
:10144000D46BD56BD66BD76BD86BD96BDA6B870E39
:10145000966F94C3E9FF95C3EAFFEFCF00F0ECCF9E
:1014600001F0ECCF02F0ECCF03F003C09AF302C01E
:1014700099F301C098F300C097F3F86A98C3F7FF97
:1014800097C3F6FF030EEA6E9B0EE96EDC6B400E0F
:10149000DB6F0001A8EC04F0030E0301DC6F960E75
:1014A000DB6FDE6B450EDD6F000179DD120003019D
:1014B000946B956B966B976B986B996B9A6B9B6B18
:1014C0009C6B820E946F160E956F070E966F986F39
:1014D000E20E976F0B0E996F010E9A6F9C6B9B6BD0
:1014E000030EDC6F940EDB6FDE6B090EDD6F000107
:1014F00056DD1200030195699469966B010E9C6F8D
:101500000001BADC64D5800E0301966FF86A070EFD
:10151000F76EF00EF66E030EEA6E940EE96E020E92
:10152000E16F00011CEC05F0030E0301DC6F960E69
:10153000DB6FDE6B010EDD6F000131DD1200020E8C
:101540000301916F3D0E91C38CF38B6F8D6B8D51A9
:10155000030841E38D51030DF350916B906F310EF1
:101560009025E96E020E9121EA6EEFCF92F38BC3C4
:10157000E9FF8CC3EAFFEF50925D2BE18CC38FF340
:101580008BC38EF3010E8E27000E8F238D51030D1A
:10159000F350916B906F010E9025016E000E91211A
:1015A000036E0150310FE96E020E0320EA6EECCF9C
:1015B00091F3ED52EFCF90F3030EEA6E900EE96EC9
:1015C0008FC393F38EC392F30001A1EC04F003D018
:1015D00003018D2BBCD7000102EF0BF0020E0301BB
:1015E0008C6F3D0E8B6F030E8E6F880E8D6F00011A
:1015F000C4EF06F003018A9101B08A818AA102D06A
:0C16000000019DD70001EAD771EF03F054
:020000040030CA
:0E00000000F8191C00BF00000FC00FE00F40F9
:00000001FF
;PIC18F45K22
;CRC=80B9  CREATED="30-Jul-18 11:13"
